:020000040000FA
:100000000C94E7020C941A1A0C940F030C940F032F
:100010000C94491A0C940F030C940F030C940F03C7
:100020000C940F030C940F030C940F030C940F0308
:100030000C940F030C940F030C940F030C940F03F8
:100040000C94B5180C940F030C9483180C945D1841
:100050000C940F030C940F030C940F030C940F03D8
:100060000C94FF180C940F034E4F542044455445F4
:10007000435445440050414C004E545343004643C2
:100080003A0053493A0049443A00202020202B509E
:10009000495443482046554C4C00202020202B59E1
:1000A0004157205249474854004D454E553A54480F
:1000B0005254204D4944444C4500004D572D4F5358
:1000C00044202D2052322E302E302E30004F4E0044
:1000D0004F4646004C4F4F5054494D4500504944FF
:1000E00020434F4E54524F4C4C45520050524F46B5
:1000F000494C45005445585420414C41524D530001
:10010000414D5053004D4148205831303000544942
:100110004D455200535045454400414C54495455B7
:100120004445205831300044495354414E43452002
:1001300058313030005448524F54544C4520505799
:100140004D004D41472043414C004D4150204D4F03
:1001500044450041444A555354205A45524F0041AA
:10016000444A55535420414D505300534554205256
:10017000535349204D494E0053455420525353493F
:10018000204D41580043414C2052535349004345B0
:100190004C4C530041444A55535420564944004165
:1001A000444A555354204D41494E004D41494E203B
:1001B000564F4C545320414C41524D005448524FDD
:1001C00054544C45204558504F005448524F5454B5
:1001D0004C45204D4944005450410059415720524C
:1001E000415445005049544348205241544500521F
:1001F0004F4C4C2052415445005243204558504FDB
:100200000052432052415445005941572052432047
:100210004558504F0054504120425245414B504F99
:10022000494E54004D4147004C4556454C004750FF
:100230005300414C54005941570050495443480021
:10024000524F4C4C0052535349204D494E00564F8B
:100250004C54414745204D494E004D415820414D99
:100260005053004D41482055534544004D415820BE
:100270005350454544004D415820414C54004D4198
:1002800058204449535400544F5420444953540077
:10029000464C592054494D45002000414456414E9A
:1002A00043452054554E494E4700414C41524D5311
:1002B00000414456414E43454400444953504C414B
:1002C000590043555252454E54005253534900561B
:1002D0004F4C544147450052432054554E494E47D8
:1002E00020320052432054554E494E470050494455
:1002F00020434F4E46494700535441545300204D2C
:10030000495353494F4E004155544F20484F4C4498
:10031000004155544F2052544C004641494C5341E2
:10032000464500AEAF00C0C100C4C500ACAD00CDB5
:10033000CE00B5B600435A009D9E00AAAB00004116
:1003400043524F004149522000484F5A4E005354E7
:10035000414200484F4C44005741595000435255C8
:100360005A0052544C20002A46532A004D414E5503
:100370000000545552544C450020004C4F57205615
:100380004F4C5453004C4F57205341545300204E70
:100390004F20475053004E4F2044415441002041CC
:1003A000524D45440044495341524D4544000020BC
:1003B000C032C034C0B6C08F00AD0024C071002868
:1003C000C0CBC0CAC060C142017EC137C124014256
:1003D0000102C00FC04CC107016AC12E0171C17872
:1003E000C1C2C0BBC0BB00030007005C00FB00062D
:1003F000013EC03400C30064C01001BAC05601DC25
:1004000000E900F200D40098008000DA0052009E5B
:10041000007A00460064005C0082004B00000096F9
:10042000000000FF030000A30312010000220008E7
:10043000000004C800030000010101C8003264028A
:10044000000200020100010007000080000000001F
:10045000080000001E1E144D574F5344002020205A
:100460002000000A00010600000100000300000057
:100470000008000201000003040700000000000063
:100480000000790075006800BB00BA00A9009A005E
:100490008A00BA00860082007E00D000CD00EC0009
:1004A000DD00D40027011A0114010E01050100012D
:1004B000F400420135014A015F01530185017801D1
:1004C0006B01AB019F0194018E010102F901EF0163
:1004D000E401DB01D701CA01BC0115020902400297
:1004E0003A02360232022E022802240290028702C9
:1004F0007E0276026C0263025A024E0245023C50B2
:100500004147453E00534156452B45584954004507
:1005100058495400F802ED02E302D702CF02CA02A2
:10052000C202BA02B102AA029B029902AE031A03E6
:1005300011030703FE0271036C03670362035D038B
:10054000580353034E03490344033F033E033B0355
:1005500067033803350332032F032C0329032603D3
:1005600023031D1A1D1C1D191D1C1D1B1D1C1D18E0
:100570001D1C1D1A1D1C1D191D1C1D1B1DAE03A5B8
:10058000039E0396038E0385037B037903720300A6
:10059000000000250028002B000000000024002798
:1005A000002A0004040404040404040202020202F7
:1005B0000203030303030301020408102040800127
:1005C000020408102001020408102000A41A1124BB
:1005D0001FBECFEFD8E0DEBFCDBF11E0A0E0B1E09D
:1005E000EAE4F4E602C005900D92AE38B107D9F7FF
:1005F00027E0AEE8B1E001C01D92A436B207E1F7F2
:1006000012E0C7EED2E004C02197FE010E941D3225
:10061000C63ED107C9F70E94D11A0C9423320C941C
:1006200000000000CF93DF9390E0FC01E954FA4F03
:1006300024918D559A4FFC0184918823C1F090E05C
:10064000880F991FFC01E756FA4FC591D491FC0120
:10065000E157FA4FA591B4919FB7F8948881E22FA2
:10066000E0958E2388838C91E823EC939FBFDF91E4
:10067000CF910895AF92BF92CF92DF92EF92FF9207
:100680000F931F93CF93DF936C017B018B01040FBA
:10069000151FEB015E01AE18BF08C017D10759F056
:1006A0006991D601ED91FC910190F081E02DC60198
:1006B0000995892B79F7C501DF91CF911F910F9192
:1006C000FF90EF90DF90CF90BF90AF900895FC0126
:1006D000538D448D252F30E0842F90E0821B930BA7
:1006E000541710F0CF96089501970895FC01918D4D
:1006F000828D981761F0A28DAE0FBF2FB11D5D9650
:100700008C91928D9F5F9F73928F90E008958FEFF1
:100710009FEF0895FC01918D828D981731F0828DA5
:10072000E80FF11D858D90E008958FEF9FEF0895FC
:10073000FC01918D228D892F90E0805C9F4F821B60
:1007400091098F739927089583EC96E00E9498038E
:1007500021E0892B09F420E0822F089580E090E0C9
:10076000892B29F00E94A40381110C9400000895A4
:10077000FC01A48DA80FB92FB11DA35ABF4F2C9116
:10078000848D90E001968F739927848FA689B7890D
:100790002C93A089B1898C91837080648C93938D04
:1007A000848D981306C00288F389E02D80818F7DA7
:1007B00080830895EF92FF920F931F93CF93DF935F
:1007C000EC0181E0888F9B8D8C8D98131AC0E8898D
:1007D000F989808185FF15C09FB7F894EE89FF895C
:1007E0006083E889F98980818370806480839FBFFA
:1007F00081E090E0DF91CF911F910F91FF90EF90FA
:100800000895F62E0B8D10E00F5F1F4F0F73112709
:10081000E02E8C8D8E110CC00FB607FCFACFE88944
:10082000F989808185FFF5CFCE010E94B803F1CF11
:10083000EB8DEC0FFD2FF11DE35AFF4FF0829FB7B8
:10084000F8940B8FEA89FB8980818062CFCFCF93A8
:10085000DF93EC01888D8823B9F0AA89BB89E889E8
:10086000F9898C9185FD03C0808186FD0DC00FB68E
:1008700007FCF7CF8C9185FFF2CF808185FFEDCF0C
:10088000CE010E94B803E9CFDF91CF91089590E0A7
:10089000FC01E259FB4F2491FC01E954FA4F3491D9
:1008A000FC01ED55FA4FE491EE23C9F0222339F013
:1008B000233001F1A8F4213019F1223029F1F0E0C0
:1008C000EE0FFF1FE157FA4FA591B4918FB7F8943F
:1008D000EC91611126C030953E233C938FBF089563
:1008E0002730A9F02830C9F0243049F780918000E2
:1008F0008F7D03C0809180008F7780938000DFCF51
:1009000084B58F7784BDDBCF84B58F7DFBCF80919D
:10091000B0008F778093B000D2CF8091B0008F7DF0
:10092000F9CF3E2BDACF3FB7F89480912702909110
:100930002802A0912902B0912A0226B5A89B05C0E1
:100940002F3F19F00196A11DB11D3FBFBA2FA92F4E
:10095000982F8827BC01CD01620F711D811D911D4B
:1009600042E0660F771F881F991F4A95D1F70895B7
:100970008F929F92AF92BF92CF92DF92EF92FF92AF
:100980004B015C010E9493046B017C010E94930463
:100990006C197D098E099F09683E73408105910598
:1009A000A8F321E0821A9108A108B10888EEC80EC8
:1009B00083E0D81EE11CF11C81149104A104B10450
:1009C00029F7FF90EF90DF90CF90BF90AF909F906E
:1009D0008F9008952FB7F8946091230270912402AC
:1009E00080912502909126022FBF08952091D80171
:1009F000260F3327331F21323105ECF42091FC01FF
:100A0000FC0190E080E0243069F082E00895A0913C
:100A1000D8012191AC0148545E4FA40FB52FB11DF0
:100A20002C930196861798F38091D801680F6093F4
:100A3000D80180E0089581E0089508958FEF9FEF39
:100A400008958FEF9FEF08958091B10190E0919507
:100A5000819591090895CF93DF93CB01EA01642F2B
:100A60000E94F604CE01DF91CF910895CF93DF93DA
:100A70001F92CDB7DEB7698361E0CE0101960E9477
:100A8000F60481E090E00F90DF91CF91089590E01F
:100A900080E008958627423051F428E030E095ED5B
:100AA00087FF08C0880F892721503109C9F7809333
:100AB00032060895880FF8CF6091B00183EC96E07C
:100AC0000C94DA03CF93C82F682F83EC96E00E9432
:100AD000DA038091B0018C278093B001CF91089503
:100AE000CF93C92F0E9462058C2FCF910C94620581
:100AF000CF93DF93D82FC62F64E283EC96E00E9459
:100B0000DA036DE483EC96E00E94DA036CE383EC95
:100B100096E00E94DA031092B0018C2F0E946205C9
:100B20008D2F0E946205C11104C0DF91CF910C94FA
:100B30005C05DF91CF910895E091CA0581E08E0FA9
:100B40008093CA05F0E0E553FA4F80810895CF9372
:100B5000DF930E949C05C82FD0E00E949C059E0157
:100B6000382BC901DF91CF910895CF92DF92EF9298
:100B7000FF920E94A7056C01F12CE12C0E94A705B1
:100B8000B0E0A0E0772766276C297D298E299F2970
:100B9000FF90EF90DF90CF900895E82FF0E0EE0FF8
:100BA000FF1FEF5BFB4F208131812227307C81E0EA
:100BB0002115304C09F080E0089580E0E82FF0E046
:100BC000E155F94F9081992311F08F5FF7CF089588
:100BD000EF92FF920F931F93CF93DF93FB01C0E03F
:100BE00097FF04C0919581959109C1E0DF01A40FA1
:100BF000B11D1C92DEE20AE010E0421306C0415033
:100C0000DF01A40FB11DDC9320E03FEF340F7F0123
:100C1000E30EF11CB8010E940932805DD7018C936C
:100C2000CB013323C1F0211114C0009791F4CC23E0
:100C300039F03EEF340FDF01A30FB11D8DE28C932D
:100C400080E2332341F03150DF01A30FB11D8C93BB
:100C5000F8CF432FD2CFCF01DF91CF911F910F91CA
:100C6000FF90EF900895DB01A15BBD4FFC01249143
:100C70000196222311F02D93F9CF0895DC01FB0199
:100C8000E15BFD4F9D91992311F09193FBCF089566
:100C9000A8E9B6E0EFEAF6E02D91219326E0E93BE2
:100CA000F207D1F71092B906BC018FEA96E00C94D6
:100CB0003E068F929F92AF92BF92CF92DF92EF92B9
:100CC000FF920F931F93CF93DF938C01F22EDBECF7
:100CD000211101C0DAECC0E077FF08C07095609583
:100CE000509541955F4F6F4F7F4FC1E0CB01BA01E7
:100CF00024E630E040E050E00E944C2FCA01B901E8
:100D00001092BA06CF0DEC2FF0E0E85EFE4F208186
:100D10002093B906CAE03AE0832E912CA12CB12C85
:100D20004EE2C42EDD24DA94DC0E2D2D30E0A90134
:100D30004155594F7A01A50194010E944C2F605DE5
:100D4000F7016083B901CA01DD20A1F0F3E0FD15D0
:100D500088F1611571058105910599F5C250EC2F57
:100D6000F0E0E055F94F8FEA96E020E222938E17EB
:100D70009F07E1F7D093AF0680918106882349F061
:100D800080E38093B00686E38093B10683E380938B
:100D9000B206B8018FEA96E0DF91CF911F910F91D3
:100DA000FF90EF90DF90CF90BF90AF909F908F908B
:100DB0000C943E0625E0D21204C0C092B30624E093
:100DC000D22ECD2DAFCF8EBD0DB407FEFDCF8EB58B
:100DD0000895CF93C62F0E94E3068C2FCF910C94D9
:100DE000E3068091AF05882371F11092AF058FEF74
:100DF00080932E045E9860E085E00E94E90660E042
:100E000086E00E94E90661E084E00E94E9065E9ABD
:100E1000EFE4F2E080E25E9890819EBD0DB407FEA3
:100E2000FDCF5E9A819394E0EF32F907A1F70E941B
:100E3000EA046093BA047093BB048093BC0490935B
:100E4000BD041092AF0508958F929F92AF92BF920A
:100E5000CF92DF92EF92FF92CF93DF93C3E1D1E085
:100E6000ADEBB5E020E089918E3008F08E504091D6
:100E7000000190E4499FA00111248770842B809386
:100E80007C0080917A00806480937A0080917A005F
:100E900086FDFCCF90917800809179008927982772
:100EA00089272111FBC030917506313021F48091E2
:100EB0002105909122054D915D91FD013297BA0176
:100EC00034E0759567953A95E1F7461B570B969573
:100ED0008795840F951F918380832F5F253019F6A6
:100EE000F0908806C091BD05D091BE058091750631
:100EF000811104C16091740670E090E080E00E946E
:100F0000C3304B015C01BE0190E080E00E94C13023
:100F10009B01AC01C501B4010E9478312FE632E19A
:100F200043E05AE3F11004C023E037E24BED58E30D
:100F30000E9478310E94923070934E0260934D026D
:100F40006091BF057091C00590E080E00E94C130C3
:100F50004B015C0160917C0670E090E080E00E94B3
:100F6000C3309B01AC01C501B4010E9478312FE66A
:100F700032E143E05AE3F11004C023E037E24BEDE5
:100F800058E30E9478310E94923070934902609336
:100F9000480280917706823009F010C1C0900201AA
:100FA000D0900301F12CE12C209153053091540590
:100FB00050E040E02C193D094E095F09A4E6B0E07D
:100FC0000E946B2F209104013091050150E040E018
:100FD0002C193D094E095F090E944C2F69017A01C5
:100FE00085E6C816D104E104F1042CF024E6C22EF3
:100FF000D12CE12CF12CF7FE03C0C12CD12C7601B1
:10100000A7019601C701B6010E94E5310E94C330D5
:101010002AE037ED43EA5CE30E9478314B015C0142
:10102000C701B6010E94C3309B01AC01C501B401E8
:101030000E94A82F6B017C016091320270913302F3
:1010400090E080E00E94C1309B01AC01C701B60175
:101050000E9478312AE037ED43E25CE30E94783168
:101060006B017C01609130027091310290E080E070
:101070000E94C1309B01AC018091B605882309F420
:1010800047C0C701B6010E94A82F6093C6047093A1
:10109000C7048093C8049093C90442C0243009F067
:1010A0000ACF30916F06333061F4E0917006F0E0C2
:1010B000EE0FFF1FE55BFA4F808191819695879532
:1010C000FACE323029F480911D0590911E05F3CEA1
:1010D000313009F0F0CE8091AB019091AC01959543
:1010E0008795009709F0E7CEE091AA01F0E0EE0FB6
:1010F000FF1FEB53FA4F80819181DDCE33E0D59510
:10110000C7953A95E1F7D0934E02C0934D0218CFA0
:101110002093C6043093C7044093C8045093C90475
:101120002091C5053091C60583E0359527958A95B0
:10113000E1F78091B505882349F080913E068F3014
:1011400009F098C03093370220933602C0903402E1
:10115000D0903502F12CE12C032E000C440B550BE2
:101160002C193D094E095F09A4E6B0E00E946B2FDF
:10117000209136023091370250E040E02C193D09B1
:101180004E095F090E944C2F2536310514F024E6E4
:1011900030E037FF02C030E020E030934702209378
:1011A00046021092AA01DF91CF91FF90EF90DF905D
:1011B000CF90BF90AF909F908F9008958130A1F411
:1011C00080911B0590911C0597FF0CC005976AE064
:1011D00070E00E940932072E000C880B990B0E94C8
:1011E000C33053CF0596F3CFC0903002D090310278
:1011F000F12CE12C2091C1053091C20593E0359589
:1012000027959A95E1F7032E000C440B550B2C19EA
:101210003D094E095F09A0913202B09133020E944C
:101220006B2F2FEF33E040E050E02C193D094E09C1
:101230005F090E944C2FCA01B9010E94C3306B01A3
:101240007C0120E030E0A9010E94143087FD09C034
:10125000C092C604D092C704E092C804F092C904B8
:101260005FCF1092C6041092C7041092C804109267
:10127000C90456CF813009F069CF309335022093ED
:10128000340210923E0662CFCF92DF92EF92FF922D
:101290008091BB05882309F441C080E090E1A0E083
:1012A000B0E080930C0590930D05A0930E05B093CC
:1012B0000F0580914A06882381F010920C05109248
:1012C0000D0510920E0510920F051092BE0410929B
:1012D000BF041092C0041092C1048091BE0490918A
:1012E000BF04A091C004B091C10440910C0550917D
:1012F0000D0560910E0570910F0584239523A6239B
:10130000B7238093BE049093BF04A093C004B0930E
:10131000C104FF90EF90DF90CF9008958091B505C4
:10132000882329F08EED97E0A4E0B0E0BACF8AE1FF
:1013300091E0A0E0B0E080930C0590930D05A093A0
:101340000E05B0930F0585E30E94CD05882361F05B
:101350008AE195E0A0E0B0E080930C0590930D0544
:10136000A0930E05B0930F058091B6058111A1CF12
:10137000C0900C05D0900D05E0900E05F0900F0583
:10138000D701C6019860B16080930C0590930D055C
:10139000A0930E05B0930F0585E30E94CD05882329
:1013A00009F487CF8CE0D82A6894F0F8C0920C0535
:1013B000D0920D05E0920E05F0920F057ACFCF93F3
:1013C00081E0809311018AE080930F0183E0809394
:1013D00010011092B5051092E004109262068091FF
:1013E0008606882361F11092CE041092CF041092E9
:1013F000D0041092D1041092400210924102109237
:1014000042021092430210923D0210923C0210924E
:10141000400410923F041092450210924402109230
:10142000B1041092B0048EEF90E090930A01809383
:10143000090184E690E09093080180930701C09130
:101440006D0580916E058C17B9F0C0936E0561E053
:1014500082ED0E9478058C2F0E9462050E945C0537
:1014600060E08AEF0E9478050E94440964E670E01B
:1014700080E090E00E94B804CF910C944409E4E627
:10148000F7E0CF01845697402081253A39F428E0CF
:10149000EF3FF20709F010F43196F3CF08951F9350
:1014A000CF93DF93DC01CB01142F222319F020937B
:1014B000AF0621E0C22FD0E0C155D94F883E23E0CE
:1014C0009207A105B1050CF450C020918306BC0120
:1014D000CD01222309F440C0685F7E4F8F4F9F4F9C
:1014E00020E132E040E050E00E944C2FC9014AE088
:1014F000BE010E94012F0E94DD05282F30E0F90176
:10150000E255F94F90812155394FD9019C939EE2C4
:1015100090838F5FE82FF0E0E155F94F1082C6E02D
:101520001130B1F40E94DD05E82FF0E0E155F94FEC
:101530002091830630E02B5D3E4FC20FD32FD11D8B
:10154000988190838F5FE82FF0E0E155F94F10828A
:10155000DF91CF911F9108956E5C7F4F8F4F9F4F0A
:1015600024E630E040E050E0BFCF4AE0BE010E94F8
:10157000012FC2E0D5CF8F929F92AF92BF92CF92B0
:10158000DF92EF92FF920F93CF93DF937C014B0199
:10159000C42FD22F0E94CD05882309F46CC0CC2320
:1015A00019F0C093AF06C1E0AC2EB12CC501815536
:1015B000994F6C014AE0BC01C4010E94012F002335
:1015C00099F10E94DD05482F50E021E030E0AB2882
:1015D00011F022E030E04217530779F4CE5FEC2F90
:1015E000F0E0E155F94F1082D6019C91DF0111978F
:1015F0009C93329790E390838F5F882331F0E82F9C
:10160000F0E0E155F94F90819183EFEFE80F29F079
:10161000F0E0E155F94F908191838250E82FF0E09E
:10162000E155F94F8EE28183DD2369F00E94DD05EB
:10163000E82FF0E0E155F94FD0838F5FE82FF0E01D
:10164000E155F94F1082F701FF27EE0FFF1FEF5B07
:10165000FB4F6081718171708FEA96E0DF91CF91CD
:101660000F91FF90EF90DF90CF90BF90AF909F9041
:101670008F900C943E06DF91CF910F91FF90EF90E9
:10168000DF90CF90BF90AF909F908F9008950F9371
:101690001F93CF93DF93D62F142FC0918306BC01E5
:1016A000990F880B990B0E94C3302CEB34E743E170
:1016B0005DE3CC2321F02DED3FE347EB5CE30E949B
:1016C00078310E94923080913F04909140049C01B7
:1016D0002C5E3F4F26173707F8F4309340042093D1
:1016E0003F0480919406882339F08617170620F46A
:1016F00080913A0681110BC0EC2FF0E0ED5DFE4FBA
:1017000000E02081412F8D2F90E00E94BB0ADF91E5
:10171000CF911F910F9108958617970710F7709337
:10172000400460933F04DDCF7F928F929F92AF92EF
:10173000BF92CF92DF92EF92FF920F931F93CF93BE
:10174000DF93D62FC72F982E092F5A01822E109182
:101750008306112371F00E94C33023E43FEF44E578
:1017600050E40E9478310E948B30D62FC72F982EDC
:10177000092F6D2F7C2F892D902F2AE030E040E03B
:1017800050E00E944C2F69017A018091B6058823B0
:10179000B9F08091E2049091E304069788F080917B
:1017A0003C0290913D02092E000CAA0BBB0B8C153C
:1017B0009D05AE05BF0524F430933D0220933C0205
:1017C000709093067720B9F06D2F7C2F892D902F84
:1017D00020E137E240E050E00E944C2F872D90E05E
:1017E000B0E0A0E0281739074A075B0724F0809192
:1017F0003A0681111BC08091A40690E0B0E0A0E001
:10180000C816D906EA06FB06FCF48FE301E088124D
:1018100002C087EC882EE12FF0E0EB5DFE4F2081C7
:10182000482D6D2F7C2FC5010E94BB0ADF91CF91FF
:101830001F910F91FF90EF90DF90CF90BF90AF90EE
:101840009F908F907F900895DC2DCD2D00E0E3CF09
:10185000CF92DF92EF92FF920F931F93CF93DF937C
:101860000AE616E0D0E0C0E0CE010E94362FF80173
:1018700081938F012196C534D105B1F780916F0610
:10188000813019F43B981092A206F89480916F066B
:10189000813079F4E89880916C0083FD0AC08091D2
:1018A000680082608093680080916C0088608093FB
:1018B0006C00789480918806882309F464C081E0E4
:1018C0008093000100E312E0CE010E94362FE82E43
:1018D000F12CF801F182E082CE0101960E94362FB0
:1018E00090E0982F88278E0D9F1DF801819391938A
:1018F0008F012296C135D10539F7C091DB04FEE690
:10190000CF9FE00111247E0181E5E80EF11C01E486
:1019100014E0C154DF4FC7010E94362FC82ED12CCE
:10192000F801D182C082C70101960E94362F90E053
:10193000982F88278C0D9D1DF801819391938F011D
:101940002091B805213081F420918406213061F086
:101950009C0131702739310538F03297213F31052C
:10196000A0F44E9691838083F2E0EF0EF11CCE1529
:10197000DF0589F6DF91CF911F910F91FF90EF90D6
:10198000DF90CF90089583E09BCFCC96EBCFCF93A1
:10199000DF935E9A2A9864E670E080E090E00E940F
:1019A000B8042A9A1CBC80E58CBD8DB581608DBDC4
:1019B0008DB58EB55E9864E670E080E090E00E94A0
:1019C000B80482E08093B9051092B80580EA0E94BD
:1019D000E3068FEF0E94E30682FD3BC08770809391
:1019E000AF0486E891E090933F0280933E0280919D
:1019F000AF04813089F58093B8058093B90580EEF6
:101A000091E090933F0280933E02D0E168E480E051
:101A10000E94E90661E070E080E090E00E94B80476
:101A2000C0E06091A60680E18C0F0E94E906CF5FBE
:101A3000DC13F7CF5E9A9FB7F894809169008C7F92
:101A4000826080936900E89A9FBFDF91CF910C94E8
:101A5000280C1092AF04C5CF823011F41092B90552
:101A6000DDE068E0D4CF1F93CF93DF9385ED8093C3
:101A7000BC008091B4019091B501A091B601B091E4
:101A8000B7010796A11DB11D23E0B695A7959795BF
:101A900087952A95D1F72091BC0024FD03C01092B0
:101AA000FC0152C04091B4015091B5016091B60162
:101AB0007091B701452B462B472B69F30097A10581
:101AC000B10541F025E32A95F1F700000197A1093E
:101AD000B109E1CF8091B301C1E0C093B201882385
:101AE00099F1D091B8001091BA008091BC008A7B26
:101AF0008093BC0060E082E10E94470460E083E1E3
:101B00000E9447041092FC01C093FE011092FD0157
:101B100061E082E10E94470461E083E10E944704A2
:101B20008091B9008E7F8093B9008091B9008D7F3C
:101B30008093B90088E48093B80085E48093BC006A
:101B40001093BA00D093B800DF91CF911F91089500
:101B50000C943E2F1F93CF93DF93EC01172F0E941D
:101B6000A80D612FCE010196DF91CF911F910C94AA
:101B7000A80DEF92FF920F931F93CF93DF93809165
:101B80000F018A30C9F4909110019330A9F490911B
:101B9000E10492301CF091E09093E1049091E10413
:101BA0009F3F1CF49FEF9093E104909111012091CD
:101BB000E104920F909311019091110197FF03C0DE
:101BC0009BE090931101909111019C3014F01092C0
:101BD000110190911101913009F0B1C0EFEFE80FC0
:101BE000E73090F4863010F0E1E0E80F209110012A
:101BF000223009F497C0233009F49DC0F0E0EE5F75
:101C0000FA4F213009F491C08A3009F0BAC090939C
:101C1000120180911001813009F47CC0823009F0FA
:101C2000B0C080916E0580936D056EE18AEC0E94D4
:101C30007805C2E0D5E088EFE82E84E0F82E0EEEBD
:101C400014E089910E946205F70181917F010E9451
:101C50006205F80181918F010E946205F5E0CC30A8
:101C6000DF0779F70E945C056BE08CEC0E94780539
:101C700080911A050E946205809119050E946205F3
:101C8000809118050E946205809117050E946205E7
:101C9000809116050E946205809115050E946205DB
:101CA000809114050E946205809113050E946205CF
:101CB00080911105909112050E9470058091100588
:101CC0000E9462050E945C050AE616E0D0E0C0E0D2
:101CD000F80161918F01CE010E94A80D2196C534B3
:101CE000D105B1F700E312E0C5E4D0E0F80161915D
:101CF00071918F01CE010E94AA0D2296C135D105A6
:101D0000A9F762E190E080E00E94A80D60E08AEF10
:101D10000E947805DF91CF911F910F91FF90EF9076
:101D20000C94DF09F0E0E850FB4F20813091E10492
:101D3000230F208369CFF0E0E251FB4FF6CF9330C1
:101D400039F520911001233009F05ECF813059F030
:101D5000823009F059CF809110059091E104890FEC
:101D6000809310050EC02091E1048091110590919F
:101D70001205820F911D27FD9A959093120580936D
:101D80001105DF91CF911F910F91FF90EF90089572
:101D9000923009F049C020911001233009F034CF6E
:101DA000EFEFE80FE83008F02FCFF0E0E452F14F0A
:101DB0002091E1040C941D32E40EEA0EF00EF60EB2
:101DC000FC0E020F080F0E0F30911A05230F2093FF
:101DD0001A051ACF30911905230F2093190514CF36
:101DE00030911805230F209318050ECF3091170559
:101DF000230F2093170508CF30911605230F20934A
:101E0000160502CF30911505230F20931505FCCE42
:101E100030911405230F20931405F6CE309113054D
:101E2000230F20931305F0CE943081F520911001FB
:101E3000233009F0E9CE8230C9F058F4813009F03E
:101E4000E3CE809172069091E104890F809372062F
:101E500098CF833099F0843009F0D6CE8091730604
:101E60009091E104890F809373068BCF8091740663
:101E70009091E104890F8093740683CF80917C0652
:101E80009091E104890F80937C067BCF953009F017
:101E9000B4C020911001233009F0B6CE823049F051
:101EA0008330B1F0813009F0AFCE8FE080933E06F1
:101EB00068CF2091E1048091360290913702820F21
:101EC000911D27FD9A95909337028093360259CF42
:101ED0002091E1048091340290913502820F911D8E
:101EE00027FD9A9590933502809334024ACF209132
:101EF0001001233009F088CE813091F0823009F052
:101F000083CE2091E1048091300290913102820FC2
:101F1000911D27FD9A95909331028093300231CF25
:101F20002091E1048091320290913302820F911D41
:101F300027FD9A95909333028093320222CF20910D
:101F40001001233009F060CE813009F05DCE809120
:101F500087069091E104890F8093870612CF209124
:101F60001001233009F050CE813059F0823009F051
:101F70004BCE81E090917D06911180E080937D06AB
:101F800000CF8AE080933F06FCCE8091920690912C
:101F9000E104890F80939206F4CE8091930690918C
:101FA000E104890F80939306ECCE80919406909182
:101FB000E104890F80939406E4CE80919506909178
:101FC000E104890F80939506DCCE80917E06909186
:101FD000E104890F80937E06D4CE80917F06909194
:101FE000E104890F80937F06CCCE81E090917A0640
:101FF000911180E080937A06C4CE963009F477CFB1
:10200000973009F49CCF983009F4A9CF993009F0A2
:10201000FBCD20911001233009F0F6CDEFEFE80F52
:10202000E73008F0F1CDF0E0E85EFF4E0C941D3291
:10203000C50FCD0FD50FDD0FE50FED0FF50FCF92CB
:10204000DF92EF92FF920F931F93CF93DF9390E075
:1020500080E00E94362F823109F438C0D0E0C0E021
:10206000FE01E75DFB4F6491CE010E94A80D219611
:10207000C534D105A9F7C5E4D0E0FE01E852FC4F14
:1020800065917491CE010E94AA0D2296C135D105A9
:10209000A1F78BE8E82E84E0F82E0FEA13E0CE01DA
:1020A0008F5A93406C01F80165917491C601800FBD
:1020B000911F0E94AA0D0E5F1F4FE016F10699F7BF
:1020C000C259DF4FCB3991E0D90739F7DF91CF9172
:1020D0001F910F91FF90EF90DF90CF9008952F9276
:1020E0003F924F925F926F927F928F929F92AF92A8
:1020F000BF92CF92DF92EF92FF920F931F93CF93F5
:10210000DF9300D0CDB7DEB783EC96E00E94980352
:10211000892BB1F1FCE24F2E55245394612C712C84
:10212000A8EE8A2EA3E09A2EA12CB12CB4E02B2E7F
:10213000312C83EC96E00E9476038C01809150064E
:10214000909151060196909351068093500680918C
:10215000360690913706009741F581E090E0043211
:1021600011F090E080E0909337068093360681E08E
:102170008093350683EC96E00E949803892BC9F67C
:102180000F900F90DF91CF911F910F91FF90EF90E3
:10219000DF90CF90BF90AF909F908F907F906F9087
:1021A0005F904F903F902F9008958130910571F48A
:1021B0000D3429F01092370610923606DBCF82E0FC
:1021C00090E09093370680933606D4CF8230910505
:1021D00039F483E090E00E33A1F390E080E0F1CF9A
:1021E00083309105C9F43092370620923606C80133
:1021F00099279093340680933306053620F0109289
:102200003706109236061092320640913506602F3E
:1022100080E00E944A05AECF84309105B1F4C80138
:102220009927909331068093300625E030E0309373
:1022300037062093360640913506602F809132068E
:102240000E944A0510922F0695CF059709F092CF6C
:10225000D0902F0680913206ED2CF12C4091330660
:1022600050913406E416F50609F0B7C50813A2CF5D
:1022700080914E0690914F06019690934F06809361
:102280004E061092CA0585E080934806809130067C
:10229000909131068C3D910509F0E6C0E8980E94C6
:1022A0009C05182F8EEF80934A061930B1F50E94D5
:1022B0009C05182F0E949C05E12FE80FFF27FF1FA8
:1022C000F093C905E093C8050E949C058093C7055B
:1022D0006FE18CED0E94780589E00E946205EAE0DA
:1022E000FE2E0091C8051091C905C8010E94362F25
:1022F000E82E8093C705C8010E9470058E2D0E94AC
:1023000062050F5F1F4F1093C9050093C805FA942B
:10231000F110E7CF0E945C05A7C0183009F03FC05C
:102320007AE0F72E0E949C05082F0E949C0590E001
:10233000982F8827080F192F111D1093C905009396
:10234000C8050E949C058093C705682FC8010E949C
:10235000A80D0091C8051091C9050A39F1E01F07C1
:1023600011F40E94280CFA94F110DCCF0F5F1F4F7C
:102370001093C9050093C80562E190E080E00E94D7
:10238000A80D63E08CED0E94780589E00E9462054B
:102390008091C8059091C9050E947005BBCF1B3084
:1023A000E9F58FEF80934B066BE08CED0E9478058A
:1023B00087E00E9462055DEBE52E55E0F52EF70102
:1023C000819191917F010E94700527EC35E02E15D7
:1023D0003F05A9F70E945C056DE08CED0E94780531
:1023E0008AE00E94620590E080E00E94700581E032
:1023F00090E00E94700580ED97E00E94700581E0FA
:1024000090E00E94700590E080E00E94700581E0FD
:1024100090E00E9470050E945C0502C0173009F22E
:10242000133009F09EC08091B60581110BC08091D8
:10243000B505811107C08091BB05811103C081E002
:102440008093BB05809133069091340685309105C9
:10245000D9F50E94A70580329D4131F40E949C0568
:102460008093BC050E949C058091300690913106B6
:10247000863B910509F0B4C08091B60581119ACED2
:102480008091BB05811196CE8091B50581110E9486
:10249000DF090E94EA046093B1057093B20580934E
:1024A000B3059093B40511E01093B0050E949C050C
:1024B000823009F466C0833009F46AC0813009F0C3
:1024C00079CE1092B00576CEC89771F6D0900206FC
:1024D0005E98E090B80560E4E11001C060E080E043
:1024E0000E94E9066D2D89E00E94E9060CEC15E0DA
:1024F000F12C6F2D8AE00E94E906F80161918F01AD
:102500008BE00E94E906F394F6E3FF12F2CF60EA53
:1025100088E00E94E90680EA0E94E30685FDFBCF81
:102520006CE4E11001C06CE080E00E94E9065E9A74
:1025300064E170E080E090E00E94B8042FEFD212D6
:1025400005C00E94C70C1092BB058ECF63E08CEDD6
:102550000E94780583E00E9462058091BC0590E0AE
:102560001BCF163059F460E090E080E00E94A80D87
:102570000E941F1081E08093B70576CF1530D1F30C
:1025800073CF1093AF05F8940E94F106789412CEA1
:102590000E949C05E82E0E949C05D82E0E949C0556
:1025A0003EE1E39E7001112405E010E080913306C6
:1025B000909134068017910708F4FCCD0E949C0589
:1025C0008983882309F4F6CD1A82B7016D0D711D38
:1025D000CE0101960E943E06D3940F5F1F4FE6CFB7
:1025E0008330910509F0A3C00E949C058093AC053F
:1025F0000E949C058093AD050E949C058093AE05CA
:1026000000913006109131060A36110509F054C2C6
:102610000E949C05882319F081E080934A050E945E
:102620009C05809349050E94B5056093450570930C
:10263000460580934705909348050E94B505609331
:1026400041057093420580934305909344050E9491
:10265000A705B0E0A0E02091B605211108C0809345
:10266000390590933A05A0933B05B0933C05409102
:10267000390550913A0560913B0570913C05841BEA
:10268000950BA60BB70B80933D0590933E05A09349
:102690003F05B09340050E94A705909338058093AD
:1026A000370590933605809335050E94A7050F36B0
:1026B000110509F016C20E949C0580931A050E941C
:1026C0009C05809319050E949C05809318050E9423
:1026D0009C05809317050E949C05809316050E9417
:1026E0009C05809315050E949C05809314050E940B
:1026F0009C05809313050E94A70590931205809373
:1027000011050E949C058093100580910C05909105
:102710000D05A0910E05B0910F059D7F80930C05CE
:1027200090930D05A0930E05B0930F0543CD85360C
:10273000910599F50E94A7050E94A7050E94A7058B
:102740009093AB058093AA050E94B5056093A605FA
:102750007093A7058093A8059093A90520916F0514
:10276000022F10E030E020E0DC01CB018023912338
:10277000A223B32321E0892B8A2B8B2B09F420E0A1
:102780002093B6050E949C0580936E059091B50537
:10279000911130C380936D0533CF8936910509F0CF
:1027A0002FCF01E010E00E94A7059801220F331FF0
:1027B000F901E55BFA4F9183808380819181883EA6
:1027C000934008F49FC080819181813D974008F03B
:1027D0009CC080819181255B3A4FF9019183808370
:1027E0000F5F1F4F09301105F1F680914F05909151
:1027F00050058531954008F48BC080914F0590912C
:102800005005843A964008F083C080914D05909120
:102810004E058531954008F47BC080914D0590911F
:102820004E05843A964008F073C08091510590910E
:1028300052058531954008F46BC080915105909107
:102840005205843A964008F063C01092EC048092DE
:10285000E8049092E904A092EA04B092EB0480911B
:10286000EC048111C7C220914F0530915005809131
:10287000B5052B33374078F0209151053091520542
:102880002B33374040F020915305309154052F37BA
:10289000344008F068C0882309F4B2CE1091E104F6
:1028A0001092E1048091E004882381F08091530527
:1028B000909154058134964020F4809162068111F4
:1028C00005C082E08093EC040E94DF098091B50589
:1028D000882309F4A1C020914D0530914E052B337A
:1028E000374008F463C081E08093EC0480911001CC
:1028F0008F5F80931001843008F4B2C083E080932E
:1029000010014EC088EE93E066CF80ED97E063CF74
:102910008091EC04813009F0A2CF0E94EA0400917A
:10292000E4041091E5042091E6043091E704601B73
:10293000710B820B930B0091E8041091E904209134
:10294000EA043091EB04061717072807390710F43B
:102950001092EC044092E8045092E9046092EA0478
:102960007092EB047CCF81114BCE8091E204909168
:10297000E304069708F444CE8091B605811140CE59
:102980008091B00581113CCE82E08093EC0481E01F
:102990008093B50580911201809311010E94440932
:1029A0008091EC04813009F02BCE5AC020914D0566
:1029B00030914E052E37344068F491E09093EC044A
:1029C00080911001815080931001811149C0909332
:1029D0001001E6CF20914F05309150052B33374041
:1029E000A0F091E09093EC0480910F0181508093CE
:1029F0000F01811102C090930F018091110181118B
:102A00002FC08AE080930F01CBCF20914F053091EA
:102A100050052E373440D0F09091E0049111C0CF92
:102A2000882309F4BDCF163034F115E080915105AB
:102A3000909152058E37944010F581E08093EC041C
:102A400011501093E1040E94B90DAACF81E0809348
:102A5000EC0480910F018F5F80930F018B3088F61B
:102A60000E94EA046093E4047093E5048093E60412
:102A70009093E704C5CD1B3FCCF61BEFD7CF8091D9
:102A80005105909152058B33974008F489CF81E02E
:102A90008093EC041F5F1093E10480911101893051
:102AA00091F680911001833071F680910F0185308D
:102AB00051F610923F06C7CF0B361105E9F50E947B
:102AC000A705B0E0A0E08093310590933205A09374
:102AD0003305B09334050E94A70590933005809389
:102AE0002F050037110509F042C002E015E028EF7C
:102AF000C22E24E0D22E3EEEE32E34E0F32E0E94CE
:102B00009C05F80181938F010E949C05F601819339
:102B10006F010E949C05F70181937F01F5E00C3065
:102B20001F0769F780910C0590910D05A0910E0586
:102B3000B0910F059B7FF2CD0C36110509F05EC1F7
:102B40000E94A70590932C0580932B050E94A70552
:102B500090932E0580932D050E94A705843B910537
:102B600014F08856914090932A05809329050B33E1
:102B7000110509F057C10E949C058093ED048091D6
:102B80000C0590910D05A0910E05B0910F05AB7F3E
:102B9000C5CD0E36110509F08ACD0E949C0590E046
:102BA00090932205809321050E94A705909320050C
:102BB00080931F050E94A70590931E0580931D0515
:102BC0000E94A70590931C0580931B0580917706B2
:102BD0008111F0CA1092200510921F05EBCA809156
:102BE0006F058C2980936F05CC0CDD1CEE1CFF1C3F
:102BF000115028C1809170058C2980937005F4CF05
:102C0000809171058C2980937105EECF80917205BA
:102C100090917305A0917405B09175058C299D293B
:102C2000AE29BF298093720590937305A093740514
:102C3000B0937505D9CF8091760590917705A091D5
:102C40007805B09179058C299D29AE29BF298093FB
:102C5000760590937705A0937805B0937905C4CF56
:102C600080917A0590917B05A0917C05B0917D05BE
:102C70008C299D29AE29BF2980937A0590937B05E5
:102C8000A0937C05B0937D05AFCF80917E05909198
:102C90007F05A0918005B09181058C299D29AE29E1
:102CA000BF2980937E0590937F05A0938005B09304
:102CB00081059ACF8091820590918305A09184052A
:102CC000B09185058C299D29AE29BF298093820565
:102CD00090938305A0938405B093850585CF80915B
:102CE000860590918705A0918805B09189058C296A
:102CF0009D29AE29BF298093860590938705A093CF
:102D00008805B093890570CF80919A0590919B05B5
:102D1000A0919C05B0919D058C299D29AE29BF29C4
:102D200080939A0590939B05A0939C05B0939D0575
:102D30005BCF8091960590919705A0919805B091F1
:102D400099058C299D29AE29BF29809396059093DA
:102D50009705A0939805B093990546CF80918E056D
:102D600090918F05A0919005B09191058C299D2996
:102D7000AE29BF2980938E0590938F05A09390056F
:102D8000B093910531CF80918A0590918B05A091E8
:102D90008C05B0918D058C299D29AE29BF29809382
:102DA0008A0590938B05A0938C05B0938D051CCF5D
:102DB00080919E0590919F05A091A005B091A105DD
:102DC0008C299D29AE29BF2980939E0590939F054C
:102DD000A093A005B093A10507CF40913506602FC1
:102DE0000E944A05D394D0922F06F701E553FA4F7B
:102DF0000083C0C900913006109131060D361105CF
:102E000009F0C7CE0E94B50560932505709326058D
:102E100080932705909328050E94A7059093240589
:102E2000809323050737110509F0C4C910913306B3
:102E300087E3EFE6F5E011928A95E9F7C12CD12CF2
:102E40007601C394112309F4B5C90E949C058D3104
:102E500008F0CACEE82FF0E0E05DF84E0C941D3289
:102E6000EF15FA1500160616F4151B16F415F415D1
:102E70003016F41545165A166F16F415F415F41598
:102E80008416F415F4159916D816F415F415F415DE
:102E9000F415F415F415C316AE16CF92DF92EF9227
:102EA000FF920F931F93CF93DF93EA01122F6031AC
:102EB0002EE072078105910540F02CE330E040E000
:102EC00050E00E94762FCA01B9012CE330E040E0C7
:102ED00050E00E94762F022F6B01112351F01093C6
:102EE000AF061092B006BE018FEA96E00E943E0641
:102EF000219620E042E06FEA76E0802F90E00E9489
:102F0000E8058AE38093B10620E042E062EB76E0D8
:102F1000C6010E94E8051092B406EFEAF6E080E3ED
:102F20009191903219F4DF0111978C9396E0E93B6F
:102F3000F907B1F7BE018FEA96E0DF91CF911F91BB
:102F40000F91FF90EF90DF90CF900C943E06CF92C0
:102F5000DF92EF92FF92CF93CDE0C81BE82FF0E015
:102F6000E455F94F8081811179C08091B6058111B6
:102F70007FC0C090B804D090B904F12CE12C81E05E
:102F8000E0E090E1C9169EE0D906E104F1040CF4FA
:102F90004BC0EF5F833009F047C0C090CA04D090A7
:102FA000CB04E090CC04F090CD0420E030E048EC7D
:102FB00052E4C701B6010E94733118160CF072C0BA
:102FC00020E030E044EB53E4C701B6010E94193021
:102FD0006B017C0160917E0684E6689FB00111243C
:102FE000072E000C880B990B0E94C330A701960195
:102FF0000E94A72F0E948B3020910D0130910E016D
:1030000050E040E097FF03C060E070E0CB010E9419
:10301000E5310E94C130A70196010E9419300E943B
:103020008B306B017C01E4E0AC2FB0E0AA0FBB1F3A
:10303000AF5BBB4F4D915C91411592E05907B8F1E0
:10304000F0E0E45EFE4F51702081C701B601CF91E0
:10305000FF90EF90DF90CF900C944D17813009F4E2
:1030600088CFC12CD12C7601E0E0823009F092CFDC
:1030700080910D0190910E016C01F12CE12C2091B9
:103080009506222361F06CE370E00E94F53126176B
:10309000170609F020F480913A06811108C082E0F9
:1030A000E2E06FCFE4E0C12CD12C7601BDCFCF910F
:1030B000FF90EF90DF90CF9008951F920F920FB680
:1030C0000F9211242F933F934F935F936F937F93AE
:1030D0008F939F93AF93BF93EF93FF9383EC96E00F
:1030E0000E94B803FF91EF91BF91AF919F918F9193
:1030F0007F916F915F914F913F912F910F900FBEF4
:103100000F901F9018951F920F920FB60F921124D7
:103110002F938F939F93EF93FF93E091D306F091BA
:10312000D4068081E091D906F091DA0682FD1BC0B9
:1031300090818091DC068F5F8F732091DD0682176E
:1031400041F0E091DC06F0E0ED53F94F958F80936C
:10315000DC06FF91EF919F918F912F910F900FBE01
:103160000F901F9018958081F4CF1F920F920FB689
:103170000F9211242F933F938F939F93AF93BF93FD
:103180008091230290912402A0912502B091260201
:103190003091220223E0230F2D3758F50196A11D0F
:1031A000B11D209322028093230290932402A093C6
:1031B0002502B09326028091270290912802A091C7
:1031C0002902B0912A020196A11DB11D8093270208
:1031D00090932802A0932902B0932A02BF91AF9145
:1031E0009F918F913F912F910F900FBE0F901F9045
:1031F000189526E8230F0296A11DB11DD2CF1F926C
:103200000F920FB60F9211242F933F934F935F931A
:103210006F937F938F939F93AF93BF93EF93FF939E
:103220008091B900887F803609F44AC0F0F5883271
:1032300009F4A5C018F5803109F499C0B8F48823C1
:1032400009F4F5C0883009F492C0FF91EF91BF9165
:10325000AF919F918F917F916F915F914F913F912E
:103260002F910F900FBE0F901F901895883109F481
:1032700086C0803251F78093FB0114C0803409F47A
:103280009BC040F48033B9F38833F9F68093FB0197
:1032900085ECAEC0803509F483C0883509F494C04C
:1032A000883499F60E94330DD0CF883909F48AC04A
:1032B00038F5883729F050F4883611F0803729F630
:1032C00083E08093FC011092FA0155C0883809F41C
:1032D00079C0803919F0803809F0B7CF8091FA01B0
:1032E000803208F06FC0E091FA0181E08E0F809388
:1032F000FA018091BB00F0E0E652FE4F80833BC0B4
:10330000803B39F0D0F4803A09F477C0883A09F06C
:103310009CCF84E08093FC011092D9011092D801D7
:10332000F0E0E0E009958091D80181110FC081E0C3
:103330008093D8011092B80109C0803C09F4A8CF4D
:10334000883C09F4A5CF883B09F07FCFE091D901F3
:1033500081E08E0F8093D901F0E0E854FE4F808128
:103360008093BB009091D9018091D80129C08091B0
:1033700021028093BB0085EC8093BC0066CF9091C6
:10338000200280911F02981758F5E091200281E0F9
:103390008E0F80932002F0E0E150FE4F8081E9CF54
:1033A000E091200281E08E0F809320028091BB008B
:1033B000F0E0E150FE4F80839091200280911F0247
:1033C0009817C8F285E8D8CFE091200281E08E0FEF
:1033D000809320028091BB00F0E0E150FE4F80839B
:1033E0008091FE0181115ECF81E08093FD0184EA2E
:1033F0008093BC001092FC0128CF85EC8093BC0028
:103400001092FC018091FA01803230F4E091FA01CF
:10341000F0E0E652FE4F10826091FA0170E08AED12
:1034200091E0F0E0E0E009951092FA010ECF1092E1
:10343000FB0138CF1F920F920FB60F9211242F93DA
:103440003F934F935F936F937F938F939F93AF932C
:10345000BF93EF93FF938091AF018F5F8093AF0194
:103460008091AF01843020F01092AF010E94F106EC
:10347000FF91EF91BF91AF919F918F917F916F914C
:103480005F914F913F912F910F900FBE0F901F9022
:1034900018951F920F920FB60F9211242F933F93FE
:1034A0004F935F936F937F938F939F93AF93BF934C
:1034B000EF93FF930E94930446B178942091AD015D
:1034C0003091AE01FB01E21BF30B9F0143FF2DC0C6
:1034D0007093AE016093AD0181E0293BFBE03F07B3
:1034E00088F48091A206882379F0809101018930C7
:1034F00040F4E82FF0E0EE0FFF1FE55BFA4F318359
:1035000020838F5F80930101FF91EF91BF91AF9175
:103510009F918F917F916F915F914F913F912F91EB
:103520000F900FBE0F901F9018958091A2068111E9
:10353000EBCFCF01855893408534954028F7F09321
:10354000AC01E093AB01E0CFE3ECF6E01382128232
:1035500088EE93E0A0E0B0E084839583A683B783F0
:1035600083E391E09183808385EC90E09587848765
:1035700084EC90E09787868780EC90E0918B808B3D
:1035800081EC90E0938B828B82EC90E0958B848B26
:1035900086EC90E0978B868B118E128E138E148E94
:1035A0000895CF93DF93CDB7DEB7E9970FB6F894C0
:1035B000DEBF0FBECDBF789484B5826084BD84B574
:1035C000816084BD85B5826085BD85B5816085BD1E
:1035D00080916E00816080936E00109281008091D6
:1035E000810082608093810080918100816080935E
:1035F0008100809180008160809380008091B10083
:1036000084608093B1008091B00081608093B000AD
:1036100080917A00846080937A0080917A00826041
:1036200080937A0080917A00816080937A00809103
:103630007A00806880937A001092C100E091600760
:10364000F0916107309711F4E4E6F7E085EA28E0AD
:10365000EF3FF20709F010F48193F9CF84B714BE5D
:103660008091600088618093600010926000E0911A
:10367000D306F091D40682E08083E091CF06F091EA
:10368000D0061082E091D106F091D20690E19083AD
:103690001092DB06E091D706F091D80686E0808391
:1036A000E091D506F091D606808180618083E0911B
:1036B000D506F091D606808188608083E091D5069A
:1036C000F091D606808180688083E091D506F091E4
:1036D000D60680818F7D80838091C0008260809338
:1036E000C0001092C5009093C40084B18C6284B96C
:1036F0002498569A529881E10E94120385E00E9414
:103700001203579A0E941F100E94280C68EE73E063
:1037100080E090E00E94B80483E080934A060E9413
:10372000C70C0E94440983EC96E00E94270490E0B5
:1037300080E028EE33E0FC01EE0FFF1FE55BFA4F5F
:1037400031832083019681319105A9F7FAE06F2E2C
:10375000712C0E946F108091BB058111FACF1092DD
:10376000DD041092DC0480914C0690914D06019688
:1037700090934D0680934C06C090B705C9AECC20FF
:1037800061F084B7877F84BF8091600088658093F3
:10379000600081E480936000FFCF80919605909156
:1037A0009705A0919805B09199054091A605509173
:1037B000A7056091A8057091A90584239523A623E8
:1037C000B723892B8A2B8B2B09F434C181E080939A
:1037D000DB041091DB048091DA0418130E94280C9A
:1037E0001093DA0480913A06882309F426C15F9A7F
:1037F0000E94EA044B015C018091D6049091D704A9
:10380000A091D804B091D904B501A401481B590B6B
:103810006A0B7B0B443651056105710508F487C0BE
:103820008C599F4FAF4FBF4F8093D6049093D704CE
:10383000A093D804B093D904809138068F5F809309
:103840003806809139068F5F8093390681E0909128
:103850003B06911180E080933B0680914A058823C6
:1038600009F43FC08091B6058823D9F160913705EE
:1038700070913805072E000C880B990B0E94C330FD
:10388000C090D204D090D304E090D404F090D5043A
:1038900020918306222309F4D2C021EB32E047E5D0
:1038A0005BE30E947831A70196010E94A82F6093E4
:1038B000D2047093D3048093D4049093D504609180
:1038C000D2047091D3048091D4049091D5040E94C5
:1038D00092306093CE047093CF048093D004909381
:1038E000D1042091C6043091C7044091C80450917E
:1038F000C9046091CA047091CB048091CC0490916A
:10390000CD040E94A82F6093CA047093CB048093C7
:10391000CC049093CD048091B005811108C08091B2
:103920004A06811104C060E08CE60E94780580910F
:10393000C2049091C304A091C404B091C504B50120
:10394000A401481B590B6A0B7B0B4E3151056105D5
:10395000710508F450C14E96A11DB11D8093C2049B
:103960009093C304A093C404B093C5048091BE0493
:103970009091BF04A091C004B091C104892B8A2BFF
:103980008B2B81F480910C0590910D05A0910E0573
:10399000B0910F058093BE049093BF04A093C00420
:1039A000B093C1040091BE041091BF042091C004E3
:1039B0003091C10488279927DC01801B910BA20B51
:1039C000B30B80239123A223B323AC01BD01409507
:1039D0005095609570954023512362237323409343
:1039E000BE045093BF046093C0047093C10481155A
:1039F00022E09207A105B10509F4EDC1D0F58032AE
:103A00009105A105B10509F4DAC1F0F488309105FA
:103A1000A105B10509F4CDC180319105A105B1051C
:103A200009F4D0C10297A105B10509F050C085E69F
:103A300090E04FC01092DB04CCCE5F98D9CE2FE639
:103A400032E143E85AE32DCF80389105A105B10555
:103A500009F4B2C1811541E09407A105B10509F44B
:103A6000B4C180349105A105B10589F58CE690E0DB
:103A700030C0009751E0A507B10509F4A9C1B0F421
:103A8000811578E09707A105B10509F4AAC1811550
:103A9000E0E19E07A105B10509F4A6C18115944096
:103AA000A105B105A1F480E790E013C0009720E8DC
:103AB000A207B10509F49BC10097A10531E0B30746
:103AC00009F474C10097A440B10509F487C190E0DE
:103AD00080E00091B00501111CC0009719F060E072
:103AE0000E9478050E94EA04AB01BC018091BA04EF
:103AF0009091BB04A091BC04B091BD04805B9F4F2A
:103B0000AF4FBF4F84179507A607B70710F40E9461
:103B1000F1060E9424078091E2049091E304039748
:103B200008F068C18091AF0581115CC0E8E8EE2E15
:103B3000E4E0FE2E00E410E0F70185919491B801D5
:103B40000E94330652E0E50EF11C025E1F4F0E3458
:103B500061E0160789F788EF90E00E944806E0913F
:103B6000B905F0E0EE0FFF1FEE57FB4F85919491E2
:103B700066E171E00E9433068091AC054AE06FEA8D
:103B800076E090E00E94012F0E94DD05E82FF0E032
:103B9000E155F94F1EE210838F5F682F70E0615589
:103BA000794F8091AD054AE090E00E94012F0E947C
:103BB000DD05E82FF0E0E155F94F10838F5F682FA6
:103BC00070E06155794F8091AD054AE090E00E9428
:103BD000012F64E371E08FEA96E00E943E0681E0E7
:103BE0008093AF058091B8049091B904CC979093DD
:103BF0003D0680933C0680913906853048F010924E
:103C0000390681E090913A06911180E080933A065E
:103C10000E94EA04AB01BC018091440690914506E4
:103C2000A0914606B091470688519C4FAF4FBF4FB9
:103C300084179507A607B70708F0ABC02091640664
:103C4000222319F021502093640680934406909318
:103C50004506A0934606B093470610923806809119
:103C60004C0690914D069093B7048093B604109241
:103C70004D0610924C0680914E0690914F069093FF
:103C8000B5048093B40410924F0610924E068091B2
:103C90005006909151069093B3048093B204109211
:103CA0005106109250068091B8049091B904019683
:103CB0009093B9048093B8041091AF051092AF05AA
:103CC0005E9880EA0E94E3068FEF0E94E30682FD81
:103CD00002C0877089AF5E9A8091AF04C9AC8C1521
:103CE00011F40C94E22E0E94C70C80916206882386
:103CF00019F081508093620680914806882319F05C
:103D000081508093480680914A06882319F081509B
:103D100080934A068091B6058823B1F080910D0109
:103D200090910E01019690930E0180930D01809168
:103D3000B0049091B10401969093B1048093B004C3
:103D40001092B5050E9444098091E2049091E30429
:103D500001969093E3048093E20480913F068130C2
:103D600051F48091B505882331F060E08EEC0E941B
:103D7000780510923F0680913F06882319F0815004
:103D800080933F0680913E06882319F081508093EE
:103D90003E0680E090E0892B09F4DBCC0E94A4036E
:103DA000882309F4D3CC0E940000D0CC83E090E0BB
:103DB00090CE89E690E08DCE8AE690E08ACE8BE6C2
:103DC00090E087CE8DE690E084CE8EE690E081CEC6
:103DD00082E790E07ECE8FE690E07BCE8BE390E0B2
:103DE00078CE87E790E075CE8CED90E072CE88E3D8
:103DF00090E06FCEF090B605FF2069F081E08093EF
:103E0000E0048AE0809362068091B50511E081307C
:103E1000A1F40E94DF091091E004112371F0F11068
:103E20000CC0109211018AE080930F0181E0809311
:103E300010018093B5050E944409F090B505FF205C
:103E400009F4E9C50E9444098091AF058111D3CEE0
:103E500000911101E02FEE0FFF0BEC5EFA4F859100
:103E6000949163E270E00E9433066BE671E08FE0AC
:103E700095E00E94330611110CC061E771E085E006
:103E800095E00E9433066BE771E08EEF94E00E94AC
:103E900033060111B8C083E10E94CD05811104C031
:103EA000109208011092070181E090E0A0E0B0E0DC
:103EB00089839A83AB83BC838091CE049091CF0495
:103EC000A091D004B091D1048D839E83AF83B88735
:103ED0008091400290914102A0914202B091430230
:103EE00089879A87AB87BC8780913C0290913D027D
:103EF000092E000CAA0BBB0B8D879E87AF87B88B52
:103F000080913F0490914004B0E0A0E0898B9A8BAF
:103F1000AB8BBC8B20E030E044EB53E46091CA04EF
:103F20007091CB048091CC049091CD040E94193003
:103F30000E9492306D8B7E8B8F8B988F8091440284
:103F400090914502B0E0A0E0898F9A8FAB8FBC8F33
:103F50008091090190910A01B0E0A0E08D8F9E8FC1
:103F6000AF8FB8A38091070190910801092E000C32
:103F7000AA0BBB0B89A39AA3ABA3BCA3DE0111962A
:103F80005D015CEEC52E54E0D52E1AEF0FEF6EE109
:103F9000962EF50121903190419051905F012114AE
:103FA000310441045104F1F00F5F099D70011124A7
:103FB000F60185919491B701635A7F4F0E943306B1
:103FC000FEE6EF0EF11C123008F044C423E044E09A
:103FD0006FEA76E0C1010E94E805B7018FEA96E03A
:103FE0000E943E0622E0C20ED11C1F5F133089F6EC
:103FF0006091B0047091B10490E080E020E04EE662
:1040000050E00E944D1780911101813009F068C085
:104010004EEDE42E44E0F42E0DE510E0F70185911D
:104020009491B8010E94330632E0E30EF11C025E67
:104030001F4F0F3241E0140789F700E03EE1C32E25
:10404000053009F40EC4D02E073010F0D02E0250E7
:104050000C9D80011124ED2CF12CF701EE5FFA4F3D
:1040600080814AE06FEA76E090E00E94012FB8017B
:104070006B597F4F0E943E06F701E850FB4F80814D
:104080004AE06FEA76E090E00E94012FB80165599E
:104090007F4F0E943E06F701E251FB4F80814AE0CC
:1040A0006FEA76E090E00E94012FB8016F587F4FD1
:1040B0000E943E0601E00D0D093011F667E470E044
:1040C0008CE691E00E943E066DE470E081E491E0B0
:1040D0000E943E0663E570E083E491E00E943E06A4
:1040E00080911101833079F5E0901105F09012056F
:1040F000FEA2EDA20091100510E018A70FA3EAEDB3
:10410000F4E0859194916DE570E00E9433064AE0F9
:104110006FEA76E0C7010E94012F61E770E00E941C
:104120003E06ECEDF4E0859194916BE770E00E941F
:1041300033064AE06FEA76E0C8010E94012F6FE87B
:1041400070E00E943E0680911101823009F04FC05C
:1041500080911A0590E09EA38DA38091190590E0AF
:1041600098A78FA38091180590E09AA789A78091BE
:10417000170590E09CA78BA78091160590E09EA75D
:104180008DA78091150590E098AB8FA780911405BD
:1041900090E09AAB89AB8091130590E09CAB8BAB20
:1041A0002AECE22E24E0F22E6E0155E2C50ED11C5F
:1041B0000DE510E0F70185919491B8010E94330656
:1041C0004AE06FEA76E0D6018D919D916D010E94E3
:1041D000012FB8016C5E7F4F0E943E06B2E0EB0EED
:1041E000F11C025E1F4F0D34E1E01E0719F78091AC
:1041F0001101843009F075C00E94240787E980937B
:10420000AF0623E044E060EB76E080914D029091B0
:104210004E020E94E80519EA1093B4061092B50602
:1042200064E370E08FEA96E00E943E068FEB809395
:10423000AF0623E044E060EB76E080914802909185
:1042400049020E94E8051093B4061092B5066CE28C
:1042500070E08FEA96E00E943E0692ECE92E94E030
:10426000F92E0DE510E0F70185919491B8010E94B7
:104270003306F2E0EF0EF11C025E1F4F053D110503
:1042800091F7809172064AE06FEA76E090E00E9432
:10429000012F61E770E00E943E06809174064AE0BB
:1042A0006FEA76E090E00E94012F6FE870E00E94D4
:1042B0003E0680917C064AE06FEA76E090E00E943C
:1042C000012F6DEA70E00E943E06809173064AE07D
:1042D0006FEA76E090E00E94012F6BEC70E00E94A4
:1042E0003E0680911101853009F05EC04AE06FEA18
:1042F00076E080914602909147020E94012F0E9431
:10430000DD05E82FF0E0E155F94F95E290838F5FEE
:10431000E82FF0E0E155F94F108265E370E08FEA95
:1043200096E00E943E06ECEBF4E0859194916DE5F9
:1043300070E00E943306EEEBF4E0859194916BE718
:1043400070E00E943306E0ECF4E08591949169E915
:1043500070E00E94330680913E06882309F483C2F0
:104360004AE06FEA76E090E00E94012F61E770E09A
:104370000E943E064AE06FEA76E080913602909114
:1043800037020E94012F6FE870E00E943E064AE06B
:104390006FEA76E080913402909135020E94012FFD
:1043A0006DEA70E00E943E0680911101863009F0AE
:1043B00046C06091C6047091C7048091C804909172
:1043C000C9040E948B30CB0123E044E06FEA76E021
:1043D0000E94E8058AE98093B3061092B40664E36C
:1043E00070E08FEA96E00E943E06E8EBF4E08591EB
:1043F00094916DE570E00E943306EAEBF4E085915C
:1044000094916BE770E00E9433064AE06FEA76E031
:1044100080913202909133020E94012F61E770E097
:104420000E943E064AE06FEA76E080913002909169
:1044300031020E94012F6FE870E00E943E068091D9
:1044400011018730A1F4E6EBF4E0859194916DE5DC
:1044500070E00E943306809187064AE06FEA76E0BA
:1044600090E00E94012F61E770E00E943E0680917B
:104470001101883061F5E2EBF4E0859194916DE5EE
:1044800070E00E943306E4EBF4E0859194916BE7D1
:1044900070E00E94330680913F06882309F4E8C14A
:1044A0004AE06FEA76E090E00E94012F61E770E059
:1044B0000E943E06E0917D06F0E0EE0FFF1FE656FB
:1044C000FB4F859194916FE870E00E9433068091D4
:1044D0001101893009F058C08091920690E09EA3A6
:1044E0008DA38091930690E098A78FA38091940666
:1044F00090E09AA789A78091950690E09CA78BA74A
:1045000080917E0690E09EA78DA780917F0690E027
:1045100098AB8FA704EAC02E04E0D02E7E0125E2DE
:10452000E20EF11CB12C0DE510E0F601859194919D
:10453000B8010E94330636E0B31669F04AE06FEA2C
:1045400076E0D7018D919C910E94012FB8016C5E9D
:104550007F4F0E943E06B394B2E0CB0ED11C025EA8
:104560001F4FE2E0EE0EF11CF7E0BF12DECFE0914C
:104570007A06F0E0EE0FFF1FE656FB4F859194910F
:1045800065E271E00E943306809111018A3081F565
:10459000E0906E05F12CFEA2EDA20091ED0410E07A
:1045A00018A70FA31AA619A6EEE9F4E08591949135
:1045B0006DE570E00E9433064AE06FEA76E0C701DD
:1045C0000E94012F61E770E00E943E06E0EAF4E0FD
:1045D000859194916BE770E00E9433064AE06FEAA0
:1045E00076E0C8010E94012F6FE870E00E943E064D
:1045F000809111018B3009F009C163E070E087E41C
:1046000091E00E943E0661E270E08DE591E00E943B
:104610003E060FE310E0EE24E394F12CF701EE0FD9
:10462000FF1FE55BFA4F808191814AE06FEA76E0F7
:104630000E94012FB8018FEA96E00E943E062FEFFC
:10464000E21AF20A025E1F4F0F3231E0130731F710
:1046500066E370E080E691E00E943E067DEBE72E87
:1046600075E0F72E04E510E04AE06FEA76E0D70146
:104670008D919D917D010E94012FB8018FEA96E0F6
:104680000E943E06025E1F4F0A3E110569F708E2CE
:1046900010E040E3F42E54E4D52E6AE3E62E20E049
:1046A00047E061EB76E090E080E00E94E805D09280
:1046B000AF06F092B006E092B106B8018FEA96E03C
:1046C0000E943E06F394025E1F4F003A110539F72F
:1046D00068E071E085E691E00E943E0680912E023E
:1046E00090912F024AE06FEA76E00E94012F66E285
:1046F00071E08FEA96E00E943E0680912C02909134
:104700002D024AE06FEA76E00E94012F64E471E036
:104710008FEA96E00E943E0660EA70E089E691E04A
:104720000E943E064AE06FEA76E08091B6049091DE
:10473000B7040E94012F65EA70E08FEA96E00E94BC
:104740003E066EEB70E08EE691E00E943E068091A0
:1047500049054AE06FEA76E090E00E94012F63ECA1
:1047600070E08FEA96E00E943E066AEF70E082E712
:1047700091E00E943E068091B6054AE06FEA76E03D
:1047800090E00E94012F6FEF70E08FEA96E00E94A8
:104790003E0668E171E086E791E00E943E064AE04D
:1047A0006FEA76E08091B4049091B5040E94012FE5
:1047B0006DE171E08FEA96E00E943E066CED70E0DC
:1047C0008AE791E00E943E064AE06FEA76E0809137
:1047D000B2049091B3040E94012F61EE70E08FEA61
:1047E00096E00E943E0666E371E08AE891E00E944E
:1047F0003E060E943F0A4AE06FEA76E00E94012FDF
:104800006BE371E08FEA96E00E943E068091110111
:104810008C3014F01092110120910F012A3069F5AB
:1048200080911001833009F4EDC0813009F4EDC0AE
:10483000823009F0EDC080E791E020913B06222311
:1048400029F0815B9D4F23E0FC01208381E0809370
:10485000AF05D1C920E040E0C201B1010E944F0A7A
:10486000BCCB07E0F3CB61E770E085E491E080CD5D
:1048700061E770E085E491E01BCE2A3008F0C8C003
:1048800030911101313001F5283019F48AE080931C
:104890000F0180910F01893019F487E080930F0197
:1048A00020910F0130E02E5F3F4F4EE1429FC0014B
:1048B000439F900D112420911001B6E02B9F800D95
:1048C000911D11240496B9CF333079F4233019F4B3
:1048D0008AE080930F0180910F01893019F482E002
:1048E00080930F0120910F0112C03230E9F429307A
:1048F00039F480912B028830A9F48AE080930F016B
:1049000020910F0120932B0283E08093100130E06F
:104910002E5F3F4F4EE1429FC001439F900D1124F7
:1049200046968BCF88E0EACF343071F483E08093F1
:104930001001253019F48AE080930F0180910F0156
:10494000893081F684E0CCCF353079F483E08093F0
:104950001001243019F48AE080930F0180910F0137
:10496000893009F0BFCF83E0BBCF90E080E03630E4
:1049700079F483E080931001293019F482E0809368
:104980000F0180910F01833009F0ACCF8AE0A8CFEE
:10499000373069F4293019F481E080930F01809158
:1049A0000F01823009F58AE080930F011DC0383075
:1049B00001F3393071F483E080931001293019F448
:1049C00087E080930F0180910F01883009F08ACF32
:1049D000DDCF3A3069F4293019F482E080930F0179
:1049E00080910F018330F9F283E0809310017ACF38
:1049F0003B3009F022CF23E0209310012AE02093DE
:104A00000F011BCF8AE791E018CF8AE691E015CF1E
:104A100090E080E012CF002321F18091B1059091C8
:104A2000B205A091B305B091B4058053984FAF4F34
:104A3000BF4F88159905AA05BB0508F0DCC8209171
:104A40003E0230913F02EFE4F2E080E2AF014F54CA
:104A500052404217530710F48193F8CF1092B005DB
:104A6000CAC80E9444098091AF058111C4C8A090B2
:104A70002D05B0902E05C0902B05D0902C058AEF07
:104A80008093AF06C501FAE0AF16B1044CF0B30154
:104A90000E940932CB012DE22093B00662E009C0EA
:104AA00066EF7FEF0E940932CB0161E01A141B040C
:104AB00094F370E06155794F4AE00E94012F8FE036
:104AC0000E94CD05882349F060915F0470916004D5
:104AD00071708FEA96E00E943E068BEF8093AF06DE
:104AE000C6012AE0C216D10434F0B3010E94093293
:104AF000CB0161E00BC066EF7FEF0E940932CB0172
:104B0000D7FEF7CF2DE22093B00662E070E061554A
:104B1000794F4AE00E94012F80E10E94CD05882351
:104B200049F0609161047091620471708FEA96E0BF
:104B30000E943E068091B605811104C0109238058E
:104B400010923705009137051091380580913D048A
:104B500090913E049801215F3F4F281739070CF0D0
:104B60003FC10E94EA046093390470933A04809331
:104B70003B0490933C0482E08093380410933E04FD
:104B800000933D0480910C018150803108F426C1CE
:104B900080930C0120902505309026054090270534
:104BA000509028058091340490913504A0913604EA
:104BB000B0913704B201A1014C5E5F4F6F4F7F4F40
:104BC000481759076A077B070CF02AC10E94EA04BC
:104BD00060933004709331048093320490933304D3
:104BE00082E080932F042092340430923504409266
:104BF00036045092370480910B018150803108F4C3
:104C00000DC180930B018091750490917604917091
:104C1000892B29F483E180930C0180930B0100918F
:104C200073041091740411703CE7C3163CEFD30673
:104C30000CF01CC148EFC41AD40AB194A194B10875
:104C400089E10E94CD05882309F49AC08091AA05C4
:104C500080FF8BC0C50178E3A7167FEFB70614F479
:104C600088E39FEF893C910514F088EC90E01C01EB
:104C7000AAE02A0E311C37FE04C01C01B1E12B0E44
:104C8000311C93E0359427949A95E1F7319421945F
:104C90003108E090A30640E024E0422E512C39E098
:104CA000A32EB12C443009F445E0842E912CC2018E
:104CB000881999098C9D90018D9D300D9C9D300D1A
:104CC000112437FF02C0215C3F4F86E035952795C0
:104CD0008A95E1F7220D331D275D3F4F22353105BF
:104CE00008F03FC0C901B5010E9409325EE1569F3C
:104CF000F001579FF00D1124800E911EE80DF91D53
:104D0000BF016C577109603E91E0790728F4615B3F
:104D10007D4F8058DB018C93EE2019F18EEF840FCC
:104D20008530F8F4CF01865D9109803EB1E09B07A4
:104D300058F4BC01615B7D4F4B01C901B5010E9474
:104D400009328058D4018C93B297E03EB1E0FB0762
:104D500040F4E15BFD4FC901B5010E940932805862
:104D600080834F5F493009F09DCFF801E15BFD4F33
:104D7000DF01119786E28C938CEB81838EE7808331
:104D80008AE10E94CD05882309F4DEC0C09089061F
:104D9000E09076064E2D4195A0910C0150910B01AB
:104DA0000C2C000CDD08C801815B9D4FBEE1B801F1
:104DB0006C197D09E4160CF463C04B0290011124B8
:104DC000F901E15BFD4FE60FF71FA083280F391FA4
:104DD000F901EC0DFD1D50834F5FECCF85E1D8CE7E
:104DE0000F96801791070CF0D5CE0E94EA046093CD
:104DF000390470933A0480933B0490933C0481E01F
:104E00008093380410933E0400933D0480910C017C
:104E10008F5F863108F4BCCE80E1BACE85E1F1CE59
:104E20004496A11DB11D82159305A405B5050CF08E
:104E3000EACE0E94EA0460933004709331048093B8
:104E400032049093330481E080932F042092340441
:104E500030923504409236045092370480910B0111
:104E60008F5F863108F4CDCE80E1CBCE55E8C516F4
:104E700053E0D5060CF4E4CE68EFC60ED61EDDCEA8
:104E8000F801EC19FD09E05BFD4F23E020838C0D58
:104E90009D1DFC01319782E080838BE10E94CD054E
:104EA000882309F451C00E94EA04AB01BC0180913F
:104EB000390490913A04A0913B04B0913C0488518C
:104EC0009C4FAF4FBF4F481759076A077B07A0F4A5
:104ED0002E2D3EE12302F0011124209138042230CE
:104EE00009F0C7C2A8014E1B5F0BFA01EC19FD09BE
:104EF000E15BFD4F89EC80830E94EA04AB01BC01B9
:104F00008091300490913104A0913204B091330427
:104F100088519C4FAF4FBF4F481759076A077B070F
:104F200098F40C0D1D1D5E2D6EE15602C00111247A
:104F300020912F04223009F0A4C2081B190BF8019C
:104F4000E15BFD4F89EC8083C0904D02D0904E0212
:104F50008091090190910A01C816D90620F4D092D7
:104F60000A01C092090180916B06882309F491C25D
:104F700020914C02C6016DE270E00E94F5316F5F36
:104F8000261718F42F5F20934C0280914C029091C9
:104F90006E06899FC001112490934B0280934A02B0
:104FA0008091850617E9882369F1E0914C02B2E20D
:104FB000EB9F400111242AE2E29FF00111249401A9
:104FC000C814D90438F09F0122503109C216D30603
:104FD00008F49601B12CA12C50E040E028193909C1
:104FE0004A095B09A7E0B0E00E946B2F31979F014F
:104FF00050E040E0281939094A095B090E944C2F0A
:1050000016E9121B80914A0290914B02C816D906EC
:1050100020F480913A06811117C001E029EA412F5E
:10502000B60185E190E00E94BB0A60914C0270E0FD
:1050300080914D0290914E020E94F53129EA412F54
:1050400084E390E00E94BB0A60914802709149029B
:1050500080916C068617170629F020F080913A0699
:10506000811107C001E029EA4FEB86E190E00E9440
:10507000BB0A6091460270914702809107019091AE
:105080000801681779073CF41616170624F4709384
:1050900008016093070180916D06882341F086170F
:1050A000170629F024F080913A06811107C000E02C
:1050B00025E24AEB83E190E00E94BB0A8090C6049F
:1050C0009090C704A090C804B090C90460914402B5
:1050D0007091450290E080E00E94C130A5019401EA
:1050E0000E94143087FF08C0C501B4010E949230AD
:1050F000709345026093440210917F061123E1F002
:1051000020E030E040E251E4C501B4010E941930D2
:105110001B012C01612F70E090E080E00E94C33001
:105120009B01AC01C201B1010E947331181624F435
:1051300080913A0681110BC0C501B4010E948B30E9
:1051400001E02AE940E087E190E00E94BB0A10916B
:105150007E06112311F160911F05709120056115E4
:10516000710581F420E030E044EB53E46091CA041F
:105170007091CB048091CC049091CD040E941930A1
:105180000E948B3034E6139FC001112486179707C5
:1051900024F480913A06811117C020E030E044EBFE
:1051A00053E46091CA047091CB048091CC04909137
:1051B000CD040E9419300E948B3000E024EA40E0C8
:1051C00088E190E00E94BB0A80E00E94A71781E07E
:1051D0000E94A7178EE00E94CD05882309F4A6C07F
:1051E00080917A06882309F4A1C08091B6058111C7
:1051F00058C18091DC049091DD0482609093DD04BD
:105200008093DC0484E08093640620914D02309109
:105210004E0280914A0290914B022817390748F4B8
:105220008091DC049091DD0480649093DD04809390
:10523000DC048091AA0583FF0FC08091480681118C
:105240000BC08091DC049091DD048F7C99278860ED
:105250009093DD048093DC04A090DC04B090DD0426
:105260008091DE049091DF04892B21F4B092DF0459
:10527000A092DE04C090DE04D090DF040027112746
:105280000C191D090C211D210E94EA04AB01BC016F
:105290008091520690915306A0915406B091550604
:1052A0008C509E4FAF4FBF4F84179507A607B70787
:1052B000B0F4C114D10449F0C80180959095C8227A
:1052C000D922D092DF04C092DE040E94EA046093E7
:1052D0005206709353068093540690935506E0E06F
:1052E00090E080E041E050E09A01082E02C0220FD9
:1052F000331F0A94E2F720233123232B09F0E82FF0
:1053000001968930910581F742E0A416B10470F04E
:10531000F0E0EE0FFF1FE358FA4F859194916091F2
:105320005D0470915E0471700E94330620915305F4
:1053300030915405809104019091050182179307E3
:1053400040F480915305909154059093050180930A
:1053500004012091530530915405809102019091F0
:1053600003012817390740F48091530590915405A3
:1053700090930301809302018091040190910501B3
:105380008330984030F082E098E09093050180935C
:1053900004018091020190910301863B934030F417
:1053A00086EB93E090930301809302016091530593
:1053B0007091540580917D0620E0811122C080907B
:1053C000020190900301B12CA12C20915305309142
:1053D000540550E040E0281939094A095B09A4E660
:1053E000B0E00E946B2F209104013091050150E044
:1053F00040E0281939094A095B090E944C2FB9017C
:1054000025E28091B605811103C020E370E060E0E1
:1054100000E048EC8BE090E00E94BB0A87E20E942B
:10542000CD05882309F461C080917B06823009F0A4
:1054300059C080913C0690913D062091B80430916E
:10544000B904AC01445C5F4F4217530708F04DC0EC
:10545000805C9F4F8217930720F430933D06209382
:105460003C0680918F049091900491700E944806B0
:105470003CC0E00FF11FEC19FD09E15BFD4F8FEC23
:105480003ACD815B9D4F080F191F8FECD8018C938B
:105490005BCD8091730680934C028091720690E000
:1054A0007BCD80916406882399F080913B06811121
:1054B0003DCF8091DC049091DD0484609093DD0405
:1054C0008093DC04809106018150809306019DCE7B
:1054D0008091DC049091DD0481609093DD048093E1
:1054E000DC0493CE813009F4BCCF88E00E94CD0566
:1054F0008823D9F08091290590912A05880F991F5A
:10550000880F991F83509D4F6AE570E00E94093211
:105510006D597A4F8091510490915204917049E0F5
:1055200050E0815B9D4F0E94F12E609129057091A2
:105530002A0577FF02C068597E4F00E02DEB43EF4C
:1055400087E090E00E94BB0A85E00E94CD05882399
:1055500089F020913D0530913E0540913F055091E5
:105560004005AAE0B0E00E946B2F2EEB45E050E032
:105570000E94940B89E00E94CD058823A9F06091D8
:1055800025057091260580912705909128052AE030
:1055900030E040E050E00E944C2FCA01B9012FE3F7
:1055A00049E050E00E94940B1091830680912305FE
:1055B00090912405112309F477C0BC01990F880B41
:1055C000990B0E94C3302AE13AEF47EA5EE30E945A
:1055D00078310E948B30E12FF0E0EF5DFE4F01E06B
:1055E000208148EF89E290E00E94BB0A8AE00E9495
:1055F000CD05882309F46DC02091550430915604DF
:105600003170E0912305F09124059E2F8F2FEA360B
:10561000AFEFFA0714F49AE68FEF40918006092F56
:10562000182F0739110514F006E910E0642F70E017
:1056300086E990E00E940932C8010E940932162FC3
:105640006C01062FB3E04B9FB001112486E990E076
:105650000E940932C6010E940932962F80E07EE145
:10566000A901415B5D4F5A01C82ED12C402F002E5D
:10567000000C550B57FF03C0519541955109C416B5
:10568000D506DCF4879FA00111241E161F0684F4A2
:10569000D901A41BB50BAD01415B5D4FBFE8CB2E1B
:1056A000DA01CC928F5FE0CFB3010E94093293CF31
:1056B0004A0D5B1DA9E8CA2EF3CF992351F04EE1A4
:1056C0001402201931091124F901E15BFD4F6457DF
:1056D000608310914905111104C080913A0681112F
:1056E0001BC080E00E94CD058823B1F08EE180933D
:1056F000AF068FE18093B0064AE061EB76E0812F40
:1057000090E00E94012F60914104709142047170F9
:105710008FEA96E00E943E0681E00E94CD05882334
:1057200051F1209143043091440431708091290556
:1057300090912A05845E9D4F40912F055091300530
:10574000841B950B880F991F880F991F8D966AE50A
:1057500070E00E940932CB0160E170E00E940932E2
:10576000805A9F4F8093AF061092B006B9018FEA1E
:1057700096E00E943E068090310590903205A09000
:105780003305B090340580918306882371F0C501FC
:10579000B4010E94C13021EA38EF41E550E40E9493
:1057A00078310E9492304B015C01809140029091CF
:1057B0004102A0914202B091430288159905AA05C1
:1057C000BB0598F48C599F4FAF4FBF4F8815990573
:1057D000AA05BB0510F44C015D0180924002909235
:1057E0004102A0924202B092430282E00E94CD05A3
:1057F000882341F1109192061123A9F0C501B4014B
:1058000024E630E040E050E00E94762F812F90E0C7
:10581000B0E0A0E0281739074A075B0720F0809125
:105820003A0681110FC02AE741E0C501B4010E9488
:105830004F0A609145047091460471708FEA96E0BA
:105840000E943E0660912F057091300500E02DEB1F
:1058500042EF84E090E00E94BB0A01E020E044EFC8
:1058600070E060E081E390E00E94BB0A86E30E9462
:10587000CD05882349F06091AD047091AE0471703C
:105880008DE791E00E943E068091B605811104C02B
:10589000109238051092370545EF63E08091370587
:1058A000909138050E94470B46EF6CE280913505D8
:1058B000909136050E94470BE0918306F0E0ED5D84
:1058C000FE4F60913F047091400400E0208147EF5B
:1058D0008DE290E00E94BB0A81E10E94CD05882301
:1058E00001F1409145055091460560914705709141
:1058F0004805809163049091640420E091700E94B7
:1059000059064091410550914205609143057091BF
:105910004405809165049091660422E091700E9494
:1059200059068EE10E94CD05882309F442C01091EA
:105930007E0654E6159FB0011124072E000C880B3B
:10594000990B0E94C3304B015C0120E030E044EB36
:1059500053E46091CA047091CB048091CC0490917F
:10596000CD040E9419309B01AC01C501B4010E9415
:10597000A72F4B015C01612F70E090E080E00E9456
:10598000C3309B01AC01C501B4010E9419300E94D3
:105990009230653671058105910520F064E670E06E
:1059A00080E090E000E025E247E98EE190E00E948F
:1059B000BB0A80914806882309F477C18090A60528
:1059C0009090A705A090A805B090A90580917005BA
:1059D00090E0B0E0A0E088219921AA21BB21892B89
:1059E0008A2B8B2B69F48091710590E0B0E0A0E0E8
:1059F00088219921AA21BB21892B8A2B8B2B29F065
:105A000080EA8093AF06FF24F39480917205909111
:105A10007305A0917405B091750588219921AA217B
:105A2000BB21892B8A2B8B2B39F0EF2DF0E0E15530
:105A3000F94F82EA8083F3948091760590917705FF
:105A4000A0917805B091790588219921AA21BB21DF
:105A5000892B8A2B8B2B39F0EF2DF0E0E155F94F94
:105A600081EA8083F394EF2DF0E0E155F94F108245
:105A700086E00E94CD05882349F060914D04709125
:105A80004E0471708FEA96E00E943E068091860572
:105A900090918705A0918805B09189058821992169
:105AA000AA21BB21E1E0892B8A2B8B2B09F087C02F
:105AB00080918A0590918B05A0918C05B0918D0500
:105AC00088219921AA21BB21E2E0892B8A2B8B2BEB
:105AD00009F075C080917E0590917F05A0918005A9
