:020000040000FA
:100000000C9415030C94511A0C943D030C943D036D
:100010000C94801A0C943D030C943D030C943D0306
:100020000C943D030C943D030C943D030C943D0350
:100030000C943D030C943D030C943D030C943D0340
:100040000C94EC180C943D030C94BA180C9494186E
:100050000C943D030C943D030C943D030C943D0320
:100060000C9436190C943D034E4F5420444554458E
:10007000435445440050414C004E545343004643C2
:100080003A0053493A0049443A00202020202B509E
:10009000495443482046554C4C00202020202B59E1
:1000A0004157205249474854004D454E553A54480F
:1000B0005254204D4944444C4500004D572D4F5358
:1000C00044202D2052322E302E302E30004F4E0044
:1000D0004F464600494620535550504F52544544D0
:1000E000002000202020202B504954434820465512
:1000F0004C4C00202020202B594157204C45465481
:1001000000545820203A54485254204D4944444CFD
:1001100045004C4F4F5054494D45005049442043F1
:100120004F4E54524F4C4C45520050524F46494C42
:1001300045005445585420414C41524D5300414DC7
:100140005053004D414820583130300054494D45FE
:100150005200535045454400414C54495455444580
:10016000205831300044495354414E4345205831C2
:100170003030005448524F54544C452050574D0095
:100180004D41472043414C004D4150204D4F444587
:100190000041444A555354205A45524F0041444A65
:1001A00055535420414D50530053455420525353FE
:1001B00049204D494E005345542052535349204D38
:1001C00041580043414C20525353490043454C4C45
:1001D000530041444A555354205649440041444A2F
:1001E000555354204D41494E004D41494E20564FE4
:1001F0004C545320414C41524D005448524F54549A
:100200004C45204558504F005448524F54544C458B
:10021000204D494400545041005941572052415407
:1002200045005049544348205241544500524F4CD8
:100230004C2052415445005243204558504F0052E3
:1002400043205241544500594157205243204558BC
:10025000504F0054504120425245414B504F494E5F
:1002600054004D4147004C4556454C004750530003
:10027000414C540059415700504954434800524F93
:100280004C4C0052535349204D494E00564F4C544C
:10029000414745204D494E004D415820414D505356
:1002A000004D41482055534544004D41582053507E
:1002B000454544004D415820414C54004D41582083
:1002C0004449535400544F54204449535400464C1D
:1002D000592054494D45002000414456414E434564
:1002E0002054554E494E4700414C41524D53004118
:1002F0004456414E43454400444953504C415900F3
:1003000043555252454E54005253534900564F4C98
:1003100054414745004143434553532046432053EE
:10032000455454494E47530052432054554E494E6C
:100330004720320052432054554E494E4700504901
:100340004420434F4E4649470053544154530020E4
:100350004D495353494F4E004155544F20484F4C3F
:1003600044004155544F2052544C004641494C538F
:1003700041464500AEAF00C0C100C4C500ACAD00F1
:10038000CDCE00B5B600435A009D9E00AAAB00003A
:100390004143524F004149522000484F5A4E0053AA
:1003A00054414200484F4C44005741595000435279
:1003B000555A0052544C20002A46532A004D414EB3
:1003C000550000545552544C450020004C4F5720C6
:1003D000564F4C5453004C4F572053415453002018
:1003E0004E4F20475053004E4F204441544100206F
:1003F00041524D45440044495341524D454400004B
:1004000020C032C034C0B6C08F00AD0024C071001F
:1004100028C0CBC0CAC060C142017EC137C124011F
:10042000420102C00FC04CC107016AC12E0171C157
:1004300078C1C2C0BBC0BB00030007005C00FB006A
:1004400006013EC03400C30064C01001BAC05601AA
:10045000DC00E900F200D40098008000DA005200CD
:100460009E007A00460064005C0082004B000000A1
:1004700096000000FF030000A30312010000220009
:1004800008000004C800030000010101C800326434
:1004900002000200020100010007000080000000CD
:1004A00000080000001E1E144D574F53440020202A
:1004B000202000000A0001060000010000030000E7
:1004C0000000080002010000030407000000000013
:1004D000000000790075006800BB00BA00A9009A0E
:1004E000008A00BA00860082007E00D000CD0001A4
:1004F00001F300E300E100D4002A011B01120165B1
:1005000001580152014C0143013E01320180017347
:100510000188019D019101C301B601A901E901DD35
:1005200001D201CC013F0237022D0222021902152D
:10053000020802FA01530247027E02780274027036
:10054000026C0266026202CE02C502BC02B402AABA
:1005500002A10298028C0283023C504147453E00B2
:10056000534156452B455849540045584954004974
:10057000033E033403280315030D0308030003F8A7
:1005800002EF02E802D902D702FF036B03620358AD
:10059000034F03C203BD03B803B303AE03A903A40F
:1005A000039F039A03950390038F038C03B8038979
:1005B000038603830380037D037A03770374031D9B
:1005C0001A1D1C1D191D1C1D1B1D1C1D181D1C1D6D
:1005D0001A1D1C1D191D1C1D1B1DFF03F603EF0317
:1005E000E703DF03D603CC03CA03C3030000000004
:1005F000250028002B0000000000240027002A000E
:1006000004040404040404040202020202020303B8
:1006100003030303010204081020408001020408C0
:100620001020010204081020DB1A11241FBECFEF96
:10063000D8E0DEBFCDBF11E0A0E0B1E0E4EEF4E62B
:1006400002C005900D92AE38B107D9F727E0AEE8A9
:10065000B1E001C01D92A436B207E1F713E0C5E195
:10066000D3E004C02197FE010E946A32C431D10751
:10067000C9F70E94081B0C9470320C940000000013
:10068000CF93DF9390E0FC01EC5EF94F2491805012
:100690009A4FFC0184918823C1F090E0880F991F44
:1006A000FC01EA50FA4FC591D491FC01E451FA4F94
:1006B000A591B4919FB7F8948881E22FE0958E239D
:1006C00088838C91E823EC939FBFDF91CF910895AD
:1006D000AF92BF92CF92DF92EF92FF920F931F9350
:1006E000CF93DF936C017B018B01040F151FEB018E
:1006F0005E01AE18BF08C017D10759F06991D60145
:10070000ED91FC910190F081E02DC6010995892BB6
:1007100079F7C501DF91CF911F910F91FF90EF9075
:10072000DF90CF90BF90AF900895FC01538D448D22
:10073000252F30E0842F90E0821B930B541710F08C
:10074000CF96089501970895FC01918D828D981799
:1007500061F0A28DAE0FBF2FB11D5D968C91928D71
:100760009F5F9F73928F90E008958FEF9FEF0895A2
:10077000FC01918D828D981731F0828DE80FF11D6B
:10078000858D90E008958FEF9FEF0895FC01918D86
:10079000228D892F90E0805C9F4F821B91098F737F
:1007A0009927089583EC96E00E94C60321E0892BE7
:1007B00009F420E0822F089580E090E0892B29F051
:1007C0000E94D20381110C9400000895FC01A48DB5
:1007D000A80FB92FB11DA35ABF4F2C91848D90E063
:1007E00001968F739927848FA689B7892C93A08946
:1007F000B1898C91837080648C93938D848D9813D0
:1008000006C00288F389E02D80818F7D8083089562
:10081000EF92FF920F931F93CF93DF93EC0181E050
:10082000888F9B8D8C8D98131AC0E889F9898081F7
:1008300085FF15C09FB7F894EE89FF896083E8892A
:10084000F98980818370806480839FBF81E090E01C
:10085000DF91CF911F910F91FF90EF900895F62EA9
:100860000B8D10E00F5F1F4F0F731127E02E8C8D43
:100870008E110CC00FB607FCFACFE889F989808188
:1008800085FFF5CFCE010E94E603F1CFEB8DEC0F93
:10089000FD2FF11DE35AFF4FF0829FB7F8940B8FA5
:1008A000EA89FB8980818062CFCFCF93DF93EC010F
:1008B000888D8823B9F0AA89BB89E889F9898C9148
:1008C00085FD03C0808186FD0DC00FB607FCF7CF04
:1008D0008C9185FFF2CF808185FFEDCFCE010E9404
:1008E000E603E9CFDF91CF91089590E0FC01E15458
:1008F000FB4F2491FC01EC5EF94F3491FC01E05078
:10090000FA4FE491EE23C9F0222339F0233001F1AC
:10091000A8F4213019F1223029F1F0E0EE0FFF1F89
:10092000E451FA4FA591B4918FB7F894EC9161110D
:1009300026C030953E233C938FBF08952730A9F001
:100940002830C9F0243049F7809180008F7D03C0A2
:10095000809180008F7780938000DFCF84B58F7780
:1009600084BDDBCF84B58F7DFBCF8091B0008F77C6
:100970008093B000D2CF8091B0008F7DF9CF3E2B15
:10098000DACF3FB7F8948091270290912802A09186
:100990002902B0912A0226B5A89B05C02F3F19F065
:1009A0000196A11DB11D3FBFBA2FA92F982F8827EF
:1009B000BC01CD01620F711D811D911D42E0660FCA
:1009C000771F881F991F4A95D1F708958F929F929C
:1009D000AF92BF92CF92DF92EF92FF924B015C01F8
:1009E0000E94C1046B017C010E94C1046C197D0945
:1009F0008E099F09683E734081059105A8F321E0A7
:100A0000821A9108A108B10888EEC80E83E0D81EAA
:100A1000E11CF11C81149104A104B10429F7FF9099
:100A2000EF90DF90CF90BF90AF909F908F90089500
:100A30002FB7F894609123027091240280912502CF
:100A4000909126022FBF08952091D801260F3327B9
:100A5000331F21323105ECF42091FC01FC0190E0C0
:100A600080E0243069F082E00895A091D8012191BE
:100A7000AC0148545E4FA40FB52FB11D2C930196C5
:100A8000861798F38091D801680F6093D80180E0B1
:100A9000089581E0089508958FEF9FEF08958FEFF7
:100AA0009FEF08958091B10190E091958195910912
:100AB0000895CF93DF93CB01EA01642F0E942405B0
:100AC000CE01DF91CF910895CF93DF931F92CDB7E1
:100AD000DEB7698361E0CE0101960E94240581E0C2
:100AE00090E00F90DF91CF91089590E080E008951D
:100AF0008627423051F428E030E095ED87FF08C0AA
:100B0000880F892721503109C9F78093320608954B
:100B1000880FF8CF6091B00183EC96E00C94080444
:100B2000CF93C82F682F83EC96E00E940804809131
:100B3000B0018C278093B001CF910895CF93C92F36
:100B40000E9490058C2FCF910C949005CF93DF934A
:100B5000D82FC62F64E283EC96E00E9408046DE46F
:100B600083EC96E00E9408046CE383EC96E00E941C
:100B700008041092B0018C2F0E9490058D2F0E94C6
:100B80009005C11104C0DF91CF910C948A05DF91CB
:100B9000CF910895E091CA0581E08E0F8093CA0538
:100BA000F0E0E553FA4F80810895CF93DF930E94E0
:100BB000CA05C82FD0E00E94CA059E01382BC90182
:100BC000DF91CF910895CF92DF92EF92FF920E9432
:100BD000D5056C01F12CE12C0E94D505B0E0A0E018
:100BE000772766276C297D298E299F29FF90EF9012
:100BF000DF90CF900895E82FF0E0EE0FFF1FEF5B3E
:100C0000FB4F208131812227307C81E02115304C3F
:100C100009F080E0089580E0E82FF0E0E155F94F19
:100C20009081992311F08F5FF7CF0895EF92FF9293
:100C30000F931F93CF93DF93FB01C0E097FF04C096
:100C4000919581959109C1E0DF01A40FB11D1C921E
:100C5000DEE20AE010E0421306C04150DF01A40FBB
:100C6000B11DDC9320E03FEF340F7F01E30EF11C58
:100C7000B8010E945632805DD7018C93CB0133239B
:100C8000C1F0211114C0009791F4CC2339F03EEF4C
:100C9000340FDF01A30FB11D8DE28C9380E233236B
:100CA00041F03150DF01A30FB11D8C93F8CF432FDA
:100CB000D2CFCF01DF91CF911F910F91FF90EF9095
:100CC0000895DB01A15BBD4FFC0124910196222315
:100CD00011F02D93F9CF0895DC01FB01E15BFD4F8D
:100CE0009D91992311F09193FBCF0895A8E9B6E067
:100CF000EFEAF6E02D91219326E0E93BF207D1F7E8
:100D00001092B906BC018FEA96E00C946C068F92A3
:100D10009F92AF92BF92CF92DF92EF92FF920F938A
:100D20001F93CF93DF938C01F22EDBEC211101C0D6
:100D3000DAECC0E077FF08C070956095509541955A
:100D40005F4F6F4F7F4FC1E0CB01BA0124E630E027
:100D500040E050E00E94992FCA01B9011092BA06F2
:100D6000CF0DEC2FF0E0E85EFE4F20812093B90616
:100D7000CAE03AE0832E912CA12CB12C4EE2C42E75
:100D8000DD24DA94DC0E2D2D30E0A9014155594FB8
:100D90007A01A50194010E94992F605DF70160839B
:100DA000B901CA01DD20A1F0F3E0FD1588F161155C
:100DB00071058105910599F5C250EC2FF0E0E055E1
:100DC000F94F8FEA96E020E222938E179F07E1F712
:100DD000D093AF0680918106882349F080E3809309
:100DE000B00686E38093B10683E38093B206B80130
:100DF0008FEA96E0DF91CF911F910F91FF90EF90D6
:100E0000DF90CF90BF90AF909F908F900C946C0626
:100E100025E0D21204C0C092B30624E0D22ECD2D1C
:100E2000AFCF8EBD0DB407FEFDCF8EB50895CF9325
:100E3000C62F0E9411078C2FCF910C94110780911F
:100E4000AF05882371F11092AF058FEF80932E04C8
:100E50005E9860E085E00E94170760E086E00E94EF
:100E6000170761E084E00E9417075E9AEFE4F2E062
:100E700080E25E9890819EBD0DB407FEFDCF5E9A24
:100E8000819394E0EF32F907A1F70E94180560936F
:100E9000BA047093BB048093BC049093BD04109279
:100EA000AF0508958F929F92AF92BF92CF92DF923B
:100EB000EF92FF92CF93DF93C3E1D1E0ADEBB5E0CA
:100EC00020E089918E3008F08E504091000190E42E
:100ED000499FA00111248770842B80937C0080910E
:100EE0007A00806480937A0080917A0086FDFCCF3E
:100EF000909178008091790089279827892721117E
:100F0000FBC030917506313021F48091210590911C
:100F100022054D915D91FD013297BA0134E075953E
:100F200067953A95E1F7461B570B96958795840F81
:100F3000951F918380832F5F253019F6F0908806E6
:100F4000C091BD05D091BE0580917506811104C187
:100F50006091740670E090E080E00E9410314B01D7
:100F60005C01BE0190E080E00E940E319B01AC016B
:100F7000C501B4010E94C5312FE632E143E05AE3D6
:100F8000F11004C023E037E24BED58E30E94C53175
:100F90000E94DF3070934E0260934D026091BF0556
:100FA0007091C00590E080E00E940E314B015C0121
:100FB00060917C0670E090E080E00E9410319B011F
:100FC000AC01C501B4010E94C5312FE632E143E016
:100FD0005AE3F11004C023E037E24BED58E30E94DE
:100FE000C5310E94DF3070934902609348028091BE
:100FF0007706823009F010C1C0900201D090030141
:10100000F12CE12C209153053091540550E040E043
:101010002C193D094E095F09A4E6B0E00E94B82FE3
:10102000209104013091050150E040E02C193D0968
:101030004E095F090E94992F69017A0185E6C81659
:10104000D104E104F1042CF024E6C22ED12CE12CD1
:10105000F12CF7FE03C0C12CD12C7601A70196011B
:10106000C701B6010E9432320E9410312AE037EDEA
:1010700043EA5CE30E94C5314B015C01C701B60144
:101080000E9410319B01AC01C501B4010E94F52FF3
:101090006B017C01609132027091330290E080E03C
:1010A0000E940E319B01AC01C701B6010E94C531FF
:1010B0002AE037ED43E25CE30E94C5316B017C011D
:1010C000609130027091310290E080E00E940E3118
:1010D0009B01AC018091B605882309F447C0C70184
:1010E000B6010E94F52F6093C6047093C7048093E5
:1010F000C8049093C90442C0243009F00ACF30914B
:101100006F06333061F4E0917006F0E0EE0FFF1FE0
:10111000E55BFA4F8081918196958795FACE3230C2
:1011200029F480911D0590911E05F3CE313009F010
:10113000F0CE8091AB019091AC0195958795009789
:1011400009F0E7CEE091AA01F0E0EE0FFF1FEB53AC
:10115000FA4F80819181DDCE33E0D595C7953A95E0
:10116000E1F7D0934E02C0934D0218CF2093C604EE
:101170003093C7044093C8045093C9042091C50517
:101180003091C60583E0359527958A95E1F78091E2
:10119000B505882349F080913E068F3009F098C04C
:1011A0003093370220933602C0903402D09035023B
:1011B000F12CE12C032E000C440B550B2C193D098E
:1011C0004E095F09A4E6B0E00E94B82F20913602D4
:1011D0003091370250E040E02C193D094E095F097B
:1011E0000E94992F2536310514F024E630E037FFB0
:1011F00002C030E020E03093470220934602109274
:10120000AA01DF91CF91FF90EF90DF90CF90BF9038
:10121000AF909F908F9008958130A1F480911B052D
:1012200090911C0597FF0CC005976AE070E00E9442
:101230005632072E000C880B990B0E94103153CFA9
:101240000596F3CFC0903002D0903102F12CE12C02
:101250002091C1053091C20593E0359527959A9567
:10126000E1F7032E000C440B550B2C193D094E09D8
:101270005F09A0913202B09133020E94B82F2FEF84
:1012800033E040E050E02C193D094E095F090E940F
:10129000992FCA01B9010E9410316B017C0120E035
:1012A00030E0A9010E94613087FD09C0C092C604E8
:1012B000D092C704E092C804F092C9045FCF1092A4
:1012C000C6041092C7041092C8041092C90456CFE5
:1012D000813009F069CF30933502209334021092A7
:1012E0003E0662CFCF92DF92EF92FF928091BB05D4
:1012F000882309F441C080E090E1A0E0B0E0809351
:101300000C0590930D05A0930E05B0930F058091E9
:101310004A06882381F010920C0510920D05109258
:101320000E0510920F051092BE041092BF04109289
:10133000C0041092C1048091BE049091BF04A0919A
:10134000C004B091C10440910C0550910D0560910D
:101350000E0570910F0584239523A623B723809350
:10136000BE049093BF04A093C004B093C104FF9047
:10137000EF90DF90CF9008958091B505882329F0F4
:101380008EED97E0A4E0B0E0BACF8AE191E0A0E072
:10139000B0E080930C0590930D05A0930E05B093DB
:1013A0000F0585E30E94FB05882361F08AE195E043
:1013B000A0E0B0E080930C0590930D05A0930E057E
:1013C000B0930F058091B6058111A1CFC0900C0597
:1013D000D0900D05E0900E05F0900F05D701C601E5
:1013E0009860B16080930C0590930D05A0930E0555
:1013F000B0930F0585E30E94FB05882309F487CF8E
:101400008CE0D82A6894F0F8C0920C05D0920D05B3
:10141000E0920E05F0920F057ACFCF9381E0809392
:1014200011018AE080930F0183E0809310011092F4
:10143000B5051092E004109262068091860688231A
:1014400061F11092CE041092CF041092D004109249
:10145000D104109240021092410210924202109266
:10146000430210923D0210923C02109240041092EE
:101470003F0410924502109244021092B10410925F
:10148000B0048EEF90E090930A018093090184E606
:1014900090E09093080180930701C0916D058091C1
:1014A0006E058C17B9F0C0936E0561E082ED0E9465
:1014B000A6058C2F0E9490050E948A0560E08AEFA5
:1014C0000E94A6050E94720964E670E080E090E048
:1014D0000E94E604CF910C947209E4E6F7E0CF0194
:1014E000845697402081253A39F428E0EF3FF207EF
:1014F00009F010F43196F3CF08951F93CF93DF9343
:10150000DC01CB01142F222319F02093AF0621E038
:10151000C22FD0E0C155D94F883E23E09207A105E4
:10152000B1050CF450C020918306BC01CD012223EB
:1015300009F440C0685F7E4F8F4F9F4F20E132E03B
:1015400040E050E00E94992FC9014AE0BE010E948C
:101550004E2F0E940B06282F30E0F901E255F94F7B
:1015600090812155394FD9019C939EE290838F5FE2
:10157000E82FF0E0E155F94F1082C6E01130B1F4E8
:101580000E940B06E82FF0E0E155F94F2091830609
:1015900030E02B5D3E4FC20FD32FD11D9881908339
:1015A0008F5FE82FF0E0E155F94F1082DF91CF9186
:1015B0001F9108956E5C7F4F8F4F9F4F24E630E060
:1015C00040E050E0BFCF4AE0BE010E944E2FC2E093
:1015D000D5CF8F929F92AF92BF92CF92DF92EF9230
:1015E000FF920F93CF93DF937C014B01C42FD22F37
:1015F0000E94FB05882309F46CC0CC2319F0C0932A
:10160000AF06C1E0AC2EB12CC5018155994F6C01DC
:101610004AE0BC01C4010E944E2F002399F10E94B0
:101620000B06482F50E021E030E0AB2811F022E01B
:1016300030E04217530779F4CE5FEC2FF0E0E1552C
:10164000F94F1082D6019C91DF0111979C9332973C
:1016500090E390838F5F882331F0E82FF0E0E1552D
:10166000F94F90819183EFEFE80F29F0F0E0E15519
:10167000F94F908191838250E82FF0E0E155F94FC6
:101680008EE28183DD2369F00E940B06E82FF0E0F3
:10169000E155F94FD0838F5FE82FF0E0E155F94F26
:1016A0001082F701FF27EE0FFF1FEF5BFB4F6081FA
:1016B000718171708FEA96E0DF91CF910F91FF9069
:1016C000EF90DF90CF90BF90AF909F908F900C9451
:1016D0006C06DF91CF910F91FF90EF90DF90CF904C
:1016E000BF90AF909F908F9008950F931F93CF93CB
:1016F000DF93D62F142FC0918306BC01990F880B5E
:10170000990B0E9410312CEB34E743E15DE3CC23CD
:1017100021F02DED3FE347EB5CE30E94C5310E94D1
:10172000DF3080913F04909140049C012C5E3F4F3C
:1017300026173707F8F43093400420933F04809134
:101740009406882339F08617170620F480913A060C
:1017500081110BC0EC2FF0E0ED5DFE4F00E0208129
:10176000412F8D2F90E00E94E90ADF91CF911F91C8
:101770000F9108958617970710F7709340046093B0
:101780003F04DDCF7F928F929F92AF92BF92CF9214
:10179000DF92EF92FF920F931F93CF93DF93D62F99
:1017A000C72F982E092F5A01822E109183061123DC
:1017B00071F00E94103123E43FEF44E550E40E94B1
:1017C000C5310E94D830D62FC72F982E092F6D2FE4
:1017D0007C2F892D902F2AE030E040E050E00E94DD
:1017E000992F69017A018091B6058823B9F080911B
:1017F000E2049091E304069788F080913C02909176
:101800003D02092E000CAA0BBB0B8C159D05AE05E5
:10181000BF0524F430933D0220933C027090930660
:101820007720B9F06D2F7C2F892D902F20E137E2A2
:1018300040E050E00E94992F872D90E0B0E0A0E0BA
:10184000281739074A075B0724F080913A0681116F
:101850001BC08091A40690E0B0E0A0E0C816D906B5
:10186000EA06FB06FCF48FE301E0881202C087EC75
:10187000882EE12FF0E0EB5DFE4F2081482D6D2F8B
:101880007C2FC5010E94E90ADF91CF911F910F9132
:10189000FF90EF90DF90CF90BF90AF909F908F9090
:1018A0007F900895DC2DCD2D00E0E3CFCF92DF9225
:1018B000EF92FF920F931F93CF93DF930AE616E008
:1018C000D0E0C0E0CE010E94832FF80181938F0108
:1018D0002196C534D105B1F780916F06813019F496
:1018E0003B981092A206F89480916F06813079F4AB
:1018F000E89880916C0083FD0AC080916800826046
:101900008093680080916C00886080936C0078946C
:1019100080918806882309F464C081E080930001E7
:1019200000E312E0CE010E94832FE82EF12CF80193
:10193000F182E082CE0101960E94832F90E0982FE1
:1019400088278E0D9F1DF801819391938F01229618
:10195000C135D10539F7C091DB04FEE6CF9FE00128
:1019600011247E0181E5E80EF11C01E414E0C1546C
:10197000DF4FC7010E94832FC82ED12CF801D182DE
:10198000C082C70101960E94832F90E0982F88277C
:101990008C0D9D1DF801819391938F012091B805C5
:1019A000213081F420918406213061F09C01317056
:1019B0002739310538F03297213F3105A0F44E9692
:1019C00091838083F2E0EF0EF11CCE15DF0589F6DE
:1019D000DF91CF911F910F91FF90EF90DF90CF900B
:1019E000089583E09BCFCC96EBCFCF93DF935E9AA5
:1019F0002A9864E670E080E090E00E94E6042A9A6B
:101A00001CBC80E58CBD8DB581608DBD8DB58EB55E
:101A10005E9864E670E080E090E00E94E60482E078
:101A20008093B9051092B80580EA0E9411078FEFE4
:101A30000E94110782FD3BC087708093AF0486E847
:101A400091E090933F0280933E028091AF048130F9
:101A500089F58093B8058093B90580EE91E0909365
:101A60003F0280933E02D0E168E480E00E941707C5
:101A700061E070E080E090E00E94E604C0E06091E8
:101A8000A60680E18C0F0E941707CF5FDC13F7CF0B
:101A90005E9A9FB7F894809169008C7F82608093F2
:101AA0006900E89A9FBFDF91CF910C94560C109279
:101AB000AF04C5CF823011F41092B905DDE068E0C3
:101AC000D4CF1F93CF93DF9385ED8093BC0080919B
:101AD000B4019091B501A091B601B091B7010796FC
:101AE000A11DB11D23E0B695A795979587952A95D9
:101AF000D1F72091BC0024FD03C01092FC0152C01C
:101B00004091B4015091B5016091B6017091B70157
:101B1000452B462B472B69F30097A105B10541F0F2
:101B200025E32A95F1F700000197A109B109E1CF5A
:101B30008091B301C1E0C093B201882399F1D091A3
:101B4000B8001091BA008091BC008A7B8093BC00E1
:101B500060E082E10E94750460E083E10E94750408
:101B60001092FC01C093FE011092FD0161E082E140
:101B70000E94750461E083E10E9475048091B900C0
:101B80008E7F8093B9008091B9008D7F8093B900DA
:101B900088E48093B80085E48093BC001093BA0079
:101BA000D093B800DF91CF911F9108950C948B2FA3
:101BB0001F93CF93DF93EC01172F0E94D60D612F57
:101BC000CE010196DF91CF911F910C94D60DEF922B
:101BD000FF920F931F93CF93DF9380910F018A3071
:101BE000C9F4909110019330A9F49091E1049230DE
:101BF0001CF091E09093E1049091E1049F3F1CF46C
:101C00009FEF9093E104909111012091E104920FD4
:101C1000909311019091110197FF03C09CE0909364
:101C20001101909111019D3014F0109211019091C9
:101C30001101913009F0B1C0EFEFE80FE73090F4F7
:101C4000863010F0E1E0E80F20911001223009F415
:101C500097C0233009F49DC0F0E0EE5FFA4F2130C9
:101C600009F491C08A3009F0BAC0909312018091B2
:101C70001001813009F47CC0823009F0B0C080913D
:101C80006E0580936D056EE18AEC0E94A605C2E0A8
:101C9000D5E088EFE82E84E0F82E0EEE14E089916E
:101CA0000E949005F70181917F010E949005F80143
:101CB00081918F010E949005F5E0CC30DF0779F724
:101CC0000E948A056BE08CEC0E94A60580911A05A3
:101CD0000E949005809119050E9490058091180539
:101CE0000E949005809117050E949005809116052D
:101CF0000E949005809115050E9490058091140521
:101D00000E949005809113050E9490058091110515
:101D1000909112050E949E05809110050E949005E9
:101D20000E948A050AE616E0D0E0C0E0F801619161
:101D30008F01CE010E94D60D2196C534D105B1F791
:101D400000E312E0C5E4D0E0F801619171918F01E8
:101D5000CE010E94D80D2296C135D105A9F762E1C6
:101D600090E080E00E94D60D60E08AEF0E94A60518
:101D7000DF91CF911F910F91FF90EF900C940D0A7E
:101D8000F0E0E850FB4F20813091E104230F2083E5
:101D900069CFF0E0E251FB4FF6CF933039F5209157
:101DA0001001233009F05ECF813059F0823009F004
:101DB00059CF809110059091E104890F809310050F
:101DC0000EC02091E1048091110590911205820FBF
:101DD000911D27FD9A959093120580931105DF912F
:101DE000CF911F910F91FF90EF900895923009F0DD
:101DF00049C020911001233009F034CFEFEFE80FF4
:101E0000E83008F02FCFF0E0E65FF04F2091E104DA
:101E10000C946A32120F180F1E0F240F2A0F300F66
:101E2000360F3C0F30911A05230F20931A051ACF55
:101E300030911905230F2093190514CF30911805FF
:101E4000230F209318050ECF30911705230F2093F1
:101E5000170508CF30911605230F2093160502CFE2
:101E600030911505230F20931505FCCE30911405F4
:101E7000230F20931405F6CE30911305230F2093E2
:101E80001305F0CE953081F520911001233009F033
:101E9000E9CE8230C9F058F4813009F0E3CE809168
:101EA00072069091E104890F8093720698CF833077
:101EB00099F0843009F0D6CE809173069091E104B8
:101EC000890F809373068BCF809174069091E10403
:101ED000890F8093740683CF80917C069091E104F2
:101EE000890F80937C067BCF963009F0B4C0209197
:101EF0001001233009F0B6CE823049F08330B1F0C2
:101F0000813009F0AFCE8FE080933E0668CF2091FC
:101F1000E1048091360290913702820F911D27FDD6
:101F20009A95909337028093360259CF2091E1041D
:101F30008091340290913502820F911D27FD9A9570
:101F400090933502809334024ACF209110012330C0
:101F500009F088CE813091F0823009F083CE209153
:101F6000E1048091300290913102820F911D27FD92
:101F70009A95909331028093300231CF2091E10401
:101F80008091320290913302820F911D27FD9A9524
:101F9000909333028093320222CF2091100123309C
:101FA00009F060CE813009F05DCE80918706909176
:101FB000E104890F8093870612CF2091100123300E
:101FC00009F050CE813059F0823009F04BCE81E0DB
:101FD00090917D06911180E080937D0600CF8AE08C
:101FE00080933F06FCCE809192069091E104890F88
:101FF00080939206F4CE809193069091E104890F2C
:1020000080939306ECCE809194069091E104890F21
:1020100080939406E4CE809195069091E104890F17
:1020200080939506DCCE80917E069091E104890F25
:1020300080937E06D4CE80917F069091E104890F33
:1020400080937F06CCCE81E090917A06911180E05A
:1020500080937A06C4CE973009F477CF983009F48C
:102060009CCF993009F4A9CF9A3009F0FBCD20918B
:102070001001233009F0F6CDEFEFE80FE73008F05C
:10208000F1CDF0E0EA5BFF4E0C946A32F30FFB0FE8
:1020900003100B1013101B102310CF92DF92EF923E
:1020A000FF920F931F93CF93DF9390E080E00E9405
:1020B000832F823109F438C0D0E0C0E0FE01E65839
:1020C000FB4F6491CE010E94D60D2196C534D105F7
:1020D000A9F7C5E4D0E0FE01E75DFB4F659174917F
:1020E000CE010E94D80D2296C135D105A1F78CED05
:1020F000E82E84E0F82E00E014E0CE0180509440F9
:102100006C01F80165917491C601800F911F0E94C6
:10211000D80D0E5F1F4FE016F10699F7C259DF4F39
:10212000CB3991E0D90739F7DF91CF911F910F910A
:10213000FF90EF90DF90CF9008952F923F924F92B3
:102140005F926F927F928F929F92AF92BF92CF9247
:10215000DF92EF92FF920F931F93CF93DF9300D004
:10216000CDB7DEB783EC96E00E94C603892BB1F1B0
:10217000FCE24F2E55245394612C712CA8EE8A2E2C
:10218000A3E09A2EA12CB12CB4E02B2E312C83ECA1
:1021900096E00E94A4038C01809150069091510614
:1021A0000196909351068093500680913606909147
:1021B0003706009741F581E090E0043211F090E09D
:1021C00080E0909337068093360681E08093350651
:1021D00083EC96E00E94C603892BC9F60F900F90FE
:1021E000DF91CF911F910F91FF90EF90DF90CF90F3
:1021F000BF90AF909F908F907F906F905F904F9027
:102200003F902F9008958130910571F40D3429F09D
:102210001092370610923606DBCF82E090E0909362
:10222000370680933606D4CF8230910539F483E0A7
:1022300090E00E33A1F390E080E0F1CF8330910580
:10224000C9F43092370620923606C8019927909338
:10225000340680933306053620F01092370610922C
:1022600036061092320640913506602F80E00E94BB
:102270007805AECF84309105B1F4C80199279093C9
:1022800031068093300625E030E030933706209306
:10229000360640913506602F809132060E947805FF
:1022A00010922F0695CF059709F092CFD0902F0668
:1022B00080913206ED2CF12C40913306509134067A
:1022C000E416F50609F0D0C50813A2CF80914E069A
:1022D00090914F06019690934F0680934E06109270
:1022E000CA0585E0809348068091300690913106BA
:1022F0008C3D910509F0E6C0E8980E94CA05182FA8
:102300008EEF80934A061930B1F50E94CA05182F46
:102310000E94CA05E12FE80FFF27FF1FF093C905B0
:10232000E093C8050E94CA058093C7056FE18CED54
:102330000E94A60589E00E949005EAE0FE2E009129
:10234000C8051091C905C8010E94832FE82E80930B
:10235000C705C8010E949E058E2D0E9490050F5F43
:102360001F4F1093C9050093C805FA94F110E7CFE9
:102370000E948A05A7C0183009F03FC07AE0F72E06
:102380000E94CA05082F0E94CA0590E0982F88274E
:10239000080F192F111D1093C9050093C8050E943D
:1023A000CA058093C705682FC8010E94D60D009109
:1023B000C8051091C9050A39F1E01F0711F40E9400
:1023C000560CFA94F110DCCF0F5F1F4F1093C90524
:1023D0000093C80562E190E080E00E94D60D63E0C2
:1023E0008CED0E94A60589E00E9490058091C805A9
:1023F0009091C9050E949E05BBCF1B30E9F58FEF78
:1024000080934B066BE08CED0E94A60587E00E944E
:1024100090055DEBE52E55E0F52EF7018191919148
:102420007F010E949E0527EC35E02E153F05A9F798
:102430000E948A056DE08CED0E94A6058AE00E944C
:10244000900587E090E00E949E0581E090E00E9468
:102450009E0580ED97E00E949E0581E090E00E943D
:102460009E0590E080E00E949E0581E090E00E9441
:102470009E050E948A0502C0173009F2133009F048
:102480009EC08091B60581110BC08091B505811168
:1024900007C08091BB05811103C081E08093BB051B
:1024A000809133069091340685309105D9F50E94CC
:1024B000D50580329D4131F40E94CA058093BC0548
:1024C0000E94CA058091300690913106863B9105A5
:1024D00009F0B4C08091B60581119ACE8091BB05F8
:1024E000811196CE8091B50581110E940D0A0E943E
:1024F00018056093B1057093B2058093B30590936E
:10250000B40511E01093B0050E94CA05823009F4A9
:1025100066C0833009F46AC0813009F079CE109228
:10252000B00576CEC89771F6D09002065E98E0901E
:10253000B80560E4E11001C060E080E00E94170788
:102540006D2D89E00E9417070CEC15E0F12C6F2D22
:102550008AE00E941707F80161918F018BE00E94C9
:102560001707F394F6E3FF12F2CF60EA88E00E94C7
:10257000170780EA0E94110785FDFBCF6CE4E1108C
:1025800001C06CE080E00E9417075E9A64E170E091
:1025900080E090E00E94E6042FEFD21205C00E9476
:1025A000F50C1092BB058ECF63E08CED0E94A60562
:1025B00083E00E9490058091BC0590E01BCF16300F
:1025C00059F460E090E080E00E94D60D0E944D102A
:1025D00081E08093B70576CF1530D1F373CF109398
:1025E000AF05F8940E941F07789412CE0E94CA0586
:1025F000E82E0E94CA05D82E0E94CA053EE1E39E3D
:102600007001112405E010E08091330690913406AA
:102610008017910708F4FCCD0E94CA05898388239E
:1026200009F4F6CD1A82B7016D0D711DCE01019628
:102630000E946C06D3940F5F1F4FE6CF8330910545
:1026400009F0A3C00E94CA058093AC050E94CA0588
:102650008093AD050E94CA058093AE0500913006B7
:10266000109131060A36110509F054C20E94CA05BC
:10267000882319F081E080934A050E94CA0580935F
:1026800049050E94E30560934505709346058093D4
:102690004705909348050E94E305609341057093B8
:1026A000420580934305909344050E94D505B0E010
:1026B000A0E02091B605211108C0809339059093C0
:1026C0003A05A0933B05B0933C05409139055091E4
:1026D0003A0560913B0570913C05841B950BA60B58
:1026E000B70B80933D0590933E05A0933F05B093B3
:1026F00040050E94D5059093380580933705909347
:102700003605809335050E94D5050F36110509F071
:1027100016C20E94CA0580931A050E94CA058093BA
:1027200019050E94CA05809318050E94CA05809366
:1027300017050E94CA05809316050E94CA0580935A
:1027400015050E94CA05809314050E94CA0580934E
:1027500013050E94D50590931205809311050E94E0
:10276000CA058093100580910C0590910D05A091EC
:102770000E05B0910F059D7F80930C0590930D057C
:10278000A0930E05B0930F0543CD8536910599F5BD
:102790000E94D5050E94D5050E94D5059093AB05F2
:1027A0008093AA050E94E3056093A6057093A70590
:1027B0008093A8059093A90520916F05022F10E042
:1027C00030E020E0DC01CB0180239123A223B3235E
:1027D00021E0892B8A2B8B2B09F420E02093B6056E
:1027E0000E94CA0580936E059091B505911149C369
:1027F00080936D0533CF8936910509F02FCF01E025
:1028000010E00E94D5059801220F331FF901E55B06
:10281000FA4F9183808380819181883E934008F4B0
:102820009FC080819181813D974008F09CC080814C
:102830009181255B3A4FF901918380830F5F1F4F90
:1028400009301105F1F680914F05909150058531C1
:10285000954008F48BC080914F0590915005843AC3
:10286000964008F083C080914D0590914E058531CA
:10287000954008F47BC080914D0590914E05843AB7
:10288000964008F073C080915105909152058531B2
:10289000954008F46BC08091510590915205843A9F
:1028A000964008F063C01092EC048092E804909285
:1028B000E904A092EA04B092EB048091EC04811147
:1028C000E0C220914F05309150058091B5052B3322
:1028D000374078F020915105309152052B33374025
:1028E00040F020915305309154052F37344008F0C3
:1028F00068C0882309F4B2CE1091E1041092E1047B
:102900008091E004882381F08091530590915405D3
:102910008134964020F480916206811105C082E0E6
:102920008093EC040E940D0A8091B505882309F478
:10293000A1C020914D0530914E052B33374008F44E
:1029400063C081E08093EC04809110018F5F8093DD
:102950001001843008F4B2C083E0809310014EC0AF
:1029600088EE93E066CF80ED97E063CF8091EC0432
:10297000813009F0A2CF0E9418050091E404109163
:10298000E5042091E6043091E704601B710B820B93
:10299000930B0091E8041091E9042091EA0430912E
:1029A000EB04061717072807390710F41092EC04F8
:1029B0004092E8045092E9046092EA047092EB04B9
:1029C0007CCF81114BCE8091E2049091E304069775
:1029D00008F444CE8091B605811140CE8091B005B7
:1029E00081113CCE82E08093EC0481E08093B505B8
:1029F00080911201809311010E9472098091EC0470
:102A0000813009F02BCE5AC020914D0530914E05F2
:102A10002E37344068F491E09093EC0480911001DB
:102A2000815080931001811149C090931001E6CF2D
:102A300020914F05309150052B333740A0F091E0A5
:102A40009093EC0480910F01815080930F018111CC
:102A500002C090930F018091110181112FC08AE073
:102A600080930F01CBCF20914F05309150052E3729
:102A70003440D0F09091E0049111C0CF882309F444
:102A8000BDCF163034F115E080915105909152057B
:102A90008E37944010F581E08093EC041150109330
:102AA000E1040E94E70DAACF81E08093EC048091BD
:102AB0000F018F5F80930F018B3088F60E941805FD
:102AC0006093E4047093E5048093E6049093E70434
:102AD000C5CD1B3FCCF61BEFD7CF80915105909110
:102AE00052058B33974008F489CF81E08093EC0442
:102AF0001F5F1093E104809111018A3091F680915B
:102B00001001833071F680910F01853051F61092DB
:102B10003F06C7CF0B361105E9F50E94D505B0E099
:102B2000A0E08093310590933205A0933305B093D4
:102B300034050E94D5059093300580932F0500370A
:102B4000110509F042C002E015E028EFC22E24E092
:102B5000D22E3EEEE32E34E0F32E0E94CA05F80199
:102B600081938F010E94CA05F60181936F010E9433
:102B7000CA05F70181937F01F5E00C301F0769F763
:102B800080910C0590910D05A0910E05B0910F0557
:102B90009B7FF2CD0C36110509F077C10E94D50557
:102BA00090932C0580932B050E94D50590932E05BC
:102BB00080932D050E94D505843B910514F088561D
:102BC000914090932A05809329050B33110509F054
:102BD00070C10E94CA058093ED0480910C0590910C
:102BE0000D05A0910E05B0910F05AB7FC5CD0E363A
:102BF000110509F08ACD0E94CA0590E09093220544
:102C0000809321050E94D5059093200580931F0590
:102C10000E94D50590931E0580931D050E94D50541
:102C200090931C0580931B05809177068111F0CA53
:102C30001092200510921F05EBCA853009F46CC074
:102C4000883009F47EC0833009F058C18091720544
:102C500090917305A0917405B09175058C299D29FB
:102C6000AE29BF298093720590937305A0937405D4
:102C7000B093750543C1833109F4B7C0E8F48C30D3
:102C800009F49EC008F487C0803109F037C18091F3
:102C90009A0590919B05A0919C05B0919D058C296A
:102CA0009D29AE29BF2980939A0590939B05A093F7
:102CB0009C05B0939D0522C18C3109F4ABC08E37C1
:102CC00009F4BDC08B3109F019C180918A0590913A
:102CD0008B05A0918C05B0918D058C299D29AE297D
:102CE000BF2980938A0590938B05A0938C05B093A0
:102CF0008D0504C180916F058C2980936F05FEC0FE
:102D0000809170058C2980937005F8C080917105C1
:102D10008C2980937105F2C080917605909177059A
:102D2000A0917805B09179058C299D29AE29BF29FC
:102D30008093760590937705A0937805B0937905F5
:102D4000DDC080917A0590917B05A0917C05B091C2
:102D50007D058C299D29AE29BF2980937A05909302
:102D60007B05A0937C05B0937D05C8C080917E054E
:102D700090917F05A0918005B09181058C299D29B6
:102D8000AE29BF2980937E0590937F05A09380058F
:102D9000B0938105B3C08091820590918305A09185
:102DA0008405B09185058C299D29AE29BF29809382
:102DB000820590938305A0938405B09385059EC0FA
:102DC0008091860590918705A0918805B09189052D
:102DD0008C299D29AE29BF2980938605909387056C
:102DE000A0938805B093890589C08091960590913C
:102DF0009705A0919805B09199058C299D29AE2938
:102E0000BF298093960590939705A0939805B0935A
:102E1000990574C080918E0590918F05A0919005C1
:102E2000B09191058C299D29AE29BF2980938E05EB
:102E300090938F05A0939005B09391055FC080910A
:102E40009E0590919F05A091A005B091A1058C29A8
:102E50009D29AE29BF2980939E0590939F05A0933D
:102E6000A005B093A1054AC040913506602F0E948D
:102E70007805D394D0922F06F701E553FA4F0083DB
:102E8000A7C900913006109131060D36110509F0E1
:102E9000AECE0E94E30560932505709326058093CE
:102EA0002705909328050E94D505909324058093CB
:102EB00023050737110509F0ABC91091330687E3E5
:102EC000EFE6F5E011928A95E9F7C12CD12C760155
:102ED000C394112309F49CC90E94CA058A3009F4DD
:102EE00045CF08F0C8CE823009F410CF08F0A5CE47
:102EF000882309F4FFCE813009F402CFCC0CDD1C0D
:102F0000EE1CFF1C1150E5CFCF92DF92EF92FF92A3
:102F10000F931F93CF93DF93EA01122F60312EE0BE
:102F200072078105910540F02CE330E040E050E06D
:102F30000E94C32FCA01B9012CE330E040E050E009
:102F40000E94C32F022F6B01112351F01093AF0683
:102F50001092B006BE018FEA96E00E946C062196A0
:102F600020E042E06FEA76E0802F90E00E941606B3
:102F70008AE38093B10620E042E062EB76E0C6018E
:102F80000E9416061092B406EFEAF6E080E39191F3
:102F9000903219F4DF0111978C9396E0E93BF90721
:102FA000B1F7BE018FEA96E0DF91CF911F910F91AB
:102FB000FF90EF90DF90CF900C946C06CF92DF9251
:102FC000EF92FF92CF93CDE0C81BE82FF0E0E455DD
:102FD000F94F8081811179C08091B60581117FC040
:102FE000C090B804D090B904F12CE12C81E0E0E06D
:102FF00090E1C9169EE0D906E104F1040CF44BC03F
:10300000EF5F833009F047C0C090CA04D090CB0472
:10301000E090CC04F090CD0420E030E048EC52E4A5
:10302000C701B6010E94C03118160CF072C020E032
:1030300030E044EB53E4C701B6010E9466306B01F7
:103040007C0160917E0684E6689FB0011124072E02
:10305000000C880B990B0E941031A70196010E9469
:10306000F42F0E94D83020910D0130910E0150E0D4
:1030700040E097FF03C060E070E0CB010E94323275
:103080000E940E31A70196010E9466300E94D8303E
:103090006B017C01E4E0AC2FB0E0AA0FBB1FAF5B7B
:1030A000BB4F4D915C91411592E05907B8F1F0E0AA
:1030B000E45EFE4F51702081C701B601CF91FF90B1
:1030C000EF90DF90CF900C948417813009F488CF73
:1030D000C12CD12C7601E0E0823009F092CF8091B2
:1030E0000D0190910E016C01F12CE12C20919506BF
:1030F000222361F06CE370E00E944232261717062B
:1031000009F020F480913A06811108C082E0E2E0E3
:103110006FCFE4E0C12CD12C7601BDCFCF91FF90D1
:10312000EF90DF90CF9008951F920F920FB60F92FD
:1031300011242F933F934F935F936F937F938F93BC
:103140009F93AF93BF93EF93FF9383EC96E00E941E
:10315000E603FF91EF91BF91AF919F918F917F9186
:103160006F915F914F913F912F910F900FBE0F90F4
:103170001F9018951F920F920FB60F9211242F9344
:103180008F939F93EF93FF93E091D306F091D40632
:103190008081E091D906F091DA0682FD1BC0908112
:1031A0008091DC068F5F8F732091DD06821741F0DE
:1031B000E091DC06F0E0ED53F94F958F8093DC064B
:1031C000FF91EF919F918F912F910F900FBE0F90D4
:1031D0001F9018958081F4CF1F920F920FB60F9217
:1031E00011242F933F938F939F93AF93BF9380911D
:1031F000230290912402A0912502B09126023091E1
:10320000220223E0230F2D3758F50196A11DB11D91
:10321000209322028093230290932402A0932502FC
:10322000B09326028091270290912802A091290252
:10323000B0912A020196A11DB11D8093270290939F
:103240002802A0932902B0932A02BF91AF919F91C7
:103250008F913F912F910F900FBE0F901F90189557
:1032600026E8230F0296A11DB11DD2CF1F920F9207
:103270000FB60F9211242F933F934F935F936F9349
:103280007F938F939F93AF93BF93EF93FF9380911F
:10329000B900887F803609F44AC0F0F5883209F415
:1032A000A5C018F5803109F499C0B8F4882309F451
:1032B000F5C0883009F492C0FF91EF91BF91AF91B2
:1032C0009F918F917F916F915F914F913F912F913E
:1032D0000F900FBE0F901F901895883109F486C08B
:1032E000803251F78093FB0114C0803409F49BC0F5
:1032F00040F48033B9F38833F9F68093FB0185EC11
:10330000AEC0803509F483C0883509F494C0883490
:1033100099F60E94610DD0CF883909F48AC038F53A
:10332000883729F050F4883611F0803729F683E089
:103330008093FC011092FA0155C0883809F479C0D5
:10334000803919F0803809F0B7CF8091FA018032C6
:1033500008F06FC0E091FA0181E08E0F8093FA01CE
:103360008091BB00F0E0E652FE4F80833BC0803B83
:1033700039F0D0F4803A09F477C0883A09F09CCF4C
:1033800084E08093FC011092D9011092D801F0E002
:10339000E0E009958091D80181110FC081E0809310
:1033A000D8011092B80109C0803C09F4A8CF883C2C
:1033B00009F4A5CF883B09F07FCFE091D90181E0E6
:1033C0008E0F8093D901F0E0E854FE4F8081809306
:1033D000BB009091D9018091D80129C08091210230
:1033E0008093BB0085EC8093BC0066CF9091200257
:1033F00080911F02981758F5E091200281E08E0F0E
:1034000080932002F0E0E150FE4F8081E9CFE0910F
:10341000200281E08E0F809320028091BB00F0E0BB
:10342000E150FE4F80839091200280911F029817F7
:10343000C8F285E8D8CFE091200281E08E0F80931A
:1034400020028091BB00F0E0E150FE4F808380912C
:10345000FE0181115ECF81E08093FD0184EA8093BB
:10346000BC001092FC0128CF85EC8093BC00109228
:10347000FC018091FA01803230F4E091FA01F0E031
:10348000E652FE4F10826091FA0170E08AED91E001
:10349000F0E0E0E009951092FA010ECF1092FB01E6
:1034A00038CF1F920F920FB60F9211242F933F9394
:1034B0004F935F936F937F938F939F93AF93BF933C
:1034C000EF93FF938091AF018F5F8093AF01809165
:1034D000AF01843020F01092AF010E941F07FF91CE
:1034E000EF91BF91AF919F918F917F916F915F917C
:1034F0004F913F912F910F900FBE0F901F901895F5
:103500001F920F920FB60F9211242F933F934F9358
:103510005F936F937F938F939F93AF93BF93EF933B
:10352000FF930E94C10446B178942091AD0130917F
:10353000AE01FB01E21BF30B9F0143FF2DC0709313
:10354000AE016093AD0181E0293BFBE03F0788F4C9
:103550008091A206882379F080910101893040F49E
:10356000E82FF0E0EE0FFF1FE55BFA4F3183208379
:103570008F5F80930101FF91EF91BF91AF919F9178
:103580008F917F916F915F914F913F912F910F900C
:103590000FBE0F901F9018958091A2068111EBCF5E
:1035A000CF01855893408534954028F7F093AC01BE
:1035B000E093AB01E0CFE3ECF6E01382128288EEF9
:1035C00093E0A0E0B0E084839583A683B78383E390
:1035D00091E09183808385EC90E09587848784ECEB
:1035E00090E09787868780EC90E0918B808B81ECD0
:1035F00090E0938B828B82EC90E0958B848B86ECB1
:1036000090E0978B868B118E128E138E148E0895F8
:10361000CF93DF93CDB7DEB7E9970FB6F894DEBF4F
:103620000FBECDBF789484B5826084BD84B58160BF
:1036300084BD85B5826085BD85B5816085BD80917D
:103640006E00816080936E001092810080918100F5
:1036500082608093810080918100816080938100ED
:10366000809180008160809380008091B1008460AF
:103670008093B1008091B00081608093B000809110
:103680007A00846080937A0080917A0082608093CF
:103690007A0080917A00816080937A0080917A002C
:1036A000806880937A001092C100E0916007F091E9
:1036B0006107309711F4E4E6F7E085EA28E0EF3F90
:1036C000F20709F010F48193F9CF84B714BE80910A
:1036D000600088618093600010926000E091D306E2
:1036E000F091D40682E08083E091CF06F091D0067D
:1036F0001082E091D106F091D20690E19083109271
:10370000DB06E091D706F091D80686E08083E09151
:10371000D506F091D606808180618083E091D50640
:10372000F091D606808188608083E091D506F09183
:10373000D606808180688083E091D506F091D60618
:1037400080818F7D80838091C00082608093C000E3
:103750001092C5009093C40084B18C6284B92498FF
:10376000569A529881E10E94400385E00E944003EE
:10377000579A0E944D100E94560C68EE73E080E04C
:1037800090E00E94E60483E080934A060E94F50CD4
:103790000E94720983EC96E00E94550490E080E05C
:1037A00028EE33E0FC01EE0FFF1FE55BFA4F31839B
:1037B0002083019681319105A9F76AE0662E712C6C
:1037C0000E949D108091BB058111FACF1092DD04FB
:1037D0001092DC0480914C0690914D0601969093D6
:1037E0004D0680934C063091B70539AF332361F015
:1037F00084B7877F84BF8091600088658093600074
:1038000081E480936000FFCF8091960590919705A9
:10381000A0919805B09199054091A6055091A705F2
:103820006091A8057091A90584239523A623B72349
:10383000892B8A2B8B2B09F434C181E08093DB0424
:103840001091DB048091DA0418130E94560C109337
:10385000DA0480913A06882309F426C15F9A0E940F
:1038600018054B015C018091D6049091D704A0917A
:10387000D804B091D904B501A401481B590B6A0BB7
:103880007B0B443651056105710508F487C08C59DE
:103890009F4FAF4FBF4F8093D6049093D704A09310
:1038A000D804B093D904809138068F5F809338068E
:1038B000809139068F5F8093390681E090913B06B5
:1038C000911180E080933B0680914A05882309F49A
:1038D0003FC08091B6058823D9F16091370570917A
:1038E0003805072E000C880B990B0E941031C090F0
:1038F000D204D090D304E090D404F090D504209169
:103900008306222309F4D2C021EB32E047E55BE3D2
:103910000E94C531A70196010E94F52F6093D20441
:103920007093D3048093D4049093D5046091D2040F
:103930007091D3048091D4049091D5040E94DF301B
:103940006093CE047093CF048093D0049093D104FD
:103950002091C6043091C7044091C8045091C90415
:103960006091CA047091CB048091CC049091CD04F5
:103970000E94F52F6093CA047093CB048093CC040B
:103980009093CD048091B005811108C080914A06C2
:10399000811104C060E08CE60E94A6058091C204FB
:1039A0009091C304A091C404B091C504B501A401D1
:1039B000481B590B6A0B7B0B4E3151056105710594
:1039C00008F450C14E96A11DB11D8093C20490937E
:1039D000C304A093C404B093C5048091BE04909125
:1039E000BF04A091C004B091C104892B8A2B8B2BFA
:1039F00081F480910C0590910D05A0910E05B09178
:103A00000F058093BE049093BF04A093C004B093AD
:103A1000C1040091BE041091BF042091C0043091F4
:103A2000C10488279927DC01801B910BA20BB30BE3
:103A300080239123A223B323AC01BD01409550956F
:103A40006095709540235123622373234093BE04F5
:103A50005093BF046093C0047093C104811542E089
:103A60009407A105B10509F4EDC1D0F580329105A7
:103A7000A105B10509F4DAC1F0F488309105A1057A
:103A8000B10509F4CDC180319105A105B10509F455
:103A9000D0C10297A105B10509F050C085E690E0BC
:103AA0004FC01092DB04CCCE5F98D9CE2FE632E126
:103AB00043E85AE32DCF80389105A105B10509F4FB
:103AC000B2C1811561E09607A105B10509F4B4C141
:103AD00080349105A105B10589F58CE690E030C0F0
:103AE000009771E0A707B10509F4A9C1B0F48115E9
:103AF000F8E09F07A105B10509F4AAC1811520E1ED
:103B00009207A105B10509F4A6C181159440A1054C
:103B1000B105A1F480E790E013C0009740E8A40746
:103B2000B10509F49BC10097A10551E0B50709F45F
:103B300074C10097A440B10509F487C190E080E00A
:103B40000091B00501111CC0009719F060E00E94BF
:103B5000A6050E941805AB01BC018091BA049091A2
:103B6000BB04A091BC04B091BD04805B9F4FAF4FDC
:103B7000BF4F84179507A607B70710F40E941F07C9
:103B80000E9452078091E2049091E304039708F0A9
:103B900068C18091AF0581115CC059EDE52E54E0FC
:103BA000F52E00E410E0F70185919491B8010E9490
:103BB000610672E0E70EF11C025E1F4F0E3481E0D9
:103BC000180789F788EF90E00E947606E091B90522
:103BD000F0E0EE0FFF1FED52FB4F8591949166E1EF
:103BE00071E00E9461068091AC054AE06FEA76E0E0
:103BF00090E00E944E2F0E940B06E82FF0E0E15566
:103C0000F94F1EE210838F5F682F70E06155794F86
:103C10008091AD054AE090E00E944E2F0E940B0675
:103C2000E82FF0E0E155F94F10838F5F682F70E0C7
:103C30006155794F8091AD054AE090E00E944E2F8A
:103C400064E371E08FEA96E00E946C0681E0809365
:103C5000AF058091B8049091B904CC9790933D063C
:103C600080933C0680913906853048F010923906E1
:103C700081E090913A06911180E080933A060E948B
:103C80001805AB01BC018091440690914506A091B6
:103C90004606B091470688519C4FAF4FBF4F8417DF
:103CA0009507A607B70708F0ABC02091640622234A
:103CB00019F02150209364068093440690934506A2
:103CC000A0934606B09347061092380680914C06A2
:103CD00090914D069093B7048093B60410924D06D0
:103CE00010924C0680914E0690914F069093B50429
:103CF0008093B40410924F0610924E0680915006A5
:103D0000909151069093B3048093B204109251069F
:103D1000109250068091B8049091B9040196909346
:103D2000B9048093B8041091AF051092AF055E9866
:103D300080EA0E9411078FEF0E94110782FD02C0E6
:103D4000877089AF5E9A8091AF04E9AD8E1711F448
:103D50000C942F2F0E94F50C80916206882319F095
:103D600081508093620680914806882319F0815023
:103D70008093480680914A06882319F081508093E9
:103D80004A068091B6058823B1F080910D0190918B
:103D90000E01019690930E0180930D018091B00465
:103DA0009091B10401969093B1048093B004109265
:103DB000B5050E9472098091E2049091E304019696
:103DC0009093E3048093E20480913F06813051F4A4
:103DD0008091B505882331F060E08EEC0E94A60545
:103DE00010923F0680913F06882319F081508093FE
:103DF0003F0680913E06882319F0815080933E064D
:103E000080E090E0892B09F4DBCC0E94D203882368
:103E100009F4D3CC0E940000D0CC83E090E090CE97
:103E200089E690E08DCE8AE690E08ACE8BE690E03F
:103E300087CE8DE690E084CE8EE690E081CE82E75C
:103E400090E07ECE8FE690E07BCE8BE390E078CE64
:103E500087E790E075CE8CED90E072CE88E390E03D
:103E60006FCEF090B605FF2069F081E08093E0040A
:103E70008AE0809362068091B50511E08130A1F45B
:103E80000E940D0A1091E004112371F0F1100CC092
:103E9000109211018AE080930F0181E0809310015C
:103EA0008093B5050E947209F090B505FF2009F4D2
:103EB00004C60E9472098091AF058111D3CE009192
:103EC0001101E02FEE0FFF0BE159FA4F859194910C
:103ED00063E270E00E9461066BE671E08AE695E0BD
:103EE0000E94610611110CC061E771E080E695E067
:103EF0000E9461066BE771E089E595E00E9461062A
:103F00000111B9C083E10E94FB05811104C0109228
:103F100008011092070121E030E040E050E02983E1
:103F20003A834B835C838091CE049091CF04A0911F
:103F3000D004B091D1048D839E83AF83B8878091E4
:103F4000400290914102A0914202B09143028987C0
:103F50009A87AB87BC8780913C0290913D02092EE5
:103F6000000CAA0BBB0B8D879E87AF87B88B809107
:103F70003F0490914004B0E0A0E0898B9A8BAB8B1A
:103F8000BC8B20E030E044EB53E46091CA047091B4
:103F9000CB048091CC049091CD040E9466300E94A5
:103FA000DF306D8B7E8B8F8B988F80914402909148
:103FB0004502B0E0A0E0898F9A8FAB8FBC8F8091D3
:103FC000090190910A01B0E0A0E08D8F9E8FAF8F24
:103FD000B8A38091070190910801092E000CAA0B4B
:103FE000BB0B89A39AA3ABA3BCA3AE014F5F5F4FEA
:103FF0005A0127E4C22E25E0D22E1AEF0FEF3EE140
:10400000932ED5012D903D904D905D905D01211432
:10401000310441045104F1F00F5F099D7001112436
:10402000F60185919491B701635A7F4F0E94610612
:10403000BEE6EB0EF11C123008F04AC323E044E068
:104040006FEA76E0C1010E941606B7018FEA96E09A
:104050000E946C06E2E0CE0ED11C1F5F133089F681
:104060006091B0047091B10490E080E020E04EE6F1
:1040700050E00E94841780911101813009F068C0DE
:1040800099E3E92E95E0F92E0DE510E0F701859111
:104090009491B8010E946106F2E0EF0EF11C025EFD
:1040A0001F4F0F3221E0120789F700E08EE1C82E82
:1040B000053009F414C3D02E073010F0D02E025072
:1040C0000C9D80011124ED2CF12CF701EE5FFA4FCD
:1040D00080814AE06FEA76E090E00E944E2FB801BE
:1040E0006B597F4F0E946C06F701E850FB4F8081AF
:1040F0004AE06FEA76E090E00E944E2FB8016559E1
:104100007F4F0E946C06F701E251FB4F80814AE02D
:104110006FEA76E090E00E944E2FB8016F587F4F13
:104120000E946C0601E00D0D093011F667E470E0A5
:104130008CE691E00E946C066DE470E081E491E011
:104140000E946C0663E570E083E491E00E946C06D7
:1041500080911101833079F5E0901105F0901205FE
:10416000FEA2EDA20091100510E018A70FA3E5E351
:10417000F5E0859194916DE570E00E9461064AE05A
:104180006FEA76E0C7010E944E2F61E770E00E945F
:104190006C06E7E3F5E0859194916BE770E00E948F
:1041A00061064AE06FEA76E0C8010E944E2F6FE890
:1041B00070E00E946C0680911101823009F04FC0BE
:1041C00080911A0590E09EA38DA38091190590E03F
:1041D00098A78FA38091180590E09AA789A780914E
:1041E000170590E09CA78BA78091160590E09EA7ED
:1041F0008DA78091150590E098AB8FA7809114054D
:1042000090E09AAB89AB8091130590E09CAB8BABAF
:1042100015E2E12E15E0F12E6E0135E2C30ED11C40
:104220000DE510E0F70185919491B8010E946106B7
:104230004AE06FEA76E0D6018D919D916D010E9472
:104240004E2FB8016C5E7F4F0E946C06B2E0EB0E01
:10425000F11C025E1F4F0D34E1E01E0719F780913B
:104260001101853009F075C00E94520787E98093DB
:10427000AF0623E044E060EB76E080914D02909140
:104280004E020E94160619EA1093B4061092B50663
:1042900064E370E08FEA96E00E946C068FEB8093F7
:1042A000AF0623E044E060EB76E080914802909115
:1042B00049020E9416061093B4061092B5066CE2ED
:1042C00070E08FEA96E00E946C06BDE1EB2EB5E04F
:1042D000FB2E0DE510E0F70185919491B8010E9445
:1042E0006106F2E0EF0EF11C025E1F4F053D110565
:1042F00091F7809172064AE06FEA76E090E00E94C2
:104300004E2F61E770E00E946C06809174064AE0CF
:104310006FEA76E090E00E944E2F6FE870E00E9416
:104320006C0680917C064AE06FEA76E090E00E949D
:104330004E2F6DEA70E00E946C06809173064AE091
:104340006FEA76E090E00E944E2F6BEC70E00E94E6
:104350006C0680911101863009F05EC04AE06FEA78
:1043600076E080914602909147020E944E2F0E9473
:104370000B06E82FF0E0E155F94F95E290838F5F4F
:10438000E82FF0E0E155F94F108265E370E08FEA25
:1043900096E00E946C06E7E1F5E0859194916DE569
:1043A00070E00E946106E9E1F5E0859194916BE788
:1043B00070E00E946106EBE1F5E08591949169E976
:1043C00070E00E94610680913E06882309F489C14D
:1043D0004AE06FEA76E090E00E944E2F61E770E0DD
:1043E0000E946C064AE06FEA76E080913602909176
:1043F00037020E944E2F6FE870E00E946C064AE080
:104400006FEA76E080913402909135020E944E2F3F
:104410006DEA70E00E946C0680911101873009F00E
:1044200046C06091C6047091C7048091C804909101
:10443000C9040E94D830CB0123E044E06FEA76E063
:104440000E9416068AE98093B3061092B40664E3CC
:1044500070E08FEA96E00E946C06E3E1F5E085915A
:1044600094916DE570E00E946106E5E1F5E08591CB
:1044700094916BE770E00E9461064AE06FEA76E093
:1044800080913202909133020E944E2F61E770E0DA
:104490000E946C064AE06FEA76E0809130029091CB
:1044A00031020E944E2F6FE870E00E946C068091EE
:1044B00011018830A1F4E1E1F5E0859194916DE579
:1044C00070E00E946106809187064AE06FEA76E01C
:1044D00090E00E944E2F61E770E00E946C06809190
:1044E0001101893061F5EDE0F5E0859194916DE57C
:1044F00070E00E946106EFE0F5E0859194916BE732
:1045000070E00E94610680913F06882309F4EEC0A6
:104510004AE06FEA76E090E00E944E2F61E770E09B
:104520000E946C06E0917D06F0E0EE0FFF1FE55162
:10453000FB4F859194916FE870E00E946106809135
:1045400011018A3009F058C08091920690E09EA334
:104550008DA38091930690E098A78FA380919406F5
:1045600090E09AA789A78091950690E09CA78BA7D9
:1045700080917E0690E09EA78DA780917F0690E0B7
:1045800098AB8FA7EFEFCE2EE4E0DE2E7E0125E282
:10459000E20EF11CB12C0DE510E0F601859194912D
:1045A000B8010E94610636E0B31669F04AE06FEA8E
:1045B00076E0D7018D919C910E944E2FB8016C5EE0
:1045C0007F4F0E946C06B394B2E0CB0ED11C025E0A
:1045D0001F4FE2E0EE0EF11CF7E0BF12DECFE091DC
:1045E0007A06F0E0EE0FFF1FE551FB4F85919491A5
:1045F00065E271E00E946106809111018B3081F5C6
:10460000E0906E05F12CFEA2EDA20091ED0410E009
:1046100018A70FA31AA619A6E9EFF4E085919491C3
:104620006DE570E00E9461064AE06FEA76E0C7013E
:104630000E944E2F61E770E00E946C06EBEFF4E001
:10464000859194916BE770E00E9461064AE06FEA01
:1046500076E0C8010E944E2F6FE870E00E946C0661
:1046600080911101843009F046C06FEEE62E64E0BF
:10467000F62E0DE510E0F70185919491B8010E94A6
:10468000610622E0E20EF11C025E1F4F033F11059E
:1046900091F730910F013A3009F041C1809110013A
:1046A000833009F401C2813009F401C2823009F07B
:1046B00001C280E791E020913B06222329F0815B33
:1046C0009D4F23E0FC01208381E08093AF05CACA9F
:1046D00020E040E0C201B1010E947D0AB6CC07E0B3
:1046E000EDCC61E770E085E491E07ACE61E770E0BF
:1046F00085E491E015CF8C3009F009C163E070E0EA
:1047000087E491E00E946C0661E270E08DE591E043
:104710000E946C060FE310E0EE24E394F12CF70105
:10472000EE0FFF1FE55BFA4F808191814AE06FEA4F
:1047300076E00E944E2FB8018FEA96E00E946C0648
:104740003FEFE31AF30A025E1F4F0F3241E01407F6
:1047500031F766E370E080E691E00E946C063DEB85
:10476000E32E35E0F32E04E510E04AE06FEA76E050
:10477000D7018D919D917D010E944E2FB8018FEA46
:1047800096E00E946C06025E1F4F0A3E110569F713
:1047900008E210E080E3F82E94E4D92E2AE3E22E1A
:1047A00020E047E061EB76E090E080E00E941606B2
:1047B000D092AF06F092B006E092B106B8018FEA4F
:1047C00096E00E946C06F394025E1F4F003A1105BA
:1047D00039F768E071E085E691E00E946C0680910F
:1047E0002E0290912F024AE06FEA76E00E944E2F4F
:1047F00066E271E08FEA96E00E946C0680912C02DE
:1048000090912D024AE06FEA76E00E944E2F64E418
:1048100071E08FEA96E00E946C0660EA70E089E63B
:1048200091E00E946C064AE06FEA76E08091B6045F
:104830009091B7040E944E2F65EA70E08FEA96E0EF
:104840000E946C066EEB70E08EE691E00E946C06B2
:10485000809149054AE06FEA76E090E00E944E2F91
:1048600063EC70E08FEA96E00E946C066AEF70E0FD
:1048700082E791E00E946C068091B6054AE06FEAFB
:1048800076E090E00E944E2F6FEF70E08FEA96E0A6
:104890000E946C0668E171E086E791E00E946C0678
:1048A0004AE06FEA76E08091B4049091B5040E94EA
:1048B0004E2F6DE171E08FEA96E00E946C066CED80
:1048C00070E08AE791E00E946C064AE06FEA76E0C9
:1048D0008091B2049091B3040E944E2F61EE70E07B
:1048E0008FEA96E00E946C0666E371E08AE891E048
:1048F0000E946C060E946D0A4AE06FEA76E00E9410
:104900004E2F6BE371E08FEA96E00E946C06809177
:1049100011018D300CF4BDCE10921101BACE3A3097
:1049200008F0C8C020911101213001F5383019F488
:104930008AE080930F0180910F01893019F487E09C
:1049400080930F0120910F0130E02E5F3F4F4EE129
:10495000429FC001439F900D112420911001B6E0A9
:104960002B9F800D911D11240496A5CE233071F448
:10497000333019F48AE080930F0180910F01893060
:1049800009F066C082E080930F0162C02230E9F432
:10499000393039F480912B028830A9F48AE0809371
:1049A0000F0120910F0120932B0283E080931001CF
:1049B00030E02E5F3F4F4EE1429FC001439F900D7C
:1049C0001124469678CE88E0EACF253071F483E052
:1049D00080931001353019F48AE080930F018091A3
:1049E0000F018930A9F584E0CECF263071F483E041
:1049F00080931001343019F48AE080930F01809184
:104A00000F01893029F583E0BECF90E080E02730A8
:104A100071F483E080931001393019F482E08093BF
:104A20000F0180910F01833099F48AE0ACCF2830D8
:104A300091F4393019F481E080930F0180910F01D6
:104A4000823019F48AE080930F0183E08093100193
:104A500020910F01ADCF2930E1F22A3069F483E0D3
:104A600080931001393019F487E080930F01809111
:104A70000F01883069F7D9CF243039F423E020932F
:104A800010012AE020930F0116CE2B3051F439305B
:104A900019F482E080930F0180910F018330A9F611
:104AA000D1CF2C3059F307CE8AE791E004CE8AE6C5
:104AB00091E001CE90E080E0FECD002321F18091D5
:104AC000B1059091B205A091B305B091B4058053A2
:104AD000984FAF4FBF4F88159905AA05BB0508F041
:104AE000C1C820913E0230913F02EFE4F2E080E243
:104AF000AF014F5452404217530710F48193F8CF3F
:104B00001092B005AFC80E9472098091AF05811163
:104B1000A9C8A0902D05B0902E05C0902B05D0906F
:104B20002C058AEF8093AF06C501FAE0AF16B104F9
:104B30004CF0B3010E945632CB012DE22093B00617
:104B400062E009C066EF7FEF0E945632CB0161E060
:104B50001A141B0494F370E06155794F4AE00E94E7
:104B60004E2F8FE00E94FB05882349F060915F047F
:104B70007091600471708FEA96E00E946C068BEF72
:104B80008093AF06C6012AE0C216D10434F0B30107
:104B90000E945632CB0161E00BC066EF7FEF0E94AE
:104BA0005632CB01D7FEF7CF2DE22093B00662E05C
:104BB00070E06155794F4AE00E944E2F80E10E94DB
:104BC000FB05882349F06091610470916204717063
:104BD0008FEA96E00E946C068091B605811104C0B0
:104BE000109238051092370500913705109138055D
:104BF00080913D0490913E049801215F3F4F28171A
:104C000039070CF03FC10E94180560933904709376
:104C10003A0480933B0490933C0482E080933804F0
:104C200010933E0400933D0480910C01815080312B
:104C300008F426C180930C012090250530902605AC
:104C400040902705509028058091340490913504B8
:104C5000A0913604B0913704B201A1014C5E5F4FC0
:104C60006F4F7F4F481759076A077B070CF02AC11F
:104C70000E941805609330047093310480933204CD
:104C80009093330482E080932F0420923404309276
:104C90003504409236045092370480910B018150C4
:104CA000803108F40DC180930B01809175049091BF
:104CB00076049170892B29F483E180930C01809311
:104CC0000B01009173041091740411703CE7C3163A
:104CD0003CEFD3060CF01CC148EFC41AD40AB194BF
:104CE000A194B10889E10E94FB05882309F49AC0C8
:104CF0008091AA0580FF8BC0C50178E3A7167FEFDE
:104D0000B70614F488E39FEF893C910514F088EC12
:104D100090E01C01AAE02A0E311C37FE04C01C01E1
:104D2000B1E12B0E311CF3E035942794FA95E1F7AD
:104D3000319421943108E090A30640E0A4E04A2E8B
:104D4000512CB9E0AB2EB12C443009F445E0842E4F
:104D5000912CC201881999098C9D90018D9D300D6F
:104D60009C9D300D112437FF02C0215C3F4FE6E0CF
:104D700035952795EA95E1F7220D331D275D3F4FC5
:104D80002235310508F03FC0C901B5010E945632F5
:104D90005EE1569FF001579FF00D1124800E911E89
:104DA000E80DF91DBF016C577109603E91E079076C
:104DB00028F4615B7D4F8058DB018C93EE2019F164
:104DC0008EEF840F8530F8F4CF01865D9109803E27
:104DD000B1E09B0758F4BC01615B7D4F4B01C901F9
:104DE000B5010E9456328058D4018C93B297E03EB0
:104DF000B1E0FB0740F4E15BFD4FC901B5010E9442
:104E00005632805880834F5F493009F09DCFF801BA
:104E1000E15BFD4FDF01119786E28C938CEB818380
:104E20008EE780838AE10E94FB05882309F4DEC0B7
:104E3000C0908906E09076064E2D4195A0910C0118
:104E400050910B010C2C000CDD08C801815B9D4FBB
:104E5000BEE1B8016C197D09E4160CF463C04B0285
:104E600090011124F901E15BFD4FE60FF71FA083CC
:104E7000280F391FF901EC0DFD1D50834F5FECCF5A
:104E800085E1D8CE0F96801791070CF0D5CE0E9401
:104E900018056093390470933A0480933B0490930F
:104EA0003C0481E08093380410933E0400933D0459
:104EB00080910C018F5F863108F4BCCE80E1BACEC0
:104EC00085E1F1CE4496A11DB11D82159305A4057F
:104ED000B5050CF0EACE0E9418056093300470937B
:104EE0003104809332049093330481E080932F0443
:104EF00020923404309235044092360450923704A4
:104F000080910B018F5F863108F4CDCE80E1CBCE4E
:104F100055E8C51653E0D5060CF4E4CE68EFC60E8E
:104F2000D61EDDCEF801EC19FD09E05BFD4F23E054
:104F300020838C0D9D1DFC01319782E080838BE1E5
:104F40000E94FB05882309F451C00E941805AB019B
:104F5000BC018091390490913A04A0913B04B09136
:104F60003C0488519C4FAF4FBF4F481759076A0701
:104F70007B07A0F42E2D3EE12302F00111242091A5
:104F80003804223009F0C7C2A8014E1B5F0BFA019A
:104F9000EC19FD09E15BFD4F89EC80830E94180547
:104FA000AB01BC018091300490913104A091320496
:104FB000B091330488519C4FAF4FBF4F48175907EA
:104FC0006A077B0798F40C0D1D1D5E2D6EE15602DD
:104FD000F001112480912F04823009F0A4C20E1B2D
:104FE0001F0BF801E15BFD4F89EC8083C0904D02FF
:104FF000D0904E028091090190910A01C816D906FD
:1050000020F4D0920A01C092090180916B06882396
:1050100009F48FC220914C02C6016DE270E00E943B
:1050200042326F5F261718F42F5F20934C02809155
:105030004C0290916E06899FC001112490934B02FF
:1050400080934A028091850617E9882369F1E091EF
:105050004C0272E2E79F400111248AE2E89FF001CE
:1050600011249401C814D90438F09F012250310949
:10507000C216D30608F49601B12CA12C50E040E0F2
:10508000281939094A095B09A7E0B0E00E94B82F46
:1050900031979F0150E040E0281939094A095B091E
:1050A0000E94992F16E9121B80914A0290914B029F
:1050B000C816D90620F480913A06811117C001E084
:1050C00029EA412FB60185E190E00E94E90A60914A
:1050D0004C0270E080914D0290914E020E9442324B
:1050E00029EA412F84E390E00E94E90A6091480296
:1050F0007091490280916C068617170629F020F0FE
:1051000080913A06811107C001E029EA4FEB86E160
:1051100090E00E94E90A60914602709147028091F6
:10512000070190910801681779073CF416161706D5
:1051300024F4709308016093070180916D06882321
:1051400041F08617170629F024F080913A06811164
:1051500007C000E025E24AEB83E190E00E94E90A03
:105160008090C6049090C704A090C804B090C90471
:10517000609144027091450290E080E00E940E31FF
:10518000A50194010E94613087FF08C0C501B401E8
:105190000E94DF30709345026093440210917F06B5
:1051A0001123E1F020E030E040E251E4C501B40118
:1051B0000E9466301B012C01612F70E090E080E0BE
:1051C0000E9410319B01AC01C201B1010E94C031AB
:1051D000181624F480913A0681110BC0C501B40160
:1051E0000E94D83001E02AE940E087E190E00E9487
:1051F000E90A10917E06112311F160911F0570914B
:1052000020056115710581F420E030E044EB53E4A2
:105210006091CA047091CB048091CC049091CD042C
:105220000E9466300E94D830A4E61A9FC001112463
:105230008617970724F480913A06811117C020E061
:1052400030E044EB53E46091CA047091CB04809148
:10525000CC049091CD040E9466300E94D83000E0CA
:1052600024EA40E088E190E00E94E90A80E00E94A0
:10527000DE1781E00E94DE178EE00E94FB05882386
:1052800009F4A6C080917A06882309F4A1C0809110
:10529000B605811156C18091DC049091DD048260D5
:1052A0009093DD048093DC0484E080936406209175
:1052B0004D0230914E0280914A0290914B02281784
:1052C000390748F48091DC049091DD048064909368
:1052D000DD048093DC048091AA0583FF0FC08091D8
:1052E000480681110BC08091DC049091DD048F7C15
:1052F000992788609093DD048093DC04A090DC04FF
:10530000B090DD048091DE049091DF04892B21F4BC
:10531000B092DF04A092DE04C090DE04D090DF04DF
:10532000002711270C191D090C211D210E941805A9
:10533000AB01BC018091520690915306A091540696
:10534000B09155068C509E4FAF4FBF4F84179507B5
:10535000A607B707B0F4C114D10449F0C80180957D
:105360009095C822D922D092DF04C092DE040E9418
:1053700018056093520670935306809354069093D9
:105380005506E0E090E080E041E050E09A01082E10
:1053900002C0220F331F0A94E2F720233123232B6C
:1053A00009F0E82F01968930910581F7B2E0AB163C
:1053B000B10470F0F0E0EE0FFF1FE652FA4F859156
:1053C000949160915D0470915E0471700E94610619
:1053D000209153053091540580910401909105016D
:1053E0008217930740F48091530590915405909350
:1053F000050180930401209153053091540580915B
:105400000201909103012817390740F48091530558
:1054100090915405909303018093020180910401BF
:10542000909105018330984030F082E098E09093AD
:105430000501809304018091020190910301863B54
:10544000934030F426EB33E03093030120930201C4
:10545000609153057091540580917D0620E0811183
:1054600022C08090020190900301B12CA12C2091C8
:1054700053053091540550E040E0281939094A0994
:105480005B09A4E6B0E00E94B82F2091040130919E
:10549000050150E040E0281939094A095B090E94DA
:1054A000992FB90125E28091B605811103C020E34F
:1054B00070E060E000E048EC8BE090E00E94E90AD8
:1054C00087E20E94FB05882309F45FC080917B0678
:1054D000823009F057C080913C0690913D062091A2
:1054E000B8043091B904AC01445C5F4F42175307D4
:1054F00008F04BC0805C9F4F8217930720F43093D5
:105500003D0620933C0680918F0490919004917009
:105510000E9476063AC0E00FF11FEC19FD09E15B2D
:10552000FD4F8FEC3ACD015B1D4FE00FF11F8FEC6B
:105530005CCD8091730680934C028091720690E05E
:105540007DCD80916406882399F080913B0681117E
:105550003FCF8091DC049091DD0484609093DD0462
:105560008093DC04809106018150809306019FCED8
:105570008091DC049091DD0481609093DD04809340
:10558000DC0495CE813009F4BECF88E00E94FB0593
:105590008823D9F08091290590912A05880F991FB9
:1055A000880F991F83509D4F6AE570E00E94563224
:1055B00060547A4F8091510490915204917049E067
:1055C00050E0815B9D4F0E943E2F609129057091B4
:1055D0002A0577FF02C068597E4F00E02DEB43EFAC
:1055E00087E090E00E94E90A85E00E94FB0588239D
:1055F00089F020913D0530913E0540913F05509145
:105600004005AAE0B0E00E94B82F2EEB45E050E044
:105610000E94C20B89E00E94FB058823A9F06091DB
:1056200025057091260580912705909128052AE08F
:1056300030E040E050E00E94992FCA01B9012FE309
:1056400049E050E00E94C20B10918306809123052F
:1056500090912405112309F470C0BC01990F880BA7
:10566000990B0E9410312AE13AEF47EA5EE30E946B
:10567000C5310E94D830E12FF0E0EF5DFE4F01E030
:10568000208148EF89E290E00E94E90A8AE00E94C6
:10569000FB05882309F46AC0209155043091560413
:1056A00031700091230510912405902F812F0A3627
:1056B0004FEF140714F49AE68FEF40918006E92F1C
:1056C000F82FE739F10514F0E6E9F0E0642F70E017
:1056D00086E990E00E945632CF010E945632E62EB3
:1056E000FC01D62E53E0459FB001112486E990E0DD
:1056F0000E945632CF010E945632562F40E07EE182
:10570000E42FF0E08D2D0D2C000C990B97FF03C0BA
:10571000919581959109E817F907DCF4479FC0013D
:105720001124101611066CF4F901E81BF90BE15B6A
:10573000FD4F8FE880834F5FE3CFB3010E94563265
:105740009ACF815B9D4FFC01E20FF31F99E8908394
:10575000F2CF552359F0AE2DBEE1AB02201931092D
:105760001124F901E15BFD4F6457608310914905F5
:10577000111104C080913A0681111BC080E00E9483
:10578000FB058823B1F08EE18093AF068FE1809313
:10579000B0064AE061EB76E0812F90E00E944E2F48
:1057A000609141047091420471708FEA96E00E940A
:1057B0006C0681E00E94FB05882351F1209143048F
:1057C0003091440431708091290590912A05845EBE
:1057D0009D4F40912F0550913005841B950B880FEC
:1057E000991F880F991F8D966AE570E00E945632C6
:1057F000CB0160E170E00E945632805A9F4F809347
:10580000AF061092B006B9018FEA96E00E946C06CE
:105810008090310590903205A0903305B09034050A
:1058200080918306882371F0C501B4010E940E3176
:1058300021EA38EF41E550E40E94C5310E94DF3093
:105840004B015C018091400290914102A091420283
:10585000B091430288159905AA05BB0598F48C59A7
:105860009F4FAF4FBF4F88159905AA05BB0510F490
:105870004C015D018092400290924102A09242024E
:10588000B092430282E00E94FB05882341F110910F
:1058900092061123A9F0C501B40124E630E040E0EE
:1058A00050E00E94C32F812F90E0B0E0A0E02817C5
:1058B00039074A075B0720F080913A0681110FC033
:1058C0002AE741E0C501B4010E947D0A60914504C8
:1058D0007091460471708FEA96E00E946C066091A8
:1058E0002F057091300500E02DEB42EF84E090E051
:1058F0000E94E90A01E020E044EF70E060E081E30B
:1059000090E00E94E90A86E30E94FB05882349F0A3
:105910006091AD047091AE0471708DE791E00E94CA
:105920006C068091B605811104C010923805109262
:10593000370545EF63E080913705909138050E9467
:10594000750B46EF6CE280913505909136050E940B
:10595000750BE0918306F0E0ED5DFE4F60913F0432
:105960007091400400E0208147EF8DE290E00E94BA
:10597000E90A81E10E94FB05882301F14091450578
:1059800050914605609147057091480580916304E8
:105990009091640420E091700E9487064091410537
:1059A00050914205609143057091440580916504D2
:1059B0009091660422E091700E9487068EE10E9419
:1059C000FB05882309F442C010917E06E4E61E9F81
:1059D000B0011124072E000C880B990B0E94103186
:1059E0004B015C0120E030E044EB53E46091CA04D9
:1059F0007091CB048091CC049091CD040E946630CC
:105A00009B01AC01C501B4010E94F42F4B015C0164
:105A1000612F70E090E080E00E9410319B01AC01AA
:105A2000C501B4010E9466300E94DF306536710501
:105A30008105910520F064E670E080E090E000E0F0
:105A400025E247E98EE190E00E94E90A809148064C
:105A5000882309F477C18090A6059090A705A090AF
:105A6000A805B090A9058091700590E0B0E0A0E095
:105A700088219921AA21BB21892B8A2B8B2B69F4A0
:105A80008091710590E0B0E0A0E088219921AA21E1
:105A9000BB21892B8A2B8B2B29F080EA8093AF06C0
:105AA000FF24F3948091720590917305A091740581
:105AB000B091750588219921AA21BB21892B8A2BB8
:105AC0008B2B39F0EF2DF0E0E155F94F82EA80831E
:105AD000F3948091760590917705A0917805B09127
