:100000000C94C6020C94CF150C94EE020C94EE02E4
:100010000C94DB150C94EE020C94EE020C94EE02A0
:100020000C94EE020C94EE020C94EE020C94EE0290
:100030000C94EE020C94EE020C94EE020C94EE0280
:100040000C9485150C94EE020C9453150C942D15FC
:100050000C94EE020C94EE020C94EE020C94EE0260
:100060000C94EE020C94EE024E4F5420444554453D
:10007000435445440050414C004E545343004643C2
:100080003A0053493A0049443A00202020202B509E
:10009000495443482046554C4C00202020202B59E1
:1000A0004157205249474854004D454E553A54480F
:1000B0005254204D4944444C4500004D572D4F5358
:1000C00044202D2052312E38004F4E004F4646001E
:1000D000494620535550504F52544544002000206B
:1000E0002020202B50495443482046554C4C00209A
:1000F0002020202B594157204C454654005458206D
:10010000203A54485254204D4944444C45004C4FE9
:100110004F5054494D450050494420434F4E54528E
:100120004F4C4C45520050524F46494C45005445A7
:10013000585420414C41524D5300414D5053004DB5
:10014000414820583130300054494D4552005350F9
:1001500045454400414C544954554445205831309C
:100160000044495354414E434520583130300054E7
:1001700048524F54544C452050574D004D41472054
:1001800043414C004D4150204D4F44450041444AAD
:10019000555354205A45524F0041444A5553542018
:1001A000414D5053005345542052535349204D491B
:1001B0004E005345542052535349204D415800435B
:1001C000414C20525353490043454C4C5300414449
:1001D0004A555354205649440041444A55535420EB
:1001E0004D41494E004D41494E20564F4C545320ED
:1001F000414C41524D005448524F54544C452045B7
:1002000058504F005448524F54544C45204D494487
:100210000054504100594157205241544500504923
:10022000544348205241544500524F4C4C205241B7
:100230005445005243204558504F005243205241EC
:10024000544500594157205243204558504F0054BF
:10025000504120425245414B504F494E54004D4170
:1002600047004C4556454C0047505300414C540004
:1002700059415700504954434800524F4C4C00528A
:10028000535349204D494E00564F4C544147452049
:100290004D494E004D415820414D5053004D41486D
:1002A0002055534544004D41582053504545440086
:1002B0004D415820414C544954554445004D4158F6
:1002C0002044495354414E434500544F542044491F
:1002D0005354414E434500464C592054494D450026
:1002E0002000414456414E43452054554E494E4707
:1002F00000414C41524D5300414456414E43454408
:1003000000444953504C41590043555252454E54B4
:10031000005253534900564F4C5441474500414306
:10032000434553532046432053455454494E475365
:100330000052432054554E494E472032005243202C
:1003400054554E494E470050494420434F4E46496C
:100350004700535441544953544943530020004CDF
:100360004F5720564F4C5453004C4F572053415435
:100370005300204E4F20475053004E4F20444154CD
:1003800041002041524D45440044495341524D459E
:100390004400204D495353494F4E004155544F207E
:1003A000484F4C44004155544F2052544C00464154
:1003B000494C53414645000020C032C034C0B6C04D
:1003C0008F00AD0024C0710028C0CBC0CAC060C17E
:1003D0007E017EC137C12401420102C00FC04CC161
:1003E000F8006AC12E0171C178C1C2C0BBC0BB0098
:1003F000030007005C00550106013EC03400C30045
:1004000064C01001BAC05601DC00E900F200D4005B
:1004100098008000DA0052009E007A0000009600EA
:100420000000FF030002F4010F0100002200080099
:100430000004C800030000010101C800326402008A
:100440000200020100010007000000000000000897
:100450000000001E1E144D574F5344002020202042
:100460000000790075006800BB00BA00A9009A007E
:100470008A00BA00860082007E00CC00C900FD0020
:10048000EF00DF00DD00D000260117010E01610141
:1004900054014E0148013F013A012E017C016F01D8
:1004A000840199018D01BF01B201A501E501D901C6
:1004B000CE01C8013B02330229021E0215021102BD
:1004C0000402F6014F0243027A02740270026C02C7
:1004D000680262025E02D702CA02BD02B002A60230
:1004E0009D02940288027F023C504147453E0053E2
:1004F0004156452B4558495400455849540052032C
:1005000047033D0331031E031603110309030103CF
:10051000F802F102E202E002B703890382037A03E0
:10052000720369035F035D031D1A1D1C1D191D1C49
:100530001D1B1D1C1D181D1C1D1A1D1C1D191D1CFD
:100540001D1B1DB703AE03A5039B03920300000010
:1005500000250028002B0000000000240027002AAE
:10056000000404040404040404020202020202035C
:100570000303030303010204081020408001020466
:1005800008102001020408102000351611241FBE97
:10059000CFEFD8E0DEBFCDBF11E0A0E0B1E0EAEBE5
:1005A000FCE502C005900D92A63DB107D9F727E002
:1005B000A6EDB1E001C01D92A437B207E1F712E049
:1005C000C6ECD2E004C02197FE010E94472EC53C34
:1005D000D107C9F70E9465160C945B2E0C9400009D
:1005E0000000BF92CF92DF92EF92FF920F931F9382
:1005F000CF93DF93C42F97FF08C090958095709597
:1006000061957F4F8F4F9F4FC22F24E630E040E02F
:1006100050E00E94762BCA01B9011092A206C09345
:10062000A106C9E02AE0C22ED12CE12CF12C3EE239
:10063000B32EDFEFDC0F0D2F10E00856194FA70186
:1006400096010E94762B605DF8016083B901CA01B2
:10065000DD2381F0D330D0F461157105810591055A
:10066000D1F4C250EC2FF0E0E756F94F80E28293CC
:10067000D13099F488E996E0DF91CF911F910F91E5
:10068000FF90EF90DF90CF90BF900895D43019F491
:10069000B0929B06D3E0CD2FCCCFD1E0E8CFCF9363
:1006A000DF9390E0FC01EB58FA4F24918F599A4F59
:1006B000FC0184918823C1F090E0880F991FFC0110
:1006C000E95AFA4FC591D491FC01E35BFA4FA59129
:1006D000B4919FB7F8948881E22FE0958E238883A8
:1006E0008C91E823EC939FBFDF91CF910895AF9257
:1006F000BF92CF92DF92EF92FF920F931F93CF930F
:10070000DF936C017B018B01040F151FEB015E0170
:10071000AE18BF08C017D10759F06991D601ED9105
:10072000FC910190F081E02DC6010995892B79F7A4
:10073000C501DF91CF911F910F91FF90EF90DF9056
:10074000CF90BF90AF900895FC01538D448D252F1D
:1007500030E0842F90E0821B930B541710F0CF965B
:10076000089501970895FC01918D828D981761F08D
:10077000A28DAE0FBF2FB11D5D968C91928D9F5FA4
:100780009F73928F90E008958FEF9FEF0895FC0183
:10079000918D828D981731F0828DE80FF11D858D36
:1007A00090E008958FEF9FEF0895FC01918D228DC9
:1007B000892F90E0805C9F4F821B91098F7399274E
:1007C00008958BEA96E00E94D50321E0892B09F475
:1007D00020E0822F089580E090E0892B29F00E948C
:1007E000E10381110C9400000895FC01A48DA80F71
:1007F000B92FB11DA35ABF4F2C91848D90E0019663
:100800008F739927848FA689B7892C93A089B18982
:100810008C91837080648C93938D848D981306C023
:100820000288F389E02D80818F7D80830895EF9287
:10083000FF920F931F93CF93DF93EC0181E0888F9A
:100840009B8D8C8D98131AC0E889F989808185FF6A
:1008500015C09FB7F894EE89FF896083E889F9890C
:1008600080818370806480839FBF81E090E0DF910E
:10087000CF911F910F91FF90EF900895F62E0B8D61
:1008800010E00F5F1F4F0F731127E02E8C8D8E111C
:100890000CC00FB607FCFACFE889F989808185FF83
:1008A000F5CFCE010E94F503F1CFEB8DEC0FFD2FBC
:1008B000F11DE35AFF4FF0829FB7F8940B8FEA893E
:1008C000FB8980818062CFCFCF93DF93EC01888D4D
:1008D0008823B9F0AA89BB89E889F9898C9185FDBB
:1008E00003C0808186FD0DC00FB607FCF7CF8C9149
:1008F00085FFF2CF808185FFEDCFCE010E94F50309
:10090000E9CFDF91CF9108953FB7F89480919C0291
:1009100090919D02A0919E02B0919F0226B5A89B46
:1009200005C02F3F19F00196A11DB11D3FBFBA2F81
:10093000A92F982F8827BC01CD01620F711D811D41
:10094000911D42E0660F771F881F991F4A95D1F7C6
:1009500008958F929F92AF92BF92CF92DF92EF92C3
:10096000FF924B015C010E9484046B017C010E9498
:1009700084046C197D098E099F09683E73408105C6
:100980009105A8F321E0821A9108A108B10888EE28
:10099000C80E83E0D81EE11CF11C81149104A1044F
:1009A000B10429F7FF90EF90DF90CF90BF90AF9008
:1009B0009F908F9008952FB7F8946091980270914E
:1009C000990280919A0290919B022FBF08956091A5
:1009D000DE018BEA96E00C941704CF93C82F682FA2
:1009E0008BEA96E00E9417048091DE018C278093A9
:1009F000DE01CF910895CF93C92F0E94ED048C2F73
:100A0000CF910C94ED04CF93DF93D82FC62F64E2DF
:100A10008BEA96E00E9417046DE48BEA96E00E9450
:100A200017046CE38BEA96E00E9417041092DE0133
:100A30008C2F0E94ED048D2F0E94ED04C11104C083
:100A4000DF91CF910C94E704DF91CF910895E0916D
:100A50002B0281E08E0F80932B02F0E0E45DFD4FCE
:100A600080810895CF93DF930E942705C82FD0E09F
:100A70000E9427059E01382BC901DF91CF9108956F
:100A8000CF92DF92EF92FF920E9432056C01F12C1F
:100A9000E12C0E943205B0E0A0E0772766276C29A0
:100AA0007D298E299F29FF90EF90DF90CF900895A8
:100AB000E82FF0E0EE0FFF1FEC58FA4F2081318154
:100AC0002227307C81E02115304C09F080E0089528
:100AD00080E0E82FF0E0E956F94F9081992311F07A
:100AE0008F5FF7CF0895CF93DF93C82F0E946805DB
:100AF000E82FF0E0E956F94F2091210630E0285C1C
:100B00003E4FC20FD32FD11D988190838F5FE82F66
:100B1000F0E0E956F94F1082DF91CF9108952F92BE
:100B20003F924F925F926F927F928F929F92AF927D
:100B3000BF92CF92DF92EF92FF920F931F93CF93CA
:100B4000DF936B017C018A01D22FC8E0211101C023
:100B5000C5E0F801EC0FF11DC7FDFA95108296E093
:100B6000492E512C612C712C2CE3822E912CA12C1E
:100B7000B12C8FEF8C0F1801280E311C87FD3A9491
:100B8000C701B6012AE030E040E050E00E94A02B0F
:100B9000605DF10160838EEF8C0F1801280E311C0F
:100BA00087FD3A94CA01B901A30192010E94A02BCA
:100BB000605DF1016083C701B601A50194010E9447
:100BC000A02B69017A01C350F801EC0FF11DC7FD9C
:100BD000FA958AE38083D11126C08AE0482E512CF1
:100BE000612C712CC1505801AC0EB11CC7FDBA94D8
:100BF000C701B601A30192010E94A02B605DF5011F
:100C0000608369017A01C114D104E104F10469F43B
:100C100080E2CC2361F0C150F801EC0FF11DC7FD5B
:100C2000FA958083F6CFD0E0A4CFC111DBCFC80105
:100C3000DF91CF911F910F91FF90EF90DF90CF90B8
:100C4000BF90AF909F908F907F906F905F904F90EC
:100C50003F902F900895EF92FF920F931F93CF93A1
:100C6000DF93FB01C0E097FF04C091958195910946
:100C7000C1E0DF01A40FB11D1C92DEE20AE010E02A
:100C8000421306C04150DF01A40FB11DDC9320E0E8
:100C90003FEF340F7F01E30EF11CB8010E94332EA9
:100CA000805DD7018C93CB013323C1F0211114C097
:100CB000009791F4CC2339F03EEF340FDF01A30FFE
:100CC000B11D8DE28C9380E2332341F03150DF017E
:100CD000A30FB11D8C93F8CF432FD2CFCF01DF915B
:100CE000CF911F910F91FF90EF900895DB01A859CC
:100CF000BC4FFC0124910196222311F02D93F9CFD2
:100D00000895DC01FB01E859FC4F9D91992311F0F6
:100D10009193FBCF0895A6E3B6E0E7E9F6E02D91C5
:100D2000219326E0E13AF207D1F71092A106BC0127
:100D300087E996E00C9481068EBD0DB407FEFDCFC9
:100D40008EB50895CF93C62F0E949C068C2FCF910D
:100D50000C949C068F929F92AF92BF92CF92DF929B
:100D6000EF92FF92CF9343E351E0A5EAB2E030E087
:100D700020E06AE0FA018191AF018E3008F08E50D8
:100D8000E091000190E4E99FF001112487708E2B1F
:100D900080937C0080917A00806480937A008091B7
:100DA0007A0086FDFCCF8091780090917900C09107
:100DB000D601EC2EF12C21112AC170911306772354
:100DC00019F08091ED0190E0629FF001639FF00DBA
:100DD0001124EE0DFF1DEE0FFF1FEB55FD4F50963A
:100DE000ED90FC905197C080D180EC18FD08519691
:100DF000FC92EE925097E080F1808E0D9F1D9695AB
:100E00008795918380835096ED91FC9151978E0F39
:100E10009F1F51969C938E9350972F5F3F4F5496F0
:100E20002530310509F0A6CFD0902606E090B50216
:100E3000F090B60280911306811117C160911206DD
:100E400070E090E080E00E94ED2C4B015C01B70166
:100E500090E080E00E94EB2C9B01AC01C501B40145
:100E60000E94A22D23E037E24BED58E3DD2021F074
:100E70002FE632E143E05AE30E94A22D0E94BC2CEF
:100E80007093600360935F0380910A06809356031A
:100E90006091C9027091CA0290E080E00E94EB2C40
:100EA0004B015C0160911A0670E090E080E00E94C6
:100EB000ED2C9B01AC01C501B4010E94A22D23E0E1
:100EC00037E24BED58E3DD2021F02FE632E143E03D
:100ED0005AE30E94A22D0E94BC2C7093550360938C
:100EE0005403A091F102B091F20233E0B595A795B9
:100EF0003A95E1F724EF31E00E944D2E20E034E0F6
:100F000040E050E00E94762B30935C0320935B031B
:100F100080911506823009F00BC1809116019091E5
:100F2000170160910A0170910B018617970740F035
:100F300060910C0170910D018617970708F4BC01B0
:100F400090E080E0685E73408109910924E6C22E3A
:100F5000D12CE12CF12C623FE3E07E078105910565
:100F600040F42AE030E040E050E00E94A02B69010C
:100F70007A01A7019601C701B6010E940F2E0E94B7
:100F8000EB2C2AE037ED43EA5CE30E94A22D4B01F3
:100F90005C01C701B6010E94EB2C9B01AC01C501AD
:100FA000B4010E94D22B6B017C0160910E03709101
:100FB0000F0390E080E00E94EB2C9B01AC01C70185
:100FC000B6010E94A22D2AE037ED43E25CE30E94C5
:100FD000A22D6B017C0160910C0370910D0390E0D8
:100FE00080E00E94EB2C9B01AC018091420688239B
:100FF00009F445C0C701B6010E94D22B6093F605E3
:101000007093F7058093F8059093F90540C024305C
:1010100009F0DACE70910D06733061F4E0910E069E
:10102000F0E0EE0FFF1FE25FFE4F80819181969509
:101030008795CACE723029F48091EB019091EC0132
:10104000C3CE713009F0C0CE8091D7019091D80104
:1010500095958795009709F0B7CEF701EE0FFF1F22
:10106000EB50FD4F80819181AFCE43E0F594E79442
:101070004A95E1F7F0926003E0925F0305CF209379
:10108000F6053093F7054093F8055093F905209144
:1010900005033091060383E0359527958A95E1F79E
:1010A0008091E205882349F080914E078F3009F046
:1010B0009BC03093130320931203C0901003D09071
:1010C0001103F12CE12C032E000C440B550B2C19B1
:1010D0003D094E095F09A4E6B0E00E94952B2091DE
:1010E00012033091130350E040E02C193D094E09E2
:1010F0005F090E94762B2536310514F024E630E096
:1011000037FF02C030E020E03093D9052093D805A6
:10111000CF5FC83008F072C0C093D601CF91FF9066
:10112000EF90DF90CF90BF90AF909F908F900895F9
:101130008130A1F48091E9019091EA0197FF0CC000
:1011400005976AE070E00E94332E072E000C880B92
:10115000990B0E94ED2C52CF0596F3CFC0900C0353
:10116000D0900D03F12CE12C2091DD023091DE02B4
:1011700093E0359527959A95E1F7032E000C440BE3
:10118000550B2C193D094E095F09A0910E03B09132
:101190000F030E94952B2FEF33E040E050E02C1915
:1011A0003D094E095F090E94762BCA01B9010E94D0
:1011B000ED2C6B017C0120E030E0A9010E943E2C67
:1011C00087FD09C0C092F605D092F705E092F805B8
:1011D000F092F9055CCF1092F6051092F705109287
:1011E000F8051092F90553CF813009F066CF30939E
:1011F00011032093100310924E075FCF1092D60177
:101200008DCF8091F5058823E9F180E090E1A0E0A1
:10121000B0E08093E8059093E905A093EA05B093C8
:10122000EB0580915A07882381F01092E80510920F
:10123000E9051092EA051092EB051092EC05109268
:10124000ED051092EE051092EF058091EC0590915E
:10125000ED05A091EE05B091EF054091E8055091A4
:10126000E9056091EA057091EB0584239523A62397
:10127000B7238093EC059093ED05A093EE05B09312
:10128000EF0508958091E205882329F08EED97E01F
:10129000A4E0B0E0BECF8AE191E0A0E0B0E08093AE
:1012A000E8059093E905A093EA05B093EB058091DA
:1012B0004E0690914F06A0915006B0915106892B91
:1012C0008A2B8B2B61F48AE199E0A0E0B0E0809357
:1012D000E8059093E905A093EA05B093EB058091AA
:1012E000A00281119ECF8091EC059091ED05A09117
:1012F000EE05B091EF05B1608093EC059093ED059C
:10130000A093EE05B093EF058CCFCF9381E080934F
:1013100032018AE08093310183E0809330011092A2
:10132000E2051092E305109272078091240688234B
:1013300061F11092FE051092FF05109200061092C6
:10134000010610924B0510924C0510924D0510921B
:101350004E05109263031092620310927105109271
:101360007005109258031092570310926505109261
:1013700064058EEF90E0909306018093050184E66A
:1013800090E09093080180930701C09196028091AC
:101390000B038C17B9F0C0930B0361E082ED0E9440
:1013A00003058C2F0E94ED040E94E70460E08AEFA1
:1013B0000E9403050E94010964E670E080E090E06D
:1013C0000E94A904CF910C940109AF92BF92CF92D1
:1013D000DF92EF92FF920F931F93CF93DF93EC0175
:1013E0005B01142FF22E0E945805882309F441C096
:1013F000112319F01093970611E0C12ED12CB601DC
:101400006956794F023080F12E2D402FC5010E9480
:101410002B06E02FF0E0E956F94FEC0DFD1D108290
:10142000FF2069F00E946805E82FF0E0E956F94FC7
:10143000F0828F5FE82FF0E0E956F94F1082CC0F71
:10144000DD1FCC58DA4F68817981717087E996E0A9
:10145000DF91CF911F910F91FF90EF90DF90CF9090
:10146000BF90AF900C9481064AE0C5010E942B2BDF
:10147000D7CFDF91CF911F910F91FF90EF90DF9029
:10148000CF90BF90AF900895EF920F931F93CF939B
:10149000DF93C62FD42F20914206211102C090E085
:1014A00080E010912106BC01990F880B990B0E94D6
:1014B000ED2C2CEB34E743E15DE3112321F02DED1E
:1014C0003FE347EB5CE30E94A22D0E94B52C809184
:1014D0007005909171059C012C5E3F4F26173707D0
:1014E00008F53093710520937005809132068823AA
:1014F00039F08617170624F480914A0781110CC031
:10150000E12FF0E0EC5BFE4FE12C00E020814D2F5D
:101510008C2F90E00E94E509DF91CF911F910F91F0
:10152000EF9008958617970700F770937105609301
:101530007005DBCF0C94682B1F93CF93DF93EC01E6
:10154000172F0E949A0A612FCE010196DF91CF9149
:101550001F910C949A0AEF92FF920F931F93CF93CF
:10156000DF93809131018A30C9F49091300193303A
:10157000A9F49091DF0192301CF091E09093DF018B
:101580009091DF019F3F1CF49FEF9093DF019091BA
:1015900032012091DF01920F90933201909132013C
:1015A00097FF03C09CE090933201909132019D30EF
:1015B00014F01092320190913201913009F0B1C0D3
:1015C000EFEFE80FE73090F4863010F0E1E0E80F3D
:1015D00020913001223009F497C0233009F49DC0D6
:1015E000F0E0E95CFC4F213009F491C08A3009F049
:1015F000BAC09093020180913001813009F47CC01F
:10160000823009F0B0C080910B03809396026EE1A6
:101610008AEC0E940305C7E3D3E08DE2E82E83E065
:10162000F82E03E213E089910E94ED04F701819105
:101630007F010E94ED04F80181918F010E94ED0469
:10164000F3E0C134DF0779F70E94E7046BE08CEC2C
:101650000E94030580911F030E94ED0480911E03E8
:101660000E94ED0480911D030E94ED0480911C03F3
:101670000E94ED0480911B030E94ED0480911A03E7
:101680000E94ED04809119030E94ED0480911803DB
:101690000E94ED0480912103909122030E94FB049B
:1016A000809120030E94ED040E94E70408E016E008
:1016B000D0E0C0E0F80161918F01CE010E949A0A4A
:1016C0002196CA33D105B1F70CE013E0CAE3D0E0AC
:1016D000F801619171918F01CE010E949C0A2296BE
:1016E000C634D105A9F76FE090E080E00E949A0A25
:1016F00060E08AEF0E940305DF91CF911F910F9167
:10170000FF90EF900C948509F0E0E35DFC4F2081A1
:101710003091DF01230F208369CFF0E0ED5DFC4FB6
:10172000F6CF933039F520913001233009F05ECFA8
:10173000813059F0823009F059CF80912003909187
:10174000DF01890F809320030EC02091DF0180917B
:10175000210390912203820F911D27FD9A9590936A
:10176000220380932103DF91CF911F910F91FF906E
:10177000EF900895923009F049C020913001233054
:1017800009F034CFEFEFE80FE83008F02FCFF0E0AA
:10179000E253F44F2091DF010C94472ED60BDC0B63
:1017A000E20BE80BEE0BF40BFA0B000C30911F036D
:1017B000230F20931F031ACF30911E03230F209372
:1017C0001E0314CF30911D03230F20931D030ECF52
:1017D00030911C03230F20931C0308CF30911B036F
:1017E000230F20931B0302CF30911A03230F209362
:1017F0001A03FCCE30911903230F20931903F6CE60
:1018000030911803230F20931803F0CE953081F503
:1018100020913001233009F0E9CE8230C9F058F42C
:10182000813009F0E3CE809110069091DF01890F9D
:101830008093100698CF833099F0843009F0D6CE8B
:10184000809111069091DF01890F809311068BCF53
:10185000809112069091DF01890F8093120683CF49
:1018600080911A069091DF01890F80931A067BCF31
:10187000963009F0B4C020913001233009F0B6CE83
:10188000823049F08330B1F0813009F0AFCE8FE083
:1018900080934E0768CF2091DF01809112039091D1
:1018A0001303820F911D27FD9A9590931303809344
:1018B000120359CF2091DF01809110039091110301
:1018C000820F911D27FD9A95909311038093100329
:1018D0004ACF20913001233009F088CE813091F039
:1018E000823009F083CE2091DF0180910C0390912A
:1018F0000D03820F911D27FD9A9590930D03809300
:101900000C0331CF2091DF0180910E0390910F03E2
:10191000820F911D27FD9A9590930F0380930E03DC
:1019200022CF20913001233009F060CE813009F0C0
:101930005DCE809125069091DF01890F8093250669
:1019400012CF20913001233009F050CE813059F070
:10195000823009F04BCE81E090911B06911180E01E
:1019600080931B0600CF8AE080934F07FCCE8091C6
:1019700030069091DF01890F80933006F4CE80917C
:1019800031069091DF01890F80933106ECCE809172
:1019900032069091DF01890F80933206E4CE809168
:1019A00033069091DF01890F80933306DCCE80915E
:1019B0001C069091DF01890F80931C06D4CE809184
:1019C0001D069091DF01890F80931D06CCCE81E02A
:1019D00090911806911180E080931806C4CE97303C
:1019E00009F477CF983009F49CCF993009F4A9CF46
:1019F0009A3009F0FBCD20913001233009F0F6CD6B
:101A0000EFEFE80FE73008F0F1CDF0E0E65FF24FDE
:101A10000C94472EB70CBF0CC70CCF0CD70CDF0CA7
:101A2000E70CCF92DF92EF92FF920F931F93CF9329
:101A3000DF9390E080E00E94602B8F3009F438C083
:101A4000D0E0C0E0FE01E85DFB4F6491CE010E9452
:101A50009A0A2196CA33D105A9F7CAE3D0E0FE015C
:101A6000EE51FC4F65917491CE010E949C0A229622
:101A7000C634D105A1F780E8E82E84E0F82E08EB03
:101A800013E0CE01885B93406C01F801659174917D
:101A9000C601800F911F0E949C0A0E5F1F4FE01627
:101AA000F10699F7CC59DF4FC23791E0D90739F7E2
:101AB000DF91CF911F910F91FF90EF90DF90CF902A
:101AC0000895CF92DF92EF92FF920F931F93CF93DF
:101AD000DF9308E016E0D0E0C0E0CE010E94602B6A
:101AE000F80181938F012196CA33D105B1F7809116
:101AF0000D06813009F43B98F89480910D068130F1
:101B000071F480916C0083FD0AC08091680082604E
:101B10008093680080916C00886080936C0078945A
:101B200080912606882309F460C081E0809300013B
:101B30000CE013E0CE010E94602BE82EF12CF8019E
:101B4000F182E082CE0101960E94602B90E0982FF6
:101B500088278E0D9F1DF801819391938F01229606
:101B6000C634D10539F7C0914906F4E6CF9FE001AC
:101B700011247E0186E4E80EF11C04E715E0C65549
:101B8000DF4FC7010E94602BC82ED12CF801D182F3
:101B9000C082C70101960E94602B90E0982F882791
:101BA0008C0D9D1DF801819391938F0120919006DA
:101BB000213061F49C0131702739310538F03297BA
:101BC000213F3105A0F44E9691838083F2E0EF0E21
:101BD000F11CCE15DF05A9F6DF91CF911F910F9172
:101BE000FF90EF90DF90CF90089583E09FCFCC9649
:101BF000EBCF5E9A2A9864E670E080E090E00E9465
:101C0000A9042A9A80E58CBD81E08DBD8DB58EB585
:101C10006AE070E080E090E00E94A9045E9864E6CB
:101C200070E080E090E00E94A90482E08093910639
:101C30001092900680EA0E949C068FEF0E949C06FC
:101C400083708093630590912206923028F1813051
:101C5000F1F48093900680939106809190068130F4
:101C600001F580EE91E090934203809341036CE490
:101C700080E00E94A2065E9A9FB7F894E89A80914D
:101C800069008260809369009FBF0C94610D82306F
:101C900021F710929106E1CF9093900690939106D0
:101CA000DCCF86E891E090934203809341036CE09F
:101CB000DFCF2F923F924F925F926F927F928F92DF
:101CC0009F92AF92BF92CF92DF92EF92FF920F93CB
:101CD0001F93CF93DF9300D0CDB7DEB7782E8BEA7A
:101CE00096E00E94D503BCE22B2E33243394412C82
:101CF000512C18EE812E13E0912EA12CB12C00E274
:101D0000602E892BB9F40F900F90DF91CF911F9126
:101D10000F91FF90EF90DF90CF90BF90AF909F908A
:101D20008F907F906F905F904F903F902F9008958D
:101D3000772049F38BEA96E00E94B3032091600775
:101D4000309161072F5F3F4F309361072093600709
:101D500020919402309195022115310589F421E0FA
:101D600030E0843211F030E020E03093950220938F
:101D700094028BEA96E00E94D503892BC9F6C3CF63
:101D80002130310549F48D3479F482E090E090936C
:101D9000950280939402EDCF2230310541F48E33C9
:101DA00019F483E090E0F3CF90E080E0F0CF2330AF
:101DB000310591F4853628F0109295021092940224
:101DC000D8CF8093930224E030E0309395022093A3
:101DD000940280939202CDCF2430310581F4E5E066
:101DE000F0E0F0939502E093940280939102909139
:101DF000920289278093920210929002BACF2530E6
:101E0000310509F0B6CF90919202292F282720930F
:101E10009202E091900220919302E2136CC5981314
:101E2000CBCF80915E0790915F07019690935F07FB
:101E300080935E0710922B0285E080935807809173
:101E400091028C3D09F03EC00E942705F82EF9E072
:101E50008F1387C083E080935A070E942705182FAD
:101E60000E942705212F280F3327331F30932A0282
:101E7000209329020E942705809328026FE18CEDB0
:101E80000E94030589E00E94ED04AAE0FA2E009169
:101E9000290210912A02C8010E94602BE82E80932B
:101EA0002802C8010E94FB048E2D0E94ED040F5FE2
:101EB0001F4F10932A0200932902FA94F110E7CFE2
:101EC0000E94E70480919102863B09F070C18091E5
:101ED0004206811171CF8091F50581116DCF0E946D
:101EE000DB046093DE057093DF058093E00590933B
:101EF000E1058091E20581110E9485090E94270574
:101F0000813009F451C108F44BC1823009F439C160
:101F1000833009F051CF0E942705E82E0E94270543
:101F2000D82E0E9427053EE1E39E7001112405E0B2
:101F300010E080919302801711060CF43DCF0E94AF
:101F400027058983882309F437CF1A82B7016D0DDD
:101F5000711DCE0101960E948106D3940F5F1F4F21
:101F6000E8CF38E0831342C083E080935A07FAE059
:101F7000FF2E0E942705082F0E94270590E0982F2A
:101F80008827080F192F111D10932A020093290288
:101F90000E94270580932802682FC8010E949A0A90
:101FA0006FE090E080E00E949A0A0091290210916F
:101FB0002A020534110521F0013781E0180711F4D8
:101FC0000E94610DFA94F110D4CF0F5F1F4F109350
:101FD0002A020093290263E08CED0E94030589E048
:101FE0000E94ED04C8010E94FB046ACF9BE08913A4
:101FF00043C083E080935A0710925B076BE08CED3F
:102000000E94030587E00E94ED0405EA12E0F80152
:102010008089918973E0969587957A95E1F70E947A
:10202000FB040C5E1F4F29E033E02017310779F7DE
:102030000E94E7046DE08CED0E9403058AE00E9497
:10204000ED0487E090E00E94FB0481E090E00E94B4
:10205000FB0488E097E00E94FB0481E090E00E948E
:10206000FB0490E080E00E94FB0481E090E00E948D
:10207000FB040E94E70404C0E7E08E1709F4B9CF1F
:1020800033E0F3126CC0809193028530D1F40E944A
:10209000320580329D4109F015CF0E9427050E942C
:1020A00027058091420681110DCF8091E2058111B3
:1020B00009CF8091F505811105CF81E08093F50569
:1020C00001CF883309F0FECE62EFE62E61E0F62EF6
:1020D00087010E942705F80181938F0128E232E0F1
:1020E0002E173F07B1F70E942705082F5E98D09062
:1020F000900660E4D11001C060E080E00E94A2067A
:10210000602F89E00E94A20610E0612F8AE00E9401
:10211000A206F70161917F018BE00E94A2061F5F7A
:10212000163399F760EA88E00E94A20680EA0E94CE
:102130009C0685FDFBCF6CE4D11001C06CE080E013
:102140000E94A2065E9A64E170E080E090E00E9446
:10215000A9040F3F09F0B6CE0E94F90DB3CEF6E008
:10216000FF120BC060E090E080E00E949A0A0E949B
:10217000110D81E080938F06A5CE25E0F216C9F3FC
:10218000A1CE8091410390914203E8E6F3E09F01E4
:10219000285633402817390708F00ECE6192F7CF42
:1021A00081E08093F40508CE1092F40505CE8330CB
:1021B00009F065C00E9427058093A0020E942705B0
:1021C0008093A1020E9427058093A2028091910230
:1021D0008A3609F0DEC10E942705882319F081E0C4
:1021E000809343060E94270580934A050E9440057C
:1021F00060935F057093600580936105909362051D
:102200000E94400560935B0570935C0580935D05BB
:1022100090935E050E943205B0E0A0E02091420656
:10222000211108C08093EE019093EF01A093F0017B
:10223000B093F1014091EE015091EF016091F001F6
:102240007091F101841B950BA60BB70B809355057C
:1022500090935605A0935705B09358050E943205F8
:1022600090930706809306069093730580937205FA
:102270000E94320590935A05809359059DCD85366D
:1022800099F50E9432050E9432050E943205909312
:102290005E0380935D030E94400560934A0670933D
:1022A0004B0680934C0690934D0600914E0610917C
:1022B0004F062091500630915106602371238223EE
:1022C000932321E0672B682B692B09F420E02093EE
:1022D00042060E94270580930B039091E20591111D
:1022E0007FC38093960272CF893609F06FCF00E1E9
:1022F00011E00E943205F801819391938F0120E251
:1023000031E02E173F07A9F7009112011091130138
:10231000C801855195408F38914008F05CC080918C
:10232000100190911101855195408F38914008F02E
:1023300052C08091140190911501855195408F38BC
:10234000914008F048C01092E8018092E401909218
:10235000E501A092E601B092E7018091E8018111C8
:102360003FC38091E2050B3327E0120708F45EC0FB
:1023700020911401309115012B33374008F456C0D9
:1023800020911601309117012F37344008F44EC0C8
:1023900081111CCF8091E6059091E705069708F41E
:1023A00015CF80914206811111CF8091F4058111E2
:1023B0000DCF82E08093E80181E08093E205809177
:1023C0000201809332010E9401098091E80181306D
:1023D00009F0FCCEA2C08091E801813009F0BDCFA8
:1023E0000E94DB04C090E001D090E101E090E201A6
:1023F000F090E3016C197D098E099F09C090E401FA
:10240000D090E501E090E601F090E701C616D7060E
:10241000E806F90610F41092E8012092E4013092E7
:10242000E5014092E6015092E70197CF882309F435
:10243000CDCEF090DF01F5E0FF15A4F555E0F52EC7
:102440001092DF018091E305882381F080911601CD
:10245000909117018134964020F480917207811188
:1024600005C082E08093E8010E9485098091E20521
:10247000882309F45DC020911001309111012B33A4
:1024800097E03907A8F081E08093E801809130015E
:102490008F5F80933001843008F43FC083E08093E5
:1024A000300193CF2BEFF2165CF64BEFF42EC8CF32
:1024B0002E37344068F491E09093E8018091300128
:1024C000815080933001811128C0909330017DCFDD
:1024D0000B33F7E01F07A0F091E09093E8018091A3
:1024E0003101815080933101811102C090933101FB
:1024F00080913201811111C08AE08093310165CF52
:102500000E371440A8F481E08093E80180913101F6
:102510008F5F809331018B3078F70E94DB046093EA
:10252000E0017093E1018093E2019093E3014ECECC
:102530009091E305911149CF882309F446CF80910A
:102540001401909115018E3734E0930748F481E02F
:102550008093E801FA94F092DF010E94AB0A35CF34
:102560008B33974008F431CF81E08093E801F394F6
:10257000F092DF01809132018A3079F78091300149
:10258000833059F780913101853039F710924F0728
:10259000E4CF8B3699F40E943205B0E0A0E080933E
:1025A0004F0590935005A0935105B09352050E949A
:1025B00032059093540580935305FECB8C3609F079
:1025C00011C20E9432059093DB058093DA050E94C8
:1025D00032059093DD058093DC050E943205843B33
:1025E000910514F088569140909369058093680591
:1025F000E3CB8E3609F088C10E9427058093ED0158
:102600000E94320590935A03809359030E94320529
:102610009093EC018093EB010E9432059093EA01C4
:102620008093E901809115068111C6CB10925A035F
:1026300010925903C1CB0E94270580931F030E946B
:10264000270580931E030E94270580931D030E9487
:10265000270580931C030E94270580931B030E947B
:10266000270580931A030E942705809319030E946F
:102670002705809318030E943205909322038093CC
:1026800021030E942705809320038091E805909103
:10269000E905A091EA05B091EB059D7F8093E805DF
:1026A0009093E905A093EA05B093EB0585CB0E94D2
:1026B000270580930A038091E8059091E905A09190
:1026C000EA05B091EB05AB7FE9CF80914E06909182
:1026D0004F06A0915006B09151068C299D29AE2934
:1026E000BF2980934E0690934F06A0935006B09357
:1026F0005106CC0CDD1CEE1CFF1C115046C1809114
:10270000520690915306A0915406B09155068C291B
:102710009D29AE29BF298093520690935306A0931A
:102720005406B0935506E5CF809156069091570612
:10273000A0915806B09159068C299D29AE29BF2930
:102740008093560690935706A0935806B093590667
:10275000D0CF80915A0690915B06A0915C06B09113
:102760005D068C299D29AE29BF2980935A06909336
:102770005B06A0935C06B0935D06BBCF80915E06BE
:1027800090915F06A0916006B09161068C299D2909
:10279000AE29BF2980935E0690935F06A0936006E2
:1027A000B0936106A6CF8091620690916306A091D6
:1027B0006406B09165068C299D29AE29BF298093B6
:1027C000620690936306A0936406B093650691CF6A
:1027D0008091660690916706A0916806B09169069F
:1027E0008C299D29AE29BF298093660690936706A0
:1027F000A0936806B09369067CCF80916A06909199
:102800006B06A0916C06B0916D068C299D29AE29AE
:10281000BF2980936A0690936B06A0936C06B093D1
:102820006D0667CF80916E0690916F06A09170063D
:10283000B09171068C299D29AE29BF2980936E061F
:1028400090936F06A0937006B093710652CF80915B
:10285000820690918306A0918406B09185068C290A
:102860009D29AE29BF298093820690938306A09369
:102870008406B09385063DCF80917E0690917F06B9
:10288000A0918006B09181068C299D29AE29BF298F
:1028900080937E0690937F06A0938006B093810676
:1028A00028CF8091760690917706A0917806B09116
:1028B00079068C299D29AE29BF29809376069093AD
:1028C0007706A0937806B093790613CF80917206AD
:1028D00090917306A0917406B09175068C299D297C
:1028E000AE29BF298093720690937306A093740655
:1028F000B0937506FECE91E09E0F90939002F0E0AB
:10290000E45DFD4F808335CA8F3609F494CE80375D
:1029100039F507E313E02DE2C22E23E0D22E33E295
:10292000E32E33E0F32E0E942705F80181938F01F7
:102930000E942705F60181936F010E942705F70188
:1029400081937F01F3E001341F0769F78091E80567
:102950009091E905A091EA05B091EB059B7F9ECE91
:102960008B3309F4A4CE873709F026CA81E080931F
:102970008E061091930280E4EEE4F6E011928A95BF
:10298000E9F7C12CD12C7601C394112309F414CAA0
:102990000E9427058D3108F0ACCEE82FF0E0ED5213
:1029A000FB4E0C94472E65137F139413A9137913D0
:1029B000BE1379137913D3137913E813FD1312148B
:1029C0007913791379132714791379133C14791334
:1029D00079137913791379137913791366145114D0
:1029E000809191028D3609F004CE0E9440056093DB
:1029F00064037093650380936603909367030E945A
:102A000032059093490580934805D6C9CF92DF924D
:102A1000EF92FF920E94DB046B017C0128E2C20E60
:102A2000D11CE11CF11C81E08093DD018091DD016E
:102A3000882371F00E94DB04C616D706E806F90663
:102A400018F41092DD01F2CF80E00E94590EEECF13
:102A5000FF90EF90DF90CF9008951F920F920FB6E6
:102A60000F9211242F933F934F935F936F937F9314
:102A70008F939F93AF93BF93EF93FF938BEA96E06F
:102A80000E94F503FF91EF91BF91AF919F918F91BC
:102A90007F916F915F914F913F912F910F900FBE5A
:102AA0000F901F9018951F920F920FB60F9211243E
:102AB0002F938F939F93EF93FF93E091BB06F09139
:102AC000BC068081E091C106F091C20682FD1BC068
:102AD00090818091C4068F5F8F732091C506821705
:102AE00041F0E091C406F0E0E555F94F958F8093F1
:102AF000C406FF91EF919F918F912F910F900FBE80
:102B00000F901F9018958081F4CF1F920F920FB6EF
:102B10000F9211242F933F938F939F93AF93BF9363
:102B20008091980290919902A0919A02B0919B0293
:102B30003091970223E0230F2D3758F50196A11D00
:102B4000B11D209397028093980290939902A093CD
:102B50009A02B0939B0280919C0290919D02A09159
:102B60009E02B0919F020196A11DB11D80939C020F
:102B700090939D02A0939E02B0939F02BF91AF914C
:102B80009F918F913F912F910F900FBE0F901F90AB
:102B9000189526E8230F0296A11DB11DD2CF1F92D2
:102BA0000F920FB60F9211241092DD010F900FBEFD
:102BB0000F901F9018951F920F920FB60F9211242D
:102BC0002F933F934F935F936F937F938F939F9335
:102BD000AF93BF93CF93EF93FF93C6B178940E94C6
:102BE00084042091DB013091DC01AB01421B530BCB
:102BF0009A01293B3B4018F021E02093010170939A
:102C0000DC016093DB01C3FD2BC02091D901309121
:102C1000DA01621B730BCB01875B93408F3A9440C0
:102C200040F47093A4026093A3027093D801609360
:102C3000D701809101018F5F80930101FF91EF9196
:102C4000CF91BF91AF919F918F917F916F915F9144
:102C50004F913F912F910F900FBE0F901F9018959D
:102C60007093DA016093D901E9CFEBEAF6E01382C1
:102C7000128288EE93E0A0E0B0E084839583A6837F
:102C8000B7838AE491E09183808385EC90E0958717
:102C9000848784EC90E09787868780EC90E0918B26
:102CA000808B81EC90E0938B828B82EC90E0958B13
:102CB000848B86EC90E0978B868B118E128E138E10
:102CC000148E84E080935A070895CF93DF93CDB795
:102CD000DEB7E8970FB6F894DEBF0FBECDBF78948D
:102CE00084B5826084BD84B5816084BD85B5826011
:102CF00085BD85B5816085BD80916E0081608093C2
:102D00006E0010928100809181008260809381002A
:102D1000809181008160809381008091800081603A
:102D2000809380008091B10084608093B100809195
:102D3000B00081608093B00080917A0084608093BD
:102D40007A0080917A00826080937A0080917A0084
:102D5000816080937A0080917A00806880937A0005
:102D60001092C10084B714BE809160008861809386
:102D7000600010926000E091BB06F091BC0682E01A
:102D80008083E091B706F091B8061082E091B90611
:102D9000F091BA0690E190831092C306E091BF06CD
:102DA000F091C00686E08083E091BD06F091BE06FA
:102DB000808180618083E091BD06F091BE068081B4
:102DC00088608083E091BD06F091BE0680818068B6
:102DD0008083E091BD06F091BE0680818F7D808367
:102DE0008091C00082608093C0001092C5009093D3
:102DF000C40084B18C6284B92498569A529881E1B7
:102E00000E944F0385E00E944F03579A0E94110DC4
:102E10000E94610D68EE73E080E090E00E94A904DA
:102E20000E94F90D0E9401098BEA96E00E94640459
:102E300046EF242E33243A941092930680915C0737
:102E400090915D07019690935D0780935C071091C8
:102E50008F06112361F084B7877F84BF8091600063
:102E600088658093600081E480936000FFCF80914B
:102E70007E0690917F06A0918006B09181064091D8
:102E80004A0650914B0660914C0670914D06842382
:102E90009523A623B723892B8A2B8B2B09F474C186
:102EA00081E0809349060091490680914806081305
:102EB0000E94610D0093480680914A07882309F417
:102EC00066C15F9A0E94DB044B015C01809144065D
:102ED00090914506A0914606B0914706B501A40120
:102EE000481B590B6A0B7B0B443651056105710574
:102EF00008F48BC08C599F4FAF4FBF4F809344064F
:102F000090934506A0934606B093470680914807E4
:102F10008F5F80934807809149078F5F80934907AF
:102F200081E090914B07911180E080934B07809155
:102F30004306882309F43FC0809142068823D9F1D3
:102F40006091060670910706072E000C880B990BFE
:102F50000E94ED2CC0900206D0900306E09004067B
:102F6000F090050620912106222309F412C121EBDD
:102F700032E047E55BE30E94A22DA70196010E9483
:102F8000D22B6093020670930306809304069093FD
:102F900005066091020670910306809104069091E7
:102FA00005060E94BC2C6093FE057093FF0580937C
:102FB0000006909301062091F6053091F7054091A7
:102FC000F8055091F9056091FA057091FB05809123
:102FD000FC059091FD050E94D22B6093FA05709339
:102FE000FB058093FC059093FD058091F50581110B
:102FF0000CC08091F405811108C080915A0781119D
:1030000004C060E08CE60E9403058091F005909179
:10301000F105A091F205B091F305B501A401481B9B
:10302000590B6A0B7B0B423351056105710508F49E
:103030007CC1C296A11DB11D8093F0059093F1054E
:10304000A093F205B093F3058091EC059091ED0506
:10305000A091EE05B091EF05892B8A2B8B2B81F483
:103060008091E8059091E905A091EA05B091EB0502
:103070008093EC059093ED05A093EE05B093EF05DA
:10308000C090EC05D090ED05E090EE05F090EF05D6
:1030900088279927DC018C199D09AE09BF098C216D
:1030A0009D21AE21BF21AC01BD0140955095609599
:1030B00070954C215D216E217F214093EC0550934A
:1030C000ED056093EE057093EF05811522E0920700
:1030D000A105B10509F4ABC008F072C080319105BB
:1030E000A105B10509F49DC008F058C082309105D2
:1030F000A105B10509F4A3C00897A105B10509F41C
:103100008CC080E09091F5059111A4C09091F405D8
:10311000911105C0882319F060E00E9403055E98B4
:1031200060E085E00E94A20660E086E00E94A206C0
:1031300061E084E00E94A2060E94061538E6C32ED4
:1031400033E0D32EF12CE12C00E2809141039091E9
:103150004203E816F90608F074C050EFE516F104D2
:1031600011F40E940615D6016D916D0187E00E9451
:10317000A2068091F405811103C0F6013197008306
:10318000BFEFEB1AFB0AE1CF109249068CCE5F9895
:1031900099CE2FE632E143E85AE3EDCE803891052F
:1031A000A105B105E1F1811541E09407A105B10543
:1031B000D1F18097A105B10509F0A3CF8BE6A2CF8D
:1031C000009751E0A507B10581F1A0F4811578E0E1
:1031D0009707A105B10569F18115E0E19E07A105F9
:1031E000B10549F181159440A105B10509F089CFD8
:1031F00080E788CF009720E8A207B105F1F000979B
:10320000A10531E0B30739F00097A440B10509F0FA
:1032100078CF8BE377CF83E075CF89E673CF8AE6EB
:1032200071CF8DE66FCF8EE66DCF82E76BCF8FE6E5
:1032300069CF87E767CF8CED65CF88E363CF85E6FD
:1032400061CF6FEF87E00E94A20660E084E00E94F9
:10325000A2065E9A0E94AA068091E6059091E70573
:10326000039708F034C128E6E22E24E0F22E00E4B1
:1032700010E0F70185919491B8010E947606E2E092
:10328000EE0EF11C025E1F4F0E34F1E01F0789F7AE
:1032900088EF90E00E948B06E0919106F0E0EE0F3F
:1032A000FF1FEE59FB4F8591949166E171E00E94FA
:1032B00076068091A0024AE067E976E090E00E94FD
:1032C0002B2B0E946805E82FF0E0E956F94F1EE22B
:1032D00010838F5F682F70E06956794F8091A1024B
:1032E0004AE090E00E942B2B0E946805E82FF0E056
:1032F000E956F94F10838F5F682F70E06956794F58
:103300008091A1024AE090E00E942B2B64E371E0DF
:1033100087E996E00E9481068091E4059091E50599
:10332000CC9790934D0780934C0780914907853047
:1033300048F01092490781E090914A07911180E08E
:1033400080934A070E94DB04AB01BC0180915407C3
:1033500090915507A0915607B091570788519C4FFF
:10336000AF4FBF4F84179507A607B70708F09FC058
:103370008093540790935507A0935607B09357072F
:103380001092480780915C0790915D0790936F05BC
:1033900080936E0510925D0710925C0780915E0726
:1033A00090915F0790936D0580936C0510925F0775
:1033B00010925E07809160079091610790936B0572
:1033C00080936A0510926107109260078091E4056E
:1033D0009091E50501969093E5058093E405809131
:1033E000F505811110C05E9880EA0E949C068FEF5F
:1033F0000E949C06837090916305891711F40C94C8
:10340000162B0E94F90D80917207882319F08150C4
:103410008093720780915807882319F08150809318
:10342000580780915A07882319F0815080935A07D2
:10343000809142068823B1F08091660590916705DE
:10344000019690936705809366058091640590913D
:103450006505019690936505809364051092E205D9
:103460000E9401098091E6059091E70501969093ED
:10347000E7058093E60580914F07813051F48091F4
:10348000E205882331F060E08EEC0E940305109283
:103490004F0780914F07882319F0815080934F0781
:1034A00080914E07882319F0815080934E0781E068
:1034B0000E94590E80E090E0892B09F4BDCC0E9457
:1034C000E103882309F4B8CC0E940000B5CCF09049
:1034D0004206FF2069F081E08093E3058AE0809353
:1034E00072078091E20501E08130A1F40E94850914
:1034F0000091E305002371F0F1100CC0109232012D
:103500008AE08093310181E0809330018093E2056D
:103510000E940109F090E205FF2009F414C6F09022
:103520003201EF2DEE0FFF0BE250FB4F859194918E
:1035300063E270E00E9476066BE671E089EF94E04A
:103540000E94760601110CC061E771E08FEE94E0F5
:103550000E9476066BE771E088EE94E00E947606A2
:10356000F110C0C083E10E945805811104C010927F
:1035700008011092070121E030E040E050E029838B
:103580003A834B835C838091FE059091FF05A09167
:103590000006B09101068D839E83AF83B88780912A
:1035A0004B0590914C05A0914D05B0914E05898732
:1035B0009A87AB87BC878091620390916303092E41
:1035C000000CAA0BBB0B8D879E87AF87B88B8091B1
:1035D000700590917105B0E0A0E0898B9A8BAB8B60
:1035E000BC8B20E030E044EB53E46091FA0570912D
:1035F000FB058091FC059091FD050E94432C0E94E3
:10360000BC2C6D8B7E8B8F8B988F80915703909104
:103610005803B0E0A0E0898F9A8FAB8FBC8F809168
:10362000050190910601B0E0A0E08D8F9E8FAF8FD5
:10363000B8A38091070190910801092E000CAA0BF4
:10364000BB0B89A39AA3ABA3BCA3AE014F5F5F4F93
:103650004A01B6EDAB2EB4E0BB2E0AEFFF24FA947C
:103660008EE1E82ED4014D905D906D907D904D01DE
:103670004114510461047104F1F0F394FE9C600163
:103680001124F50185919491B601635A7F4F0E94F0
:103690007606BEE6CB0ED11C023008F056C323E0FE
:1036A00044E067E976E0C2010E942B06B60187E993
:1036B00096E00E948106E2E0AE0EB11C0F5F03307F
:1036C00089F6609164057091650590E080E021E0E5
:1036D00047E956E00E948F056DE670E087E996E0C5
:1036E0000E94810680913201813009F06BC0F8ECB4
:1036F000CF2EF4E0DF2EADE5EA2EF12CF601859118
:103700009491B7010E947606F2E0CF0ED11C2EE113
:10371000E20EF11C3FE2E31631E0F30679F760E0D8
:10372000EEE1BE2E653009F418C3062F673010F0A5
:10373000062F62506B9D70011124C02ED12CF60112
:10374000E95CFC4F80814AE067E976E090E00E9406
:103750002B2BB7016B597F4F0E948106F601E35D69
:10376000FC4F80814AE067E976E090E00E942B2BD5
:10377000B70165597F4F0E948106F601ED5DFC4F50
:1037800080814AE067E976E090E00E942B2BB70148
:103790006F587F4F0E94810661E0600F693011F61B
:1037A00067E470E081E891E00E9481066DE470E0DA
:1037B00088E591E00E94810663E570E08BEB91E083
:1037C0000E94810680913201833079F5C0902103F7
:1037D000D0902203DEA2CDA2E0902003F12CF8A627
:1037E000EFA2E4ECF4E0859194916DE570E00E9425
:1037F00076064AE067E976E0C6010E942B2B61E776
:1038000070E00E948106E6ECF4E0859194916BE70C
:1038100070E00E9476064AE067E976E0C7010E9400
:103820002B2B6FE870E00E9481068091320182307C
:1038300009F052C080911F0390E09EA38DA3809158
:103840001E0390E098A78FA380911D0390E09AA794
:1038500089A780911C0390E09CA78BA780911B03F4
:1038600090E09EA78DA780911A0390E098AB8FA758
:103870008091190390E09AAB89AB8091180390E096
:103880009CAB8BAB64EBA62E64E0B62E4E0145E2FA
:10389000840E911C7DE5C72ED12CF5018591949164
:1038A000B6010E9476064AE067E976E0D4018D9180
:1038B0009D914D010E942B2BB6016C5E7F4F0E94A3
:1038C0008106B2E0AB0EB11CEEE1CE0ED11CFDE4E0
:1038D000CF16F1E0DF0609F780913201853009F05B
:1038E00078C00E94AA0687E98093970623E044E007
:1038F00068E976E080915F03909160030E942B0657
:1039000009EA00939C0610929D0664E370E087E943
:1039100096E00E9481068FEB8093970623E044E0B7
:1039200068E976E080915403909155030E942B063C
:1039300000939C0610929D066CE270E087E996E089
:103940000E9481064CEAC42E44E0D42E5DE5E52EAB
:10395000F12CF60185919491B7010E94760622E040
:10396000C20ED11C3EE1E30EF11C45EDE416F1045C
:1039700081F7809110064AE067E976E090E00E94C6
:103980002B2B61E770E00E948106809112064AE0CD
:1039900067E976E090E00E942B2B6FE870E00E94D0
:1039A000810680911A064AE067E976E090E00E947D
:1039B0002B2B6DEA70E00E948106809111064AE08F
:1039C00067E976E090E00E942B2B6BEC70E00E94A0
:1039D000810680913201863009F05EC04AE067E9D5
:1039E00076E08091D8059091D9050E942B2B0E94FA
:1039F0006805E82FF0E0E956F94F95E290838F5F74
:103A0000E82FF0E0E956F94F108265E370E087E9AE
:103A100096E00E948106E6EAF4E0859194916DE5D6
:103A200070E00E947606E8EAF4E0859194916BE7F5
:103A300070E00E947606EAEAF4E08591949169E9E3
:103A400070E00E94760680914E07882309F487C1B2
:103A50004AE067E976E090E00E942B2B61E770E096
:103A60000E9481064AE067E976E080911203909116
:103A700013030E942B2B6FE870E00E9481064AE03E
:103A800067E976E080911003909111030E942B2B3F
:103A90006DEA70E00E94810680913201873009F062
:103AA00046C06091F6057091F7058091F8059091F8
:103AB000F9050E94B52CCB0123E044E067E976E0EC
:103AC0000E942B068AE980939B0610929C0664E371
:103AD00070E087E996E00E948106E2EAF4E08591D1
:103AE00094916DE570E00E947606E4EAF4E0859139
:103AF00094916BE770E00E9476064AE067E976E011
:103B000080910E0390910F030E942B2B61E770E0D0
:103B10000E9481064AE067E976E080910C0390916B
:103B20000D030E942B2B6FE870E00E9481068091AC
:103B300032018830A1F4E0EAF4E0859194916DE5DA
:103B400070E00E947606809125064AE067E976E0FB
:103B500090E00E942B2B61E770E00E94810680912B
:103B60003201893061F5ECE9F4E0859194916DE5DD
:103B700070E00E947606EEE9F4E0859194916BE79F
:103B800070E00E94760680914F07882309F4ECC00C
:103B90004AE067E976E090E00E942B2B61E770E055
:103BA0000E948106E0911B06F0E0EE0FFF1FE65831
:103BB000FB4F859194916FE870E00E9476068091AA
:103BC00032018A3009F057C08091300690E09EA300
:103BD0008DA38091310690E098A78FA38091320643
:103BE00090E09AA789A78091330690E09CA78BA7C5
:103BF00080911C0690E09EA78DA780911D0690E005
:103C000098AB8FA79EE8892E94E0992E5E0155E22D
:103C1000A50EB11C2DE5C22ED12CF40185919491F5
:103C2000B6010E947606163069F04AE067E976E050
:103C3000D5018D919C910E942B2BB6016C5E7F4F1C
:103C40000E9481061F5FB2E08B0E911CEEE1CE0E4A
:103C5000D11CF2E0AF0EB11C1730F9F6E091180656
:103C6000F0E0EE0FFF1FE658FB4F8591949165E25F
:103C700071E00E947606809132018B3081F5E090F0
:103C80000B03F12CFEA2EDA200910A0310E018A78D
:103C90000FA31AA619A6E8E8F4E0859194916DE5C2
:103CA00070E00E9476064AE067E976E0C7010E946C
:103CB0002B2B61E770E00E948106EAE8F4E0859131
:103CC00094916BE770E00E9476064AE067E976E03F
:103CD000C8010E942B2B6FE870E00E948106809142
:103CE0003201843009F045C00EE7E02E04E0F02EEA
:103CF0000DE510E0F70185919491B8010E947606D8
:103D000022E0E20EF11C025E1F4F033F110591F706
:103D1000309131013A3009F048C18091300183304F
:103D200009F408C2813009F408C2823009F008C2DF
:103D300080E791E020914B07222309F4F6CA8859C5
:103D40009C4F23E0DC012C93F0CA4AE067E976E05F
:103D5000C2010E942B2BB601ACCC67E0E9CC61E735
:103D600070E08AE591E07CCE61E770E08AE591E061
:103D700017CF8C3009F011C163E070E08CE591E061
:103D80000E94810661E270E082E791E00E94810674
:103D900010E1E12E11E0F12E0FE310E04AE067E9B7
:103DA00076E0D7018D919D917D010E942B2BB8016A
:103DB00087E996E00E948106025E1F4F0F32B1E054
:103DC0001B0761F766E370E085E791E00E948106DA
:103DD000B5EAEB2EB2E0FB2E04E510E04AE067E91D
:103DE00076E0F701808991890E942B2BB80187E941
:103DF00096E00E948106F4E1EF0EF11C025E1F4F77
:103E00000A3E110559F708E210E0E0E3FE2EF4E463
:103E1000DF2EAAE3EA2E20E047E069E976E090E0B1
:103E200080E00E942B06D0929706F0929806E092CE
:103E30009906B80187E996E00E948106F394025E34
:103E40001F4F003A110539F768E071E08AE791E009
:103E50000E9481064AE067E976E08091A302909192
:103E6000A4020E942B2B66E271E087E996E00E9493
:103E700081064AE067E976E090E080E00E942B2B23
:103E800064E471E087E996E00E94810660EA70E0F0
:103E90008EE791E00E9481064AE067E976E0809132
:103EA0006E0590916F050E942B2B65EA70E087E903
:103EB00096E00E9481066EEB70E083E891E00E943C
:103EC000810680914A054AE067E976E090E00E9429
:103ED0002B2B63EC70E087E996E00E9481066AEF85
:103EE00070E087E891E00E948106809142064AE0F6
:103EF00067E976E090E00E942B2B6FEF70E087E996
:103F000096E00E94810668E171E08BE891E00E94F2
:103F100081064AE067E976E080916C0590916D0535
:103F20000E942B2B6DE171E087E996E00E948106EB
:103F30006CED70E08FE891E00E9481064AE067E94D
:103F400076E080916A0590916B050E942B2B61EEC3
:103F500070E087E996E00E94810666E371E082E9FD
:103F600091E00E948106E4E7F7E0CF018457974093
:103F70002081253A39F428E0EF3FF20709F010F4E8
:103F80003196F3CF4AE067E976E00E942B2B6BE392
:103F900071E087E996E00E948106809132018D30C0
:103FA0000CF4B6CE10923201B3CE3A3008F0C8C04D
:103FB00020913201213001F5383019F48AE08093E4
:103FC000310180913101893019F487E0809331010A
:103FD0002091310130E02E5F3F4F4EE1429FC00102
:103FE000439F900D11242091300136E0239F800DD6
:103FF000911D112404969ECE233071F4333019F4B0
:104000008AE08093310180913101893009F066C0E6
:1040100082E08093310162C02230E9F4393039F412
:10402000809109038830A9F48AE0809331012091BE
:1040300031012093090383E08093300130E02E5F4B
:104040003F4F4EE1429FC001439F900D1124469681
:1040500071CE88E0EACF253071F483E0809330019F
:10406000353019F48AE08093310180913101893033
:10407000A9F584E0CECF263071F483E0809330013F
:10408000343019F48AE08093310180913101893014
:1040900029F583E0BECF90E080E0273071F483E023
:1040A00080933001393019F482E08093310180919E
:1040B0003101833099F48AE0ACCF283091F4393063
:1040C00019F481E08093310180913101823019F43B
:1040D0008AE08093310183E08093300120913101A7
:1040E000ADCF2930E1F22A3069F483E080933001CA
:1040F000393019F487E080933101809131018830A3
:1041000069F7D9CF243039F423E0209330012AE035
:10411000209331010FCE2B3051F4393019F482E065
:1041200080933101809131018330A9F6D1CF2C30B9
:1041300059F300CE8AE791E0FDCD8AE691E0FACD11
:1041400090E080E0F7CD8091F405882321F1809103
:10415000DE059091DF05A091E005B091E105805367
:10416000984FAF4FBF4F88159905AA05BB0508F0BA
:10417000DCC82091410330914203E8E6F3E080E29D
:10418000AF01485653404217530710F48193F8CFBC
:104190001092F405CAC80E940109C090DC05D090B5
:1041A000DD058090DA059090DB058AEF8093970615
:1041B000C601BAE0CB16D1043CF06AE070E00E9480
:1041C000332ECB0161E00AC0B1010E94332ECB0136
:1041D000D7FEF8CF2DE22093980662E070E0695692
:1041E000794F4AE00E942B2B8FE00E9458058823CC
:1041F00049F06091920570919305717087E996E09E
:104200000E9481068BEF80939706C401EAE08E1628
:1042100091043CF06AE070E00E94332ECB0161E033
:104220000AC0B1010E94332ECB0197FEF8CF2DE2D8
:104230002093980662E070E06956794F4AE00E9448
:104240002B2B80E10E945805882349F0609194054A
:1042500070919505717087E996E00E9481068091C2
:104260004206811104C010920706109206060091C2
:104270000606109107068091510390915203980110
:10428000215F3F4F2817390708F047C10E94DB0420
:1042900060934D0370934E0380934F0390935003AC
:1042A00082E080934C03109352030093510380915A
:1042B00004018150803108F42EC1809304014090A4
:1042C000640350906503609066037090670380916B
:1042D000480390914903A0914A03B0914B03B30165
:1042E000A2014C5E5F4F6F4F7F4F481759076A0717
:1042F0007B070CF032C10E94DB046093440370938F
:104300004503809346039093470382E080934303E1
:10431000409248035092490360924A0370924B03C3
:10432000809103018150803108F415C1809303010D
:104330008091A8059091A9059170892B29F483E1BA
:104340008093040180930301A090A605B090A70577
:10435000F1E0BF2280915D0380FFACC089E10E9443
:104360005805882309F4A6C0C60128E3C2162FEF1A
:10437000D20614F488E39FEF893C910514F088EC91
:1043800090E09C01265F3F4F37FF02C0295F3F4FFF
:1043900063E0359527956A95E1F766247724621ADC
:1043A000730AE090410640E074E0472E512C09E08A
:1043B00010E0443009F445E0C40130E783163EEFD5
:1043C000930614F480E79EEF813951E0950714F0CD
:1043D00080E991E0C42ED12CB2016C197D09869F31
:1043E0009001879F300D969F300D112437FF02C03A
:1043F000215C3F4F56E0359527955A95E1F7260DFC
:10440000371D275D3F4F2235310508F03FC0C901F8
:10441000B8010E94332E9EE1969FF001979FF00D08
:104420001124CA0CDB1CEC0DFD1DBF016C5771097A
:10443000603EA1E07A0728F468597C4F8058DB0180
:104440008C93EE2019F18EEF840F8530F8F4CF01B4
:10445000865D9109803EB1E09B0758F4BC01685924
:104460007C4F6B01C901B8010E94332E8058D601E0
:104470008C93B297E03EB1E0FB0740F4E859FC4F63
:10448000C901B8010E94332E805880834F5F4930A4
:1044900009F08FCF82E20E94580581110BC0F5010F
:1044A000E859FC4FDF01119786E28C938CEB8183F6
:1044B0008EE780838AE10E945805882309F4D7C0DB
:1044C00000912706D0901406AD2DA195E09004012F
:1044D000B0910301002E000C110BC80188599C4FAC
:1044E0002EE1C22EB501601B710BAC014A0D5B1DA4
:1044F000DA160CF458C0EC2DAE0290011124F9012B
:10450000E859FC4FE60FF71FE082240F351FF90131
:10451000B083AF5FEDCF85E1D0CE0F9680179107C6
:1045200008F0CDCE0E94DB0460934D0370934E03E0
:1045300080934F039093500381E080934C0310933A
:10454000520300935103809104018F5F863108F478
:10455000B4CE80E1B2CE85E1E9CE4496A11DB11D75
:1045600084159505A605B7050CF0E2CE0E94DB0484
:1045700060934403709345038093460390934703ED
:1045800081E0809343034092480350924903609234
:104590004A0370924B03809103018F5F863108F4C8
:1045A000C5CE80E1C3CEF501E01BF10BE759FC4F0E
:1045B00023E020838A0D9B1DFC01319782E08083DC
:1045C0008BE10E945805882309F451C00E94DB0446
:1045D000AB01BC0180914D0390914E03A0914F031C
:1045E000B091500388519C4FAF4FBF4F48175907A8
:1045F0006A077B07A0F42D2D3EE12302F001112470
:1046000020914C03223009F0A1C2A5014E1B5F0B83
:10461000FA01E01BF10BE859FC4F89EC80830E9402
:10462000DB04AB01BC018091440390914503A09150
:104630004603B091470388519C4FAF4FBF4F481777
:1046400059076A077B0798F40A0D1B1D5D2D6EE163
:104650005602C001112420914303223009F07EC28A
:10466000081B190BF801E859FC4F89EC8083C090B6
:104670005F03D09060038091050190910601C816F8
:10468000D90620F4D0920601C09205018091090656
:10469000882309F46BC220915303C6016DE270E0D8
:1046A0000E941F2E6F5F261718F42F5F209353036D
:1046B00080910C0690915303899F802D1124809343
:1046C00061038091230647E9882381F1E091530338
:1046D000B2E2EB9F400111242AE2E29FF001112493
:1046E000282DC814D90438F09F0122503109C21670
:1046F000D30608F49601092C000CAA08BB0830E088
:1047000050E040E0281939094A095B09A7E0B0E008
:104710000E94952B31979F0150E040E028193909FC
:104720004A095B090E94762B46E9421B809161038E
:104730008C151D0429F020F080914A07811109C0D1
:1047400093E0E92E04E029EAB60185E190E00E94B9
:10475000E5096091540370915503809156038617C3
:10476000170629F020F080914A07811109C083E0E3
:10477000E82E04E029EA4FEB86E190E00E94E5098B
:104780006091D8057091D90580910B0686171706A0
:1047900024F080914A078823B1F08091070190911D
:1047A0000801681779073CF41616170624F470936D
:1047B000080160930701E12C00E025E24AEB83E168
:1047C00090E00E94E5098090F6059090F705A09092
:1047D000F805B090F90520E030E040E251E4C50171
:1047E000B4010E94432C2B013C0160911D0670E036
:1047F00090E080E00E94ED2C9B01AC01C301B2016E
:104800000E943E2C87FD04C080914A07882329F12D
:10481000609157037091580390E080E00E94EB2C68
:104820009B01AC01C501B4010E949D2D181644F4F2
:10483000C501B4010E94BC2C7093580360935703C8
:10484000C501B4010E94B52C04E0E02E05E02AE980
:1048500040E087E190E00E94E50960915903709182
:104860005A036115710581F420E030E044EB53E414
:104870006091FA057091FB058091FC059091FD0512
:104880000E94432C0E94B52C80911C0634E6839F25
:10489000C00111248617970724F480914A078823C2
:1048A000C1F020E030E044EB53E46091FA057091F0
:1048B000FB058091FC059091FD050E94432C0E9410
:1048C000B52CE12C00E024EA40E088E190E00E9471
:1048D000E50900918E0510918F05011542E014073E
:1048E00080F180914206882309F450C1409133063B
:1048F0002091660530916705442369F0C9016CE396
:1049000070E00E941F2E4617170609F020F48091D0
:104910004A07811116C020315EE0350708F02DC12D
:104920008CE980939706B90190E080E020E048E9A7
:1049300056E00E948F05B801717087E996E00E94E9
:10494000810660915B0370915C0380913A06861743
:10495000170624F480914A07811124C01091210682
:104960001123A1F0072E000C880B990B0E94ED2C4F
:1049700026E636E646EE5FE30E94A22D20E030E018
:1049800040E052E40E94D22B0E94B52CE12FF0E0CF
:10499000E05CFE4FE12C00E0208146E084E190E005
:1049A0000E94E5098EE00E945805882309F484C01E
:1049B00080911806882309F47FC0809142068111F6
:1049C000F6C0809193068260809393068EE1809377
:1049D00009012091610380915F0390916003281782
:1049E000190631F028F08091930680648093930635
:1049F00080915D0383FF0AC080915807811106C032
:104A0000809193068F7C886080939306E090930654
:104A100080919406811102C0E09294060091940660
:104A2000102F119510230E94DB04AB01BC01809173
:104A3000620790916307A0916407B09165078C505D
:104A40009E4FAF4FBF4F84179507A607B70788F44F
:104A5000002329F0812F80950823009394060E945B
:104A6000DB046093620770936307809364079093FD
:104A70006507E0E090E080E0212F30E0A901082EFA
:104A800002C0559547950A94E2F740FDE82F01963C
:104A90008830910599F771E07E1570F4F0E0EE0F23
:104AA000FF1FE85EFA4F8591949160919005709197
:104AB000910571700E9476068BE00E94580588234C
:104AC00009F4A2C080E2809398068091160190912B
:104AD000170120910C0130910D012817390720F49E
:104AE00090930D0180930C0120910A0130910B01EC
:104AF0008217930720F490930B0180930A01209171
:104B00000C0130910D012330384030F022E038E0C4
:104B100030930D0120930C0120910A0130910B017B
:104B2000263B334030F426EB33E030930B012093E7
:104B30000A012091420621114FC08DE2809399060F
:104B400080939A0680E280939B0650C0EA0DFB1D7D
:104B5000E01BF10BE859FC4F8FEC60CD88599C4F5E
:104B6000080F191F8FECD8018C9381CD809111060D
:104B70008093530380911006A2CD81E7809397061E
:104B8000C9016CE370E00E941F2ECECE8091E40537
:104B90009091E50580316EE0960728F42BE920938B
:104BA0009706BC01C1CE20E720939706EACF8091FB
:104BB0000901882359F090914B0791117DCF909175
:104BC0009306946090939306815001CF8091930651
:104BD000816080939306FDCE20911B062223F1F184
:104BE00020E044E068E976E00E942B0688EC8093A0
:104BF000970610929C0660918A0570918B057170E2
:104C000087E996E00E94810687E20E945805882382
:104C100009F44DC080911906823008F446C0809195
:104C20004C0790914D072091E4053091E505AC01CA
:104C3000445C5F4F42175307D0F5805C9F4F82174B
:104C4000930720F430934D0720934C078091C205C1
:104C50009091C30591700E948B0629C080900A0133
:104C600090900B01B12CA12CB0E0A0E09C01AD0113
:104C7000281939094A095B09A4E6B0E00E94952B7E
:104C800020910C0130910D0150E040E028193909C4
:104C90004A095B090E94762BC90120E043E068E9DC
:104CA00076E00E942B0685E24ECF813079F288E0D3
:104CB0000E9458058823D9F0809168059091690574
:104CC000880F991F880F991F83509D4F6AE570E0E8
:104CD0000E94332E675D7A4F8091840590918505FF
:104CE000917049E050E088599C4F0E94222B6091BE
:104CF00068057091690577FF02C068597E4FE12C05
:104D000000E02DEB43EF87E090E00E94E509809101
:104D10002106882309F4E9C060916403709165035A
:104D200080916603909167030E94ED2C2EEA31E694
:104D300046E05DE30E94A22D0E94B52C8B0180917C
:104D40004206882389F08091E6059091E705069751
:104D500058F080916203909163038017910724F4C7
:104D6000109363030093620389E00E94580588232F
:104D700009F440C020913106222369F0C80164E69D
:104D800070E00E94332E2617170609F024F4809154
:104D90004A0781112FC08FE3809397064AE068E9A4
:104DA00076E0C8010E942B2B80E00E947305609181
:104DB000860570918705717087E996E00E948106EB
:104DC000809162039091630327EF209397064AE056
:104DD00068E976E00E942B2B80E00E9473056091C9
:104DE0008605709187057170625E7F4F87E996E056
:104DF0000E948106109121068091480590914905F5
:104E0000112309F482C0BC01990F880B990B0E94F1
:104E1000ED2C2AE13AEF47EA5EE30E94A22D0E94C0
:104E2000B52CE12FF0E0EE5BFE4FA2E0EA2E03E0AE
:104E3000208148EF89E290E00E94E5098AE00E9423
:104E40005805882309F47BC0209188053091890595
:104E500031700091480510914905902F812F0A3635
:104E6000EFEF1E0714F49AE68FEF40911E06E92F2C
:104E7000F82FE739F10514F0E6E9F0E0642F70E06F
:104E800086E990E00E94332ECF010E94332ED62E69
:104E9000FC01C62E53E0459FB001112486E990E045
:104EA0000E94332ECF010E94332E562F40E07EE128
:104EB000AFE8E42FF0E08C2D0C2C000C990B97FF41
:104EC00003C0919581959109E817F9075CF5479F13
:104ED000C001112410161106ECF4F901E81BF90BBE
:104EE000E859FC4FA0834F5FE4CF60916403709159
:104EF0006503809166039091670324E630E040E00B
:104F000050E00E94762B89011ACF6AE070E00E947F
:104F1000332E87CF88599C4FFC01E20FF31F89E89D
:104F20008083E1CF552359F09D2DAEE19A022019DF
:104F300031091124F901E859FC4F6457608310913D
:104F40004A05153020F480914A0781111BC080E08A
:104F50000E9458058823B1F08EE1809397068FE177
:104F6000809398064AE069E976E0812F90E00E94FC
:104F70002B2B6091740570917505717087E996E02F
:104F80000E94810681E00E945805882349F1209102
:104F900076053091770531708091680590916905AB
:104FA000845E9D4F4091530550915405841B950B91
:104FB000880F991F880F991F8D966AE570E00E94EF
:104FC000332ECB0160E170E00E94332E805A809333
:104FD000970610929806B90187E996E00E9481062B
:104FE00080904F0590905005A0905105B0905205CB
:104FF00080912106882371F0C501B4010E94EB2C39
:1050000021EA38EF41E550E40E94A22D0E94BC2C19
:105010004B015C0180914B0590914C05A0914D0591
:10502000B0914E0588159905AA05BB0598F48C59D1
:105030009F4FAF4FBF4F88159905AA05BB0510F4C8
:105040004C015D0180924B0590924C05A0924D055C
:10505000B0924E0582E00E945805882371F11091AC
:1050600030061123A9F0C501B40124E630E040E088
:1050700050E00E94A02B812F90E0B0E0A0E0281724
:1050800039074A075B0720F080914A07811115C054
:105090008AE7809397064AE068E976E0C4010E94B7
:1050A0002B2B82E00E947305609178057091790541
:1050B000717087E996E00E948106609153057091B6
:1050C0005405E12C00E02DEB42EF84E090E00E94DB
:1050D000E50985E00E945805882309F448C08090BE
:1050E000550590905605A0905705B09058058091B1
:1050F0002106882371F0C501B4010E94ED2C21EA3C
:1051000038EF41E550E40E94A22D0E94B52C4B01DE
:105110005C01109131061123A9F0C501B40124E608
:1051200030E040E050E00E94762B812F90E0B0E02C
:10513000A0E0281739074A075B0724F080914A0747
:10514000811115C08EEB809397064AE068E976E0FE
:10515000C4010E942B2B80E00E94730560917E05A4
:1051600070917F05717087E996E00E94810652E098
:10517000E52E03E020E044EF70E060E081E390E0A2
:105180000E94E50945EF63E08091060690910706CD
:105190000E94440A46EF6CE280917205909173057B
:1051A0000E94440A8FE20E945805882369F12091E9
:1051B000D2053091D3053170E0916805F091690511
:1051C000EC57FC4F8091590590915A05B1010E940E
:1051D000332ECF01860F971F880F991F880F991FB5
:1051E0008D966AE570E00E94332ECB0160E170E09D
:1051F0000E94332E80528093970610929806B90130
:1052000087E996E00E948106E0912106F0E0EC5BE0
:10521000FE4F6091700570917105E12C00E02081D6
:1052200047EF8DE290E00E94E50981E10E94580578
:1052300080904A0690904B06A0904C06B0904D0688
:105240004091660650916706609168067091690604
:10525000482159216A217B21482B452B462B472B7E
:1052600091F1009196051091970511708AEC809349
:10527000970660915F05709160058091610590913E
:10528000620523E54EE40E94F102B80187E996E049
:105290000E948106009198051091990511708BEC80
:1052A0008093970660915B0570915C0580915D0528
:1052B00090915E0527E545E40E94F102B80187E977
:1052C00096E00E94810680915807882311F40C947F
:1052D00095198091620690916306A0916406B09141
:1052E000650688219921AA21BB21892B8A2B8B2B2A
:1052F000B1F01092990686E18093970687E180933A
:1053000098068EE10E945805882349F06091B00507
:105310007091B105717087E996E00E9481068091D5
:10532000520690915306A0915406B09155068821DB
:105330009921AA21BB21892B8A2B8B2B81F4809167
:10534000560690915706A0915806B09159068821AB
:105350009921AA21BB21892B8A2B8B2B29F080EA4A
:1053600080939706FF24F39480915A0690915B06F0
:10537000A0915C06B0915D0688219921AA21BB21EC
:10538000892B8A2B8B2B39F0EF2DF0E0E956F94F62
:1053900082EA8083F39480915E0690915F06A091EB
:1053A0006006B091610688219921AA21BB21892B31
:1053B0008A2B8B2B39F0EF2DF0E0E956F94F81EA7B
:1053C0008083F394EF2DF0E0E956F94F108286E0E8
:1053D0000E945805882349F06091800570918105ED
:1053E000717087E996E00E94810680916E06909127
:1053F0006F06A0917006B091710688219921AA21AB
:10540000BB2166E971E0892B8A2B8B2B09F096C0B2
:105410008091720690917306A0917406B091750602
:1054200088219921AA21BB216FE971E0892B8A2B60
:105430008B2B09F083C08091660690916706A0913E
:105440006806B091690688219921AA21BB2164EAE6
:1054500071E0892B8A2B8B2B09F070C080916A0632
:1054600090916B06A0916C06B0916D0688219921F0
:10547000AA21BB216CEA71E0892B8A2B8B2B09F0C6
:105480005DC08091860690918706A0918806B091B4
:10549000890688219921AA21BB2162EB71E0892B21
:1054A0008A2B8B2B09F04AC080915A0690915B069B
:1054B000A0915C06B0915D0688219921AA21BB21AB
:1054C00067EB71E0892B8A2B8B2BC1F580915206FB
:1054D00090915306A0915406B091550688219921C8
:1054E000AA21BB216DEB71E0892B8A2B8B2B31F527
:1054F0008091560690915706A0915806B091590692
:1055000088219921AA21BB2164EC71E0892B8A2B87
:105510008B2BA1F48091760690917706A091780666
:10552000B091790688219921AA21BB216CEC71E008
:10553000892B8A2B8B2B11F460ED71E087E996E0C3
:105540000E94542E81E20E945805882349F0609100
:10555000B6057091B705717087E996E00E948106E3
:1055600084E20E945805882311F40C9495198091C7
:105570004A0781110C9495198091720690917306D7
:10558000A0917406B091750688219921AA21BB21AA
:10559000892B8A2B8B2B09F043C080916606909152
:1055A0006706A0916806B091690688219921AA2111
:1055B000BB21892B8A2B8B2BA9F580916A069091B0
:1055C0006B06A0916C06B0916D0688219921AA21E5
:1055D000BB21892B8A2B8B2B39F5809186069091E4
:1055E0008706A0918806B091890688219921AA2171
:1055F000BB21E4E0892B8A2B8B2B11F40C94951999
:10560000F0E0EE0FFF1FED5BFA4F859194916091F2
:10561000BC057091BD0571700E9476060C949519B9
:10562000E1E0EECFE2E0ECCFE3E0EACF80E80E94F9
:105630009C068FEF0E949C0683FF02C00C94031A05
:105640000C94011AFB01DC0102C005900D9241503F
:105650005040D8F70895BB274A3031F4992322F4FB
:10566000BDE2909581959F4F0C94372BBB27FB0192
:105670005527AA27880F991FAA1FA41710F0A41B4B
:1056800083955051B9F7A05DAA3308F0A95DA193A5
:10569000009779F7B111B1931192CB010C94502B73
:1056A000DC01FC01672F71917723E1F7329704C089
:1056B0007C916D9370836291AE17BF07C8F3089514
:1056C000F999FECF92BD81BDF89A992780B50895CA
:1056D000262FF999FECF1FBA92BD81BD20BD0FB60E
:1056E000F894FA9AF99A0FBE01960895052E97FB41
:1056F0001EF400940E948D2B57FD07D00E94A02B12
:1057000007FC03D04EF40C948D2B509540953095AA
:1057100021953F4F4F4F5F4F08959095809570951D
:1057200061957F4F8F4F9F4F08950E94C22BA59F79
:10573000900DB49F900DA49F800D911D112408958C
:10574000A1E21A2EAA1BBB1BFD010DC0AA1FBB1F85
:10575000EE1FFF1FA217B307E407F50720F0A21BF7
:10576000B30BE40BF50B661F771F881F991F1A9464
:1057700069F760957095809590959B01AC01BD018E
:10578000CF010895A29FB001B39FC001A39F700DE8
:10579000811D1124911DB29F700D811D1124911D39
:1057A00008955058BB27AA270E94E92B0C94632D1B
:1057B0000E94552D38F00E945C2D20F039F49F3F57
:1057C00019F426F40C94522D0EF4E095E7FB0C949A
:1057D0004C2DE92F0E94742D58F3BA1762077307F6
:1057E0008407950720F079F4A6F50C94962D0EF415
:1057F000E0950B2EBA2FA02D0B01B90190010C01E1
:10580000CA01A0011124FF27591B99F0593F50F4F8
:10581000503E68F11A16F040A22F232F342F442750
:10582000585FF3CF469537952795A795F040539548
:10583000C9F77EF41F16BA0B620B730B840BBAF018
:105840009150A1F0FF0FBB1F661F771F881FC2F783
:105850000EC0BA0F621F731F841F48F48795779597
:105860006795B795F7959E3F08F0B0CF9395880F51
:1058700008F09927EE0F9795879508950E94282D97
:1058800008F481E008950E94572C0C94632D0E9427
:105890005C2D58F00E94552D40F029F45F3F29F00F
:1058A0000C944C2D51110C94972D0C94522D0E9458
:1058B000742D68F39923B1F3552391F3951B550B80
:1058C000BB27AA2762177307840738F09F5F5F4FD3
:1058D000220F331F441FAA1FA9F335D00E2E3AF012
:1058E000E0E832D091505040E695001CCAF72BD02A
:1058F000FE2F29D0660F771F881FBB1F261737077B
:105900004807AB07B0E809F0BB0B802DBF01FF27AC
:1059100093585F4F3AF09E3F510578F00C944C2D10
:105920000C94972D5F3FE4F3983ED4F386957795DA
:105930006795B795F7959F5FC9F7880F911D969565
:10594000879597F90895E1E0660F771F881FBB1FC1
:10595000621773078407BA0720F0621B730B840B6E
:10596000BA0BEE1F88F7E09508950E94BC2C68944E
:10597000B1110C94972D08950E947C2D88F09F57AB
:1059800098F0B92F9927B751B0F0E1F0660F771F63
:10599000881F991F1AF0BA95C9F714C0B13091F059
:1059A0000E94962DB1E008950C94962D672F782FC4
:1059B0008827B85F39F0B93FCCF38695779567951E
:1059C000B395D9F73EF490958095709561957F4F8A
:1059D0008F4F9F4F0895E89409C097FB3EF4909530
:1059E0008095709561957F4F8F4F9F4F9923A9F0B8
:1059F000F92F96E9BB279395F69587957795679547
:105A0000B795F111F8CFFAF4BB0F11F460FF1BC08A
:105A10006F5F7F4F8F4F9F4F16C0882311F096E91D
:105A200011C0772321F09EE8872F762F05C06623CB
:105A300071F096E8862F70E060E02AF09A95660F84
:105A4000771F881FDAF7880F9695879597F908953D
:105A5000990F0008550FAA0BE0E8FEEF161617067F
:105A6000E807F907C0F012161306E407F50798F0E7
:105A7000621B730B840B950B39F40A2661F0232B00
:105A8000242B252B21F408950A2609F4A140A6957C
:105A90008FEF811D811D089597F99F6780E870E061
:105AA00060E008959FEF80EC089500240A94161694
:105AB000170618060906089500240A9412161306FC
:105AC000140605060895092E0394000C11F488238A
:105AD00052F0BB0F40F4BF2B11F460FF04C06F5FA6
